{
  "contractName": "CryptologiqContract",
  "abi": [
    {
      "constant": true,
      "inputs": [],
      "name": "refundIsAvailable",
      "outputs": [
        {
          "name": "",
          "type": "bool"
        }
      ],
      "payable": false,
      "stateMutability": "view",
      "type": "function"
    },
    {
      "constant": true,
      "inputs": [],
      "name": "name",
      "outputs": [
        {
          "name": "",
          "type": "string"
        }
      ],
      "payable": false,
      "stateMutability": "view",
      "type": "function"
    },
    {
      "constant": false,
      "inputs": [
        {
          "name": "_spender",
          "type": "address"
        },
        {
          "name": "_value",
          "type": "uint256"
        }
      ],
      "name": "approve",
      "outputs": [
        {
          "name": "success",
          "type": "bool"
        }
      ],
      "payable": false,
      "stateMutability": "nonpayable",
      "type": "function"
    },
    {
      "constant": true,
      "inputs": [],
      "name": "totalSupply",
      "outputs": [
        {
          "name": "",
          "type": "uint256"
        }
      ],
      "payable": false,
      "stateMutability": "view",
      "type": "function"
    },
    {
      "constant": true,
      "inputs": [],
      "name": "companyWallet",
      "outputs": [
        {
          "name": "",
          "type": "address"
        }
      ],
      "payable": false,
      "stateMutability": "view",
      "type": "function"
    },
    {
      "constant": false,
      "inputs": [
        {
          "name": "_from",
          "type": "address"
        },
        {
          "name": "_to",
          "type": "address"
        },
        {
          "name": "_value",
          "type": "uint256"
        }
      ],
      "name": "transferFrom",
      "outputs": [
        {
          "name": "success",
          "type": "bool"
        }
      ],
      "payable": false,
      "stateMutability": "nonpayable",
      "type": "function"
    },
    {
      "constant": true,
      "inputs": [],
      "name": "ICO",
      "outputs": [
        {
          "name": "tokens",
          "type": "uint256"
        },
        {
          "name": "startDate",
          "type": "uint256"
        },
        {
          "name": "endDate",
          "type": "uint256"
        },
        {
          "name": "discount",
          "type": "uint8"
        },
        {
          "name": "discountFirstDayICO",
          "type": "uint8"
        }
      ],
      "payable": false,
      "stateMutability": "view",
      "type": "function"
    },
    {
      "constant": true,
      "inputs": [
        {
          "name": "",
          "type": "address"
        }
      ],
      "name": "balances",
      "outputs": [
        {
          "name": "",
          "type": "uint256"
        }
      ],
      "payable": false,
      "stateMutability": "view",
      "type": "function"
    },
    {
      "constant": true,
      "inputs": [],
      "name": "decimals",
      "outputs": [
        {
          "name": "",
          "type": "uint256"
        }
      ],
      "payable": false,
      "stateMutability": "view",
      "type": "function"
    },
    {
      "constant": false,
      "inputs": [],
      "name": "unpause",
      "outputs": [],
      "payable": false,
      "stateMutability": "nonpayable",
      "type": "function"
    },
    {
      "constant": false,
      "inputs": [],
      "name": "burn",
      "outputs": [],
      "payable": false,
      "stateMutability": "nonpayable",
      "type": "function"
    },
    {
      "constant": true,
      "inputs": [],
      "name": "tokensSold",
      "outputs": [
        {
          "name": "",
          "type": "uint256"
        }
      ],
      "payable": false,
      "stateMutability": "view",
      "type": "function"
    },
    {
      "constant": false,
      "inputs": [],
      "name": "refund",
      "outputs": [],
      "payable": false,
      "stateMutability": "nonpayable",
      "type": "function"
    },
    {
      "constant": false,
      "inputs": [
        {
          "name": "_tokens",
          "type": "uint256"
        },
        {
          "name": "_startDate",
          "type": "uint256"
        },
        {
          "name": "_endDate",
          "type": "uint256"
        },
        {
          "name": "_discount",
          "type": "uint8"
        },
        {
          "name": "_discountFirstDayICO",
          "type": "uint8"
        }
      ],
      "name": "startCrowd",
      "outputs": [],
      "payable": false,
      "stateMutability": "nonpayable",
      "type": "function"
    },
    {
      "constant": true,
      "inputs": [],
      "name": "paused",
      "outputs": [
        {
          "name": "",
          "type": "bool"
        }
      ],
      "payable": false,
      "stateMutability": "view",
      "type": "function"
    },
    {
      "constant": true,
      "inputs": [],
      "name": "hardcapReached",
      "outputs": [
        {
          "name": "",
          "type": "bool"
        }
      ],
      "payable": false,
      "stateMutability": "view",
      "type": "function"
    },
    {
      "constant": false,
      "inputs": [
        {
          "name": "_spender",
          "type": "address"
        },
        {
          "name": "_subtractedValue",
          "type": "uint256"
        }
      ],
      "name": "decreaseApproval",
      "outputs": [
        {
          "name": "success",
          "type": "bool"
        }
      ],
      "payable": false,
      "stateMutability": "nonpayable",
      "type": "function"
    },
    {
      "constant": true,
      "inputs": [],
      "name": "softcapReached",
      "outputs": [
        {
          "name": "",
          "type": "bool"
        }
      ],
      "payable": false,
      "stateMutability": "view",
      "type": "function"
    },
    {
      "constant": true,
      "inputs": [
        {
          "name": "",
          "type": "address"
        }
      ],
      "name": "balanceOf",
      "outputs": [
        {
          "name": "",
          "type": "uint256"
        }
      ],
      "payable": false,
      "stateMutability": "view",
      "type": "function"
    },
    {
      "constant": true,
      "inputs": [],
      "name": "icoEndTime",
      "outputs": [
        {
          "name": "",
          "type": "uint256"
        }
      ],
      "payable": false,
      "stateMutability": "view",
      "type": "function"
    },
    {
      "constant": true,
      "inputs": [],
      "name": "availableSupply",
      "outputs": [
        {
          "name": "",
          "type": "uint256"
        }
      ],
      "payable": false,
      "stateMutability": "view",
      "type": "function"
    },
    {
      "constant": false,
      "inputs": [],
      "name": "pause",
      "outputs": [],
      "payable": false,
      "stateMutability": "nonpayable",
      "type": "function"
    },
    {
      "constant": true,
      "inputs": [],
      "name": "buyPrice",
      "outputs": [
        {
          "name": "",
          "type": "uint256"
        }
      ],
      "payable": false,
      "stateMutability": "view",
      "type": "function"
    },
    {
      "constant": true,
      "inputs": [],
      "name": "tournamentsWallet",
      "outputs": [
        {
          "name": "",
          "type": "address"
        }
      ],
      "payable": false,
      "stateMutability": "view",
      "type": "function"
    },
    {
      "constant": true,
      "inputs": [],
      "name": "ownerWallet",
      "outputs": [
        {
          "name": "",
          "type": "address"
        }
      ],
      "payable": false,
      "stateMutability": "view",
      "type": "function"
    },
    {
      "constant": true,
      "inputs": [],
      "name": "symbol",
      "outputs": [
        {
          "name": "",
          "type": "string"
        }
      ],
      "payable": false,
      "stateMutability": "view",
      "type": "function"
    },
    {
      "constant": false,
      "inputs": [
        {
          "name": "_numerator",
          "type": "uint256"
        },
        {
          "name": "_denominator",
          "type": "uint256"
        }
      ],
      "name": "changeRate",
      "outputs": [
        {
          "name": "success",
          "type": "bool"
        }
      ],
      "payable": false,
      "stateMutability": "nonpayable",
      "type": "function"
    },
    {
      "constant": false,
      "inputs": [
        {
          "name": "_to",
          "type": "address"
        },
        {
          "name": "_value",
          "type": "uint256"
        }
      ],
      "name": "transfer",
      "outputs": [],
      "payable": false,
      "stateMutability": "nonpayable",
      "type": "function"
    },
    {
      "constant": true,
      "inputs": [],
      "name": "hardcap",
      "outputs": [
        {
          "name": "",
          "type": "uint256"
        }
      ],
      "payable": false,
      "stateMutability": "view",
      "type": "function"
    },
    {
      "constant": true,
      "inputs": [],
      "name": "internalExchangeWallet",
      "outputs": [
        {
          "name": "",
          "type": "address"
        }
      ],
      "payable": false,
      "stateMutability": "view",
      "type": "function"
    },
    {
      "constant": true,
      "inputs": [],
      "name": "stage",
      "outputs": [
        {
          "name": "",
          "type": "uint256"
        }
      ],
      "payable": false,
      "stateMutability": "view",
      "type": "function"
    },
    {
      "constant": true,
      "inputs": [],
      "name": "startIcoDate",
      "outputs": [
        {
          "name": "",
          "type": "uint256"
        }
      ],
      "payable": false,
      "stateMutability": "view",
      "type": "function"
    },
    {
      "constant": false,
      "inputs": [
        {
          "name": "amount",
          "type": "uint256"
        }
      ],
      "name": "widthrawOwner",
      "outputs": [],
      "payable": false,
      "stateMutability": "nonpayable",
      "type": "function"
    },
    {
      "constant": false,
      "inputs": [
        {
          "name": "_spender",
          "type": "address"
        },
        {
          "name": "_value",
          "type": "uint256"
        },
        {
          "name": "_extraData",
          "type": "bytes"
        }
      ],
      "name": "approveAndCall",
      "outputs": [
        {
          "name": "success",
          "type": "bool"
        }
      ],
      "payable": false,
      "stateMutability": "nonpayable",
      "type": "function"
    },
    {
      "constant": true,
      "inputs": [
        {
          "name": "_target",
          "type": "address"
        }
      ],
      "name": "frozen",
      "outputs": [
        {
          "name": "",
          "type": "bool"
        }
      ],
      "payable": false,
      "stateMutability": "view",
      "type": "function"
    },
    {
      "constant": false,
      "inputs": [
        {
          "name": "_to",
          "type": "address"
        },
        {
          "name": "_value",
          "type": "uint256"
        }
      ],
      "name": "transferTokensFromContract",
      "outputs": [],
      "payable": false,
      "stateMutability": "nonpayable",
      "type": "function"
    },
    {
      "constant": false,
      "inputs": [],
      "name": "finish",
      "outputs": [],
      "payable": false,
      "stateMutability": "nonpayable",
      "type": "function"
    },
    {
      "constant": false,
      "inputs": [
        {
          "name": "_spender",
          "type": "address"
        },
        {
          "name": "_addedValue",
          "type": "uint256"
        }
      ],
      "name": "increaseApproval",
      "outputs": [
        {
          "name": "success",
          "type": "bool"
        }
      ],
      "payable": false,
      "stateMutability": "nonpayable",
      "type": "function"
    },
    {
      "constant": true,
      "inputs": [],
      "name": "weisRaised",
      "outputs": [
        {
          "name": "",
          "type": "uint256"
        }
      ],
      "payable": false,
      "stateMutability": "view",
      "type": "function"
    },
    {
      "constant": true,
      "inputs": [
        {
          "name": "",
          "type": "address"
        },
        {
          "name": "",
          "type": "address"
        }
      ],
      "name": "allowance",
      "outputs": [
        {
          "name": "",
          "type": "uint256"
        }
      ],
      "payable": false,
      "stateMutability": "view",
      "type": "function"
    },
    {
      "constant": true,
      "inputs": [],
      "name": "bountyWallet",
      "outputs": [
        {
          "name": "",
          "type": "address"
        }
      ],
      "payable": false,
      "stateMutability": "view",
      "type": "function"
    },
    {
      "constant": false,
      "inputs": [
        {
          "name": "target",
          "type": "address"
        },
        {
          "name": "freeze",
          "type": "bool"
        }
      ],
      "name": "freezeAccount",
      "outputs": [],
      "payable": false,
      "stateMutability": "nonpayable",
      "type": "function"
    },
    {
      "constant": false,
      "inputs": [
        {
          "name": "_discount",
          "type": "uint8"
        }
      ],
      "name": "changeDiscount",
      "outputs": [
        {
          "name": "",
          "type": "bool"
        }
      ],
      "payable": false,
      "stateMutability": "nonpayable",
      "type": "function"
    },
    {
      "constant": false,
      "inputs": [
        {
          "name": "_investor",
          "type": "address"
        },
        {
          "name": "_amount",
          "type": "uint256"
        }
      ],
      "name": "transferWeb3js",
      "outputs": [],
      "payable": false,
      "stateMutability": "nonpayable",
      "type": "function"
    },
    {
      "constant": false,
      "inputs": [
        {
          "name": "newOwner",
          "type": "address"
        }
      ],
      "name": "transferOwnership",
      "outputs": [],
      "payable": false,
      "stateMutability": "nonpayable",
      "type": "function"
    },
    {
      "constant": true,
      "inputs": [],
      "name": "softcap",
      "outputs": [
        {
          "name": "",
          "type": "uint256"
        }
      ],
      "payable": false,
      "stateMutability": "view",
      "type": "function"
    },
    {
      "inputs": [],
      "payable": false,
      "stateMutability": "nonpayable",
      "type": "constructor"
    },
    {
      "payable": true,
      "stateMutability": "payable",
      "type": "fallback"
    },
    {
      "anonymous": false,
      "inputs": [],
      "name": "SoftcapReached",
      "type": "event"
    },
    {
      "anonymous": false,
      "inputs": [],
      "name": "HardcapReached",
      "type": "event"
    },
    {
      "anonymous": false,
      "inputs": [
        {
          "indexed": false,
          "name": "info",
          "type": "string"
        }
      ],
      "name": "CrowdSaleFinished",
      "type": "event"
    },
    {
      "anonymous": false,
      "inputs": [],
      "name": "RefundIsAvailable",
      "type": "event"
    },
    {
      "anonymous": false,
      "inputs": [],
      "name": "EPause",
      "type": "event"
    },
    {
      "anonymous": false,
      "inputs": [],
      "name": "EUnpause",
      "type": "event"
    },
    {
      "anonymous": false,
      "inputs": [
        {
          "indexed": true,
          "name": "from",
          "type": "address"
        },
        {
          "indexed": true,
          "name": "to",
          "type": "address"
        },
        {
          "indexed": false,
          "name": "value",
          "type": "uint256"
        }
      ],
      "name": "Transfer",
      "type": "event"
    },
    {
      "anonymous": false,
      "inputs": [
        {
          "indexed": false,
          "name": "amount",
          "type": "uint256"
        }
      ],
      "name": "Burned",
      "type": "event"
    },
    {
      "anonymous": false,
      "inputs": [
        {
          "indexed": true,
          "name": "_owner",
          "type": "address"
        },
        {
          "indexed": true,
          "name": "_spender",
          "type": "address"
        },
        {
          "indexed": false,
          "name": "_value",
          "type": "uint256"
        }
      ],
      "name": "Approval",
      "type": "event"
    },
    {
      "anonymous": false,
      "inputs": [
        {
          "indexed": false,
          "name": "target",
          "type": "address"
        },
        {
          "indexed": false,
          "name": "frozen",
          "type": "bool"
        }
      ],
      "name": "FrozenFunds",
      "type": "event"
    },
    {
      "anonymous": false,
      "inputs": [
        {
          "indexed": true,
          "name": "previousOwner",
          "type": "address"
        },
        {
          "indexed": true,
          "name": "newOwner",
          "type": "address"
        }
      ],
      "name": "OwnershipTransferred",
      "type": "event"
    }
  ],
  "bytecode": "0x60606040526012600355600354600a0a600455670de0b6b3a7640000600755635b38198060085573d5b93c49c4201db2a674a7d0fc5f3f733ebade80600960016101000a81548173ffffffffffffffffffffffffffffffffffffffff021916908373ffffffffffffffffffffffffffffffffffffffff16021790555073d5b93c49c4201db2a674a7d0fc5f3f733ebade80600a60006101000a81548173ffffffffffffffffffffffffffffffffffffffff021916908373ffffffffffffffffffffffffffffffffffffffff16021790555073d5b93c49c4201db2a674a7d0fc5f3f733ebade80600b60006101000a81548173ffffffffffffffffffffffffffffffffffffffff021916908373ffffffffffffffffffffffffffffffffffffffff16021790555073d5b93c49c4201db2a674a7d0fc5f3f733ebade80600c60006101000a81548173ffffffffffffffffffffffffffffffffffffffff021916908373ffffffffffffffffffffffffffffffffffffffff1602179055506001601060006101000a81548160ff021916908315150217905550600060115560006012556a464f733baa0ae6750000006013556b015b6a759f4835dc24000000601455600060175573d5b93c49c4201db2a674a7d0fc5f3f733ebade80601860006101000a81548173ffffffffffffffffffffffffffffffffffffffff021916908373ffffffffffffffffffffffffffffffffffffffff16021790555034156200022457600080fd5b6329b927006040805190810160405280600b81526020017f43727970746f6c6f6769510000000000000000000000000000000000000000008152506040805190810160405280600581526020017f4c4f474951000000000000000000000000000000000000000000000000000000815250336000806101000a81548173ffffffffffffffffffffffffffffffffffffffff021916908373ffffffffffffffffffffffffffffffffffffffff160217905550620002fa60045484620006c3640100000000026200310d179091906401000000009004565b6005819055506200034960646200032c603c600554620006c3640100000000026200310d179091906401000000009004565b620006f96401000000000262003140179091906401000000009004565b600d60003073ffffffffffffffffffffffffffffffffffffffff1673ffffffffffffffffffffffffffffffffffffffff16815260200190815260200160002081905550620003d56064620003b86014600554620006c3640100000000026200310d179091906401000000009004565b620006f96401000000000262003140179091906401000000009004565b600d6000600960019054906101000a900473ffffffffffffffffffffffffffffffffffffffff1673ffffffffffffffffffffffffffffffffffffffff1673ffffffffffffffffffffffffffffffffffffffff1681526020019081526020016000208190555062000483606462000466600a600554620006c3640100000000026200310d179091906401000000009004565b620006f96401000000000262003140179091906401000000009004565b600d6000600a60009054906101000a900473ffffffffffffffffffffffffffffffffffffffff1673ffffffffffffffffffffffffffffffffffffffff1673ffffffffffffffffffffffffffffffffffffffff168152602001908152602001600020819055506200053060646200051360058054620006c3640100000000026200310d179091906401000000009004565b620006f96401000000000262003140179091906401000000009004565b600d6000600b60009054906101000a900473ffffffffffffffffffffffffffffffffffffffff1673ffffffffffffffffffffffffffffffffffffffff1673ffffffffffffffffffffffffffffffffffffffff16815260200190815260200160002081905550620005dd6064620005c060058054620006c3640100000000026200310d179091906401000000009004565b620006f96401000000000262003140179091906401000000009004565b600d6000600c60009054906101000a900473ffffffffffffffffffffffffffffffffffffffff1673ffffffffffffffffffffffffffffffffffffffff1673ffffffffffffffffffffffffffffffffffffffff16815260200190815260200160002081905550600d60003073ffffffffffffffffffffffffffffffffffffffff1673ffffffffffffffffffffffffffffffffffffffff168152602001908152602001600020546006819055508160019080519060200190620006a092919062000715565b508060029080519060200190620006b992919062000715565b50505050620007c4565b60008082840290506000841480620006e65750828482811515620006e357fe5b04145b1515620006ef57fe5b8091505092915050565b60008082848115156200070857fe5b0490508091505092915050565b828054600181600116156101000203166002900490600052602060002090601f016020900481019282601f106200075857805160ff191683800117855562000789565b8280016001018555821562000789579182015b82811115620007885782518255916020019190600101906200076b565b5b5090506200079891906200079c565b5090565b620007c191905b80821115620007bd576000816000905550600101620007a3565b5090565b90565b6131cb80620007d46000396000f300606060405260043610610230576000357c0100000000000000000000000000000000000000000000000000000000900463ffffffff168063061303a71461028a57806306fdde03146102b7578063095ea7b31461034557806318160ddd1461039f5780631ec32d15146103c857806323b872dd1461041d578063273ba6bb1461049657806327e235e3146104e7578063313ce567146105345780633f4ba83a1461055d57806344df8e7014610572578063518ab2a814610587578063590e1ae3146105b05780635bda1af0146105c55780635c975abb146106125780635e6911af1461063f578063661884631461066c5780636eb21929146106c657806370a08231146106f35780637e1055b6146107405780637ecc2b56146107695780638456cb59146107925780638620410b146107a757806388f4807e146107d05780639335dcb71461082557806395d89b411461087a578063a883b0c414610908578063a9059cbb1461094c578063b071cbe61461098e578063bbec30f1146109b7578063c040e6b814610a0c578063c99d9ef714610a35578063cae2df1314610a5e578063cae9ca5114610a81578063d051665014610b1e578063d0973af814610b6f578063d56b288914610bb1578063d73dd62314610bc6578063da5f838d14610c20578063dd62ed3e14610c49578063e576052014610cb5578063e724529c14610d0a578063ec993f3d14610d4e578063ee67575f14610d8c578063f2fde38b14610dce578063f89be59314610e07575b67016345785d8a0000341015151561024457fe5b601a60010154421015151561025857600080fd5b60001515601060009054906101000a900460ff16151514156102835761027e3334610e30565b610288565b600080fd5b005b341561029557600080fd5b61029d611013565b604051808215151515815260200191505060405180910390f35b34156102c257600080fd5b6102ca611026565b6040518080602001828103825283818151815260200191508051906020019080838360005b8381101561030a5780820151818401526020810190506102ef565b50505050905090810190601f1680156103375780820380516001836020036101000a031916815260200191505b509250505060405180910390f35b341561035057600080fd5b610385600480803573ffffffffffffffffffffffffffffffffffffffff169060200190919080359060200190919050506110c4565b604051808215151515815260200191505060405180910390f35b34156103aa57600080fd5b6103b2611151565b6040518082815260200191505060405180910390f35b34156103d357600080fd5b6103db611157565b604051808273ffffffffffffffffffffffffffffffffffffffff1673ffffffffffffffffffffffffffffffffffffffff16815260200191505060405180910390f35b341561042857600080fd5b61047c600480803573ffffffffffffffffffffffffffffffffffffffff1690602001909190803573ffffffffffffffffffffffffffffffffffffffff1690602001909190803590602001909190505061117d565b604051808215151515815260200191505060405180910390f35b34156104a157600080fd5b6104a9611388565b604051808681526020018581526020018481526020018360ff1660ff1681526020018260ff1660ff1681526020019550505050505060405180910390f35b34156104f257600080fd5b61051e600480803573ffffffffffffffffffffffffffffffffffffffff169060200190919050506113c6565b6040518082815260200191505060405180910390f35b341561053f57600080fd5b6105476113de565b6040518082815260200191505060405180910390f35b341561056857600080fd5b6105706113e4565b005b341561057d57600080fd5b610585611488565b005b341561059257600080fd5b61059a6115be565b6040518082815260200191505060405180910390f35b34156105bb57600080fd5b6105c36115c4565b005b34156105d057600080fd5b610610600480803590602001909190803590602001909190803590602001909190803560ff1690602001909190803560ff169060200190919050506116f6565b005b341561061d57600080fd5b61062561182f565b604051808215151515815260200191505060405180910390f35b341561064a57600080fd5b610652611842565b604051808215151515815260200191505060405180910390f35b341561067757600080fd5b6106ac600480803573ffffffffffffffffffffffffffffffffffffffff16906020019091908035906020019091905050611855565b604051808215151515815260200191505060405180910390f35b34156106d157600080fd5b6106d9611ae6565b604051808215151515815260200191505060405180910390f35b34156106fe57600080fd5b61072a600480803573ffffffffffffffffffffffffffffffffffffffff16906020019091905050611af9565b6040518082815260200191505060405180910390f35b341561074b57600080fd5b610753611b11565b6040518082815260200191505060405180910390f35b341561077457600080fd5b61077c611b17565b6040518082815260200191505060405180910390f35b341561079d57600080fd5b6107a5611b1d565b005b34156107b257600080fd5b6107ba611bc1565b6040518082815260200191505060405180910390f35b34156107db57600080fd5b6107e3611bc7565b604051808273ffffffffffffffffffffffffffffffffffffffff1673ffffffffffffffffffffffffffffffffffffffff16815260200191505060405180910390f35b341561083057600080fd5b610838611bed565b604051808273ffffffffffffffffffffffffffffffffffffffff1673ffffffffffffffffffffffffffffffffffffffff16815260200191505060405180910390f35b341561088557600080fd5b61088d611c13565b6040518080602001828103825283818151815260200191508051906020019080838360005b838110156108cd5780820151818401526020810190506108b2565b50505050905090810190601f1680156108fa5780820380516001836020036101000a031916815260200191505b509250505060405180910390f35b341561091357600080fd5b6109326004808035906020019091908035906020019091905050611cb1565b604051808215151515815260200191505060405180910390f35b341561095757600080fd5b61098c600480803573ffffffffffffffffffffffffffffffffffffffff16906020019091908035906020019091905050611d61565b005b341561099957600080fd5b6109a1611d70565b6040518082815260200191505060405180910390f35b34156109c257600080fd5b6109ca611d76565b604051808273ffffffffffffffffffffffffffffffffffffffff1673ffffffffffffffffffffffffffffffffffffffff16815260200191505060405180910390f35b3415610a1757600080fd5b610a1f611d9c565b6040518082815260200191505060405180910390f35b3415610a4057600080fd5b610a48611da2565b6040518082815260200191505060405180910390f35b3415610a6957600080fd5b610a7f6004808035906020019091905050611da8565b005b3415610a8c57600080fd5b610b04600480803573ffffffffffffffffffffffffffffffffffffffff1690602001909190803590602001909190803590602001908201803590602001908080601f01602080910402602001604051908101604052809392919081815260200183838082843782019150505050505091905050611e83565b604051808215151515815260200191505060405180910390f35b3415610b2957600080fd5b610b55600480803573ffffffffffffffffffffffffffffffffffffffff1690602001909190505061205c565b604051808215151515815260200191505060405180910390f35b3415610b7a57600080fd5b610baf600480803573ffffffffffffffffffffffffffffffffffffffff169060200190919080359060200190919050506120b2565b005b3415610bbc57600080fd5b610bc4612137565b005b3415610bd157600080fd5b610c06600480803573ffffffffffffffffffffffffffffffffffffffff1690602001909190803590602001909190505061220d565b604051808215151515815260200191505060405180910390f35b3415610c2b57600080fd5b610c33612409565b6040518082815260200191505060405180910390f35b3415610c5457600080fd5b610c9f600480803573ffffffffffffffffffffffffffffffffffffffff1690602001909190803573ffffffffffffffffffffffffffffffffffffffff1690602001909190505061240f565b6040518082815260200191505060405180910390f35b3415610cc057600080fd5b610cc8612434565b604051808273ffffffffffffffffffffffffffffffffffffffff1673ffffffffffffffffffffffffffffffffffffffff16815260200191505060405180910390f35b3415610d1557600080fd5b610d4c600480803573ffffffffffffffffffffffffffffffffffffffff16906020019091908035151590602001909190505061245a565b005b3415610d5957600080fd5b610d72600480803560ff1690602001909190505061257f565b604051808215151515815260200191505060405180910390f35b3415610d9757600080fd5b610dcc600480803573ffffffffffffffffffffffffffffffffffffffff16906020019091908035906020019091905050612699565b005b3415610dd957600080fd5b610e05600480803573ffffffffffffffffffffffffffffffffffffffff16906020019091905050612702565b005b3415610e1257600080fd5b610e1a612857565b6040518082815260200191505060405180910390f35b6000610e3b8261285d565b9050610e46816129fa565b1515610e5157600080fd5b610e5b8382612a1c565b610e7082601654612a6790919063ffffffff16565b601681905550610e8b81601754612a6790919063ffffffff16565b601781905550601a6002015442101515610f4b57610ea7612a85565b7f85b8d86f52e6555fa7f5d8f5e1fe2dbca432512924156cc733ad10ba881c121c610ed0612ace565b6040518080602001828103825283818151815260200191508051906020019080838360005b83811015610f10578082015181840152602081019050610ef5565b50505050905090810190601f168015610f3d5780820380516001836020036101000a031916815260200191505b509250505060405180910390a15b60135460175410158015610f6c5750601560009054906101000a900460ff16155b15610fb9577ffdb05b528f2dac23ab38f2ec9c3a79a5960a50239b3c90882fdd244e3b20477a60405160405180910390a16001601560006101000a81548160ff0219169083151502179055505b60145460175410151561100e577f5be90159e4545cc658d8cad2a258389b64e1afafc55741b601a6e455ef00cccb60405160405180910390a16001601560016101000a81548160ff0219169083151502179055505b505050565b601560029054906101000a900460ff1681565b60018054600181600116156101000203166002900480601f0160208091040260200160405190810160405280929190818152602001828054600181600116156101000203166002900480156110bc5780601f10611091576101008083540402835291602001916110bc565b820191906000526020600020905b81548152906001019060200180831161109f57829003601f168201915b505050505081565b600081600e60003373ffffffffffffffffffffffffffffffffffffffff1673ffffffffffffffffffffffffffffffffffffffff16815260200190815260200160002060008573ffffffffffffffffffffffffffffffffffffffff1673ffffffffffffffffffffffffffffffffffffffff168152602001908152602001600020819055506001905092915050565b60055481565b600960019054906101000a900473ffffffffffffffffffffffffffffffffffffffff1681565b6000600f60003373ffffffffffffffffffffffffffffffffffffffff1673ffffffffffffffffffffffffffffffffffffffff16815260200190815260200160002060009054906101000a900460ff161515156111d857600080fd5b600e60008573ffffffffffffffffffffffffffffffffffffffff1673ffffffffffffffffffffffffffffffffffffffff16815260200190815260200160002060003373ffffffffffffffffffffffffffffffffffffffff1673ffffffffffffffffffffffffffffffffffffffff16815260200190815260200160002054821115151561126357600080fd5b6112f282600e60008773ffffffffffffffffffffffffffffffffffffffff1673ffffffffffffffffffffffffffffffffffffffff16815260200190815260200160002060003373ffffffffffffffffffffffffffffffffffffffff1673ffffffffffffffffffffffffffffffffffffffff16815260200190815260200160002054612c7b90919063ffffffff16565b600e60008673ffffffffffffffffffffffffffffffffffffffff1673ffffffffffffffffffffffffffffffffffffffff16815260200190815260200160002060003373ffffffffffffffffffffffffffffffffffffffff1673ffffffffffffffffffffffffffffffffffffffff1681526020019081526020016000208190555061137d848484612c94565b600190509392505050565b601a8060000154908060010154908060020154908060030160009054906101000a900460ff16908060030160019054906101000a900460ff16905085565b60196020528060005260406000206000915090505481565b60035481565b6000809054906101000a900473ffffffffffffffffffffffffffffffffffffffff1673ffffffffffffffffffffffffffffffffffffffff163373ffffffffffffffffffffffffffffffffffffffff1614151561143f57600080fd5b6000601060006101000a81548160ff0219169083151502179055507f9b1d6b460eaa8350c2f15712231e94c803e08e072db0737a0efb84745848694060405160405180910390a1565b600960009054906101000a900460ff161580156114a6575060085442115b156115bc576114c2600654600554612c7b90919063ffffffff16565b60058190555061151c600654600d60003073ffffffffffffffffffffffffffffffffffffffff1673ffffffffffffffffffffffffffffffffffffffff16815260200190815260200160002054612c7b90919063ffffffff16565b600d60003073ffffffffffffffffffffffffffffffffffffffff1673ffffffffffffffffffffffffffffffffffffffff168152602001908152602001600020819055507fd83c63197e8e676d80ab0122beba9a9d20f3828839e9a1d6fe81d242e9cd7e6e6006546040518082815260200191505060405180910390a16001600960006101000a81548160ff02191690831515021790555060006006819055505b565b60175481565b6000601560029054906101000a900460ff16801561162157506000601960003373ffffffffffffffffffffffffffffffffffffffff1673ffffffffffffffffffffffffffffffffffffffff16815260200190815260200160002054115b151561162c57600080fd5b601960003373ffffffffffffffffffffffffffffffffffffffff1673ffffffffffffffffffffffffffffffffffffffff1681526020019081526020016000205490506000601960003373ffffffffffffffffffffffffffffffffffffffff1673ffffffffffffffffffffffffffffffffffffffff168152602001908152602001600020819055503373ffffffffffffffffffffffffffffffffffffffff166108fc829081150290604051600060405180830381858888f1935050505015156116f357600080fd5b50565b6000809054906101000a900473ffffffffffffffffffffffffffffffffffffffff1673ffffffffffffffffffffffffffffffffffffffff163373ffffffffffffffffffffffffffffffffffffffff1614151561175157600080fd5b60065460045486021115151561176657600080fd5b60a06040519081016040528060045487028152602001858152602001620151808502860181526020018360ff1681526020018260ff16815250601a60008201518160000155602082015181600101556040820151816002015560608201518160030160006101000a81548160ff021916908360ff16021790555060808201518160030160016101000a81548160ff021916908360ff16021790555090505061181a6001601254612a6790919063ffffffff16565b6012819055506118286130c4565b5050505050565b601060009054906101000a900460ff1681565b601560019054906101000a900460ff1681565b600080600e60003373ffffffffffffffffffffffffffffffffffffffff1673ffffffffffffffffffffffffffffffffffffffff16815260200190815260200160002060008573ffffffffffffffffffffffffffffffffffffffff1673ffffffffffffffffffffffffffffffffffffffff16815260200190815260200160002054905080831115611966576000600e60003373ffffffffffffffffffffffffffffffffffffffff1673ffffffffffffffffffffffffffffffffffffffff16815260200190815260200160002060008673ffffffffffffffffffffffffffffffffffffffff1673ffffffffffffffffffffffffffffffffffffffff168152602001908152602001600020819055506119fa565b6119798382612c7b90919063ffffffff16565b600e60003373ffffffffffffffffffffffffffffffffffffffff1673ffffffffffffffffffffffffffffffffffffffff16815260200190815260200160002060008673ffffffffffffffffffffffffffffffffffffffff1673ffffffffffffffffffffffffffffffffffffffff168152602001908152602001600020819055505b8373ffffffffffffffffffffffffffffffffffffffff163373ffffffffffffffffffffffffffffffffffffffff167f8c5be1e5ebec7d5bd14f71427d1e84f3dd0314c0f7b2291e5b200ac8c7c3b925600e60003373ffffffffffffffffffffffffffffffffffffffff1673ffffffffffffffffffffffffffffffffffffffff16815260200190815260200160002060008873ffffffffffffffffffffffffffffffffffffffff1673ffffffffffffffffffffffffffffffffffffffff168152602001908152602001600020546040518082815260200191505060405180910390a3600191505092915050565b601560009054906101000a900460ff1681565b600d6020528060005260406000206000915090505481565b60085481565b60065481565b6000809054906101000a900473ffffffffffffffffffffffffffffffffffffffff1673ffffffffffffffffffffffffffffffffffffffff163373ffffffffffffffffffffffffffffffffffffffff16141515611b7857600080fd5b6001601060006101000a81548160ff0219169083151502179055507fd2ef4ae6592c2a8f5d1c602eaa8a0685727b41b23509703db861621a9614813a60405160405180910390a1565b60075481565b600c60009054906101000a900473ffffffffffffffffffffffffffffffffffffffff1681565b601860009054906101000a900473ffffffffffffffffffffffffffffffffffffffff1681565b60028054600181600116156101000203166002900480601f016020809104026020016040519081016040528092919081815260200182805460018160011615610100020316600290048015611ca95780601f10611c7e57610100808354040283529160200191611ca9565b820191906000526020600020905b815481529060010190602001808311611c8c57829003601f168201915b505050505081565b60008060009054906101000a900473ffffffffffffffffffffffffffffffffffffffff1673ffffffffffffffffffffffffffffffffffffffff163373ffffffffffffffffffffffffffffffffffffffff16141515611d0e57600080fd5b6000831415611d1c57600192505b6000821415611d2a57600191505b611d5182611d436004548661310d90919063ffffffff16565b61314090919063ffffffff16565b6007819055506001905092915050565b611d6c338383612c94565b5050565b60145481565b600a60009054906101000a900473ffffffffffffffffffffffffffffffffffffffff1681565b60125481565b60115481565b6000809054906101000a900473ffffffffffffffffffffffffffffffffffffffff1673ffffffffffffffffffffffffffffffffffffffff163373ffffffffffffffffffffffffffffffffffffffff16141515611e0357600080fd5b601560009054906101000a900460ff161515611e1e57600080fd5b601860009054906101000a900473ffffffffffffffffffffffffffffffffffffffff1673ffffffffffffffffffffffffffffffffffffffff166108fc829081150290604051600060405180830381858888f193505050501515611e8057600080fd5b50565b6000806000809054906101000a900473ffffffffffffffffffffffffffffffffffffffff1673ffffffffffffffffffffffffffffffffffffffff163373ffffffffffffffffffffffffffffffffffffffff16141515611ee157600080fd5b849050611eee85856110c4565b15612053578073ffffffffffffffffffffffffffffffffffffffff16638f4ffcb1338630876040518563ffffffff167c0100000000000000000000000000000000000000000000000000000000028152600401808573ffffffffffffffffffffffffffffffffffffffff1673ffffffffffffffffffffffffffffffffffffffff1681526020018481526020018373ffffffffffffffffffffffffffffffffffffffff1673ffffffffffffffffffffffffffffffffffffffff16815260200180602001828103825283818151815260200191508051906020019080838360005b83811015611fe8578082015181840152602081019050611fcd565b50505050905090810190601f1680156120155780820380516001836020036101000a031916815260200191505b5095505050505050600060405180830381600087803b151561203657600080fd5b6102c65a03f1151561204757600080fd5b50505060019150612054565b5b509392505050565b6000600f60008373ffffffffffffffffffffffffffffffffffffffff1673ffffffffffffffffffffffffffffffffffffffff16815260200190815260200160002060009054906101000a900460ff169050919050565b6000809054906101000a900473ffffffffffffffffffffffffffffffffffffffff1673ffffffffffffffffffffffffffffffffffffffff163373ffffffffffffffffffffffffffffffffffffffff1614151561210d57600080fd5b61212281600654612c7b90919063ffffffff16565b600681905550612133308383612c94565b5050565b6000809054906101000a900473ffffffffffffffffffffffffffffffffffffffff1673ffffffffffffffffffffffffffffffffffffffff163373ffffffffffffffffffffffffffffffffffffffff1614151561219257600080fd5b60135460065410156121ea577fa7626e2ff438cde17e642cff509367431a6eac9e5940fd4006e6254e0121f05860405160405180910390a16001601560026101000a81548160ff02191690831515021790555061220b565b61220a3073ffffffffffffffffffffffffffffffffffffffff1631611da8565b5b565b600061229e82600e60003373ffffffffffffffffffffffffffffffffffffffff1673ffffffffffffffffffffffffffffffffffffffff16815260200190815260200160002060008673ffffffffffffffffffffffffffffffffffffffff1673ffffffffffffffffffffffffffffffffffffffff16815260200190815260200160002054612a6790919063ffffffff16565b600e60003373ffffffffffffffffffffffffffffffffffffffff1673ffffffffffffffffffffffffffffffffffffffff16815260200190815260200160002060008573ffffffffffffffffffffffffffffffffffffffff1673ffffffffffffffffffffffffffffffffffffffff168152602001908152602001600020819055508273ffffffffffffffffffffffffffffffffffffffff163373ffffffffffffffffffffffffffffffffffffffff167f8c5be1e5ebec7d5bd14f71427d1e84f3dd0314c0f7b2291e5b200ac8c7c3b925600e60003373ffffffffffffffffffffffffffffffffffffffff1673ffffffffffffffffffffffffffffffffffffffff16815260200190815260200160002060008773ffffffffffffffffffffffffffffffffffffffff1673ffffffffffffffffffffffffffffffffffffffff168152602001908152602001600020546040518082815260200191505060405180910390a36001905092915050565b60165481565b600e602052816000526040600020602052806000526040600020600091509150505481565b600b60009054906101000a900473ffffffffffffffffffffffffffffffffffffffff1681565b6000809054906101000a900473ffffffffffffffffffffffffffffffffffffffff1673ffffffffffffffffffffffffffffffffffffffff163373ffffffffffffffffffffffffffffffffffffffff161415156124b557600080fd5b80600f60008473ffffffffffffffffffffffffffffffffffffffff1673ffffffffffffffffffffffffffffffffffffffff16815260200190815260200160002060006101000a81548160ff0219169083151502179055507f48335238b4855f35377ed80f164e8c6f3c366e54ac00b96a6402d4a9814a03a58282604051808373ffffffffffffffffffffffffffffffffffffffff1673ffffffffffffffffffffffffffffffffffffffff168152602001821515151581526020019250505060405180910390a15050565b60008060009054906101000a900473ffffffffffffffffffffffffffffffffffffffff1673ffffffffffffffffffffffffffffffffffffffff163373ffffffffffffffffffffffffffffffffffffffff161415156125dc57600080fd5b60a060405190810160405280601a600001548152602001601a600101548152602001601a6002015481526020018360ff168152602001601a60030160019054906101000a900460ff1660ff16815250601a60008201518160000155602082015181600101556040820151816002015560608201518160030160006101000a81548160ff021916908360ff16021790555060808201518160030160016101000a81548160ff021916908360ff16021790555090505060019050919050565b6000809054906101000a900473ffffffffffffffffffffffffffffffffffffffff1673ffffffffffffffffffffffffffffffffffffffff163373ffffffffffffffffffffffffffffffffffffffff161415156126f457600080fd5b6126fe8282612a1c565b5050565b6000809054906101000a900473ffffffffffffffffffffffffffffffffffffffff1673ffffffffffffffffffffffffffffffffffffffff163373ffffffffffffffffffffffffffffffffffffffff1614151561275d57600080fd5b600073ffffffffffffffffffffffffffffffffffffffff168173ffffffffffffffffffffffffffffffffffffffff161415151561279957600080fd5b8073ffffffffffffffffffffffffffffffffffffffff166000809054906101000a900473ffffffffffffffffffffffffffffffffffffffff1673ffffffffffffffffffffffffffffffffffffffff167f8be0079c531659141344cd1fd0a4f28419497f9722a3daafe3b4186f6b6457e060405160405180910390a3806000806101000a81548173ffffffffffffffffffffffffffffffffffffffff021916908373ffffffffffffffffffffffffffffffffffffffff16021790555050565b60135481565b60008061288960075461287b6004548661310d90919063ffffffff16565b61314090919063ffffffff16565b905060008111151561289a57600080fd5b601254600114156128dd576128d66128c782601a60030160009054906101000a900460ff1660ff1661315b565b82612a6790919063ffffffff16565b90506129f1565b601254600214156129205761291961290a82601a60030160009054906101000a900460ff1660ff1661315b565b82612a6790919063ffffffff16565b90506129f0565b601254600314156129af5762015180601a6001015401421115156129765761296f61296082601a60030160019054906101000a900460ff1660ff1661315b565b82612a6790919063ffffffff16565b90506129aa565b6129a761299882601a60030160009054906101000a900460ff1660ff1661315b565b82612a6790919063ffffffff16565b90505b6129ef565b601254600414156129ee576129eb6129dc82601a60030160009054906101000a900460ff1660ff1661315b565b82612a6790919063ffffffff16565b90505b5b5b5b80915050919050565b600081601a600001541015612a125760009050612a17565b600190505b919050565b612a3481601a60000154612c7b90919063ffffffff16565b601a60000181905550612a5281600654612c7b90919063ffffffff16565b600681905550612a63308383612c94565b5050565b6000808284019050838110151515612a7b57fe5b8091505092915050565b6001601060006101000a81548160ff0219169083151502179055507fd2ef4ae6592c2a8f5d1c602eaa8a0685727b41b23509703db861621a9614813a60405160405180910390a1565b612ad661318b565b60125460011415612b1e576040805190810160405280600c81526020017f507269766174652073616c6500000000000000000000000000000000000000008152509050612c78565b60125460021415612b66576040805190810160405280600781526020017f5072652d49434f000000000000000000000000000000000000000000000000008152509050612c78565b60125460031415612bae576040805190810160405280600f81526020017f49434f20666972737420737461676500000000000000000000000000000000008152509050612c78565b60125460041415612bf6576040805190810160405280601081526020017f49434f207365636f6e64207374616765000000000000000000000000000000008152509050612c78565b6012546005101515612c3f576040805190810160405280600d81526020017f66656174757265207374616765000000000000000000000000000000000000008152509050612c78565b6040805190810160405280601c81526020017f7468657265206973206e6f2073746167652061742070726573656e740000000081525090505b90565b6000828211151515612c8957fe5b818303905092915050565b6000600f60003373ffffffffffffffffffffffffffffffffffffffff1673ffffffffffffffffffffffffffffffffffffffff16815260200190815260200160002060009054906101000a900460ff16151515612cef57600080fd5b60008373ffffffffffffffffffffffffffffffffffffffff1614151515612d1557600080fd5b81600d60008673ffffffffffffffffffffffffffffffffffffffff1673ffffffffffffffffffffffffffffffffffffffff1681526020019081526020016000205410151515612d6357600080fd5b600d60008473ffffffffffffffffffffffffffffffffffffffff1673ffffffffffffffffffffffffffffffffffffffff16815260200190815260200160002054612df583600d60008773ffffffffffffffffffffffffffffffffffffffff1673ffffffffffffffffffffffffffffffffffffffff16815260200190815260200160002054612a6790919063ffffffff16565b111515612e0157600080fd5b612e92600d60008573ffffffffffffffffffffffffffffffffffffffff1673ffffffffffffffffffffffffffffffffffffffff16815260200190815260200160002054600d60008773ffffffffffffffffffffffffffffffffffffffff1673ffffffffffffffffffffffffffffffffffffffff16815260200190815260200160002054612a6790919063ffffffff16565b9050612ee682600d60008773ffffffffffffffffffffffffffffffffffffffff1673ffffffffffffffffffffffffffffffffffffffff16815260200190815260200160002054612c7b90919063ffffffff16565b600d60008673ffffffffffffffffffffffffffffffffffffffff1673ffffffffffffffffffffffffffffffffffffffff16815260200190815260200160002081905550612f7b82600d60008673ffffffffffffffffffffffffffffffffffffffff1673ffffffffffffffffffffffffffffffffffffffff16815260200190815260200160002054612a6790919063ffffffff16565b600d60008573ffffffffffffffffffffffffffffffffffffffff1673ffffffffffffffffffffffffffffffffffffffff168152602001908152602001600020819055508273ffffffffffffffffffffffffffffffffffffffff168473ffffffffffffffffffffffffffffffffffffffff167fddf252ad1be2c89b69c2b068fc378daa952ba7f163c4a11628f55a4df523b3ef846040518082815260200191505060405180910390a3806130b5600d60008673ffffffffffffffffffffffffffffffffffffffff1673ffffffffffffffffffffffffffffffffffffffff16815260200190815260200160002054600d60008873ffffffffffffffffffffffffffffffffffffffff1673ffffffffffffffffffffffffffffffffffffffff16815260200190815260200160002054612a6790919063ffffffff16565b1415156130be57fe5b50505050565b6000601060006101000a81548160ff0219169083151502179055507f9b1d6b460eaa8350c2f15712231e94c803e08e072db0737a0efb84745848694060405160405180910390a1565b6000808284029050600084148061312e575082848281151561312b57fe5b04145b151561313657fe5b8091505092915050565b600080828481151561314e57fe5b0490508091505092915050565b60006131836064613175848661310d90919063ffffffff16565b61314090919063ffffffff16565b905092915050565b6020604051908101604052806000815250905600a165627a7a723058204b593f5774755056195f91e53bc525bf1cd31bc872a0e929fae2f37a3e3e6ff20029",
  "source": "pragma solidity ^0.4.18;\n\nimport \"./ERC20Extending.sol\";\nimport \"./CryptologiqCrowdsale.sol\";\n\ncontract CryptologiqContract is ERC20Extending, CryptologiqCrowdsale\n{\n    /* Cryptologiq tokens Constructor */\n    function CryptologiqContract() public TokenERC20(700000000, \"CryptologiQ\", \"LOGIQ\") {}\n\n    /**\n    * Function payments handler\n    *\n    */\n    function () public payable\n    {\n        assert(msg.value >= 1 ether / 10);\n        require(now >= ICO.startDate);\n\n        if (paused == false) {\n            paymentManager(msg.sender, msg.value);\n        } else {\n            revert();\n        }\n    }\n}\n",
  "sourcePath": "C:\\Users\\854441\\Desktop\\smrt-contract\\contracts\\CryptologiqContract.sol",
  "compiler": {
    "name": "solc",
    "version": "0.4.18+commit.9cf6e910.Emscripten.clang"
  },
  "schemaVersion": "1.0.1",
  "updatedAt": "2018-02-07T23:47:47.006Z"
}