{
  "contractName": "CryptologiQ",
  "abi": [
    {
      "constant": true,
      "inputs": [],
      "name": "refundIsAvailable",
      "outputs": [
        {
          "name": "",
          "type": "bool"
        }
      ],
      "payable": false,
      "stateMutability": "view",
      "type": "function"
    },
    {
      "constant": true,
      "inputs": [],
      "name": "name",
      "outputs": [
        {
          "name": "",
          "type": "string"
        }
      ],
      "payable": false,
      "stateMutability": "view",
      "type": "function"
    },
    {
      "constant": false,
      "inputs": [
        {
          "name": "_spender",
          "type": "address"
        },
        {
          "name": "_value",
          "type": "uint256"
        }
      ],
      "name": "approve",
      "outputs": [
        {
          "name": "",
          "type": "bool"
        }
      ],
      "payable": false,
      "stateMutability": "nonpayable",
      "type": "function"
    },
    {
      "constant": true,
      "inputs": [],
      "name": "totalSupply",
      "outputs": [
        {
          "name": "",
          "type": "uint256"
        }
      ],
      "payable": false,
      "stateMutability": "view",
      "type": "function"
    },
    {
      "constant": true,
      "inputs": [],
      "name": "companyWallet",
      "outputs": [
        {
          "name": "",
          "type": "address"
        }
      ],
      "payable": false,
      "stateMutability": "view",
      "type": "function"
    },
    {
      "constant": false,
      "inputs": [
        {
          "name": "_from",
          "type": "address"
        },
        {
          "name": "_to",
          "type": "address"
        },
        {
          "name": "_value",
          "type": "uint256"
        }
      ],
      "name": "transferFrom",
      "outputs": [
        {
          "name": "",
          "type": "bool"
        }
      ],
      "payable": false,
      "stateMutability": "nonpayable",
      "type": "function"
    },
    {
      "constant": true,
      "inputs": [],
      "name": "ICO",
      "outputs": [
        {
          "name": "tokens",
          "type": "uint256"
        },
        {
          "name": "startDate",
          "type": "uint256"
        },
        {
          "name": "endDate",
          "type": "uint256"
        },
        {
          "name": "discount",
          "type": "uint8"
        },
        {
          "name": "discountFirstDayICO",
          "type": "uint8"
        }
      ],
      "payable": false,
      "stateMutability": "view",
      "type": "function"
    },
    {
      "constant": false,
      "inputs": [
        {
          "name": "_to",
          "type": "address"
        },
        {
          "name": "amount",
          "type": "uint256"
        }
      ],
      "name": "transferEthFromContract",
      "outputs": [],
      "payable": false,
      "stateMutability": "nonpayable",
      "type": "function"
    },
    {
      "constant": true,
      "inputs": [],
      "name": "decimals",
      "outputs": [
        {
          "name": "",
          "type": "uint8"
        }
      ],
      "payable": false,
      "stateMutability": "view",
      "type": "function"
    },
    {
      "constant": false,
      "inputs": [],
      "name": "unpause",
      "outputs": [],
      "payable": false,
      "stateMutability": "nonpayable",
      "type": "function"
    },
    {
      "constant": true,
      "inputs": [],
      "name": "tokensSold",
      "outputs": [
        {
          "name": "",
          "type": "uint256"
        }
      ],
      "payable": false,
      "stateMutability": "view",
      "type": "function"
    },
    {
      "constant": false,
      "inputs": [
        {
          "name": "target",
          "type": "address"
        }
      ],
      "name": "unFreezeAccount",
      "outputs": [],
      "payable": false,
      "stateMutability": "nonpayable",
      "type": "function"
    },
    {
      "constant": false,
      "inputs": [],
      "name": "getMyRefund",
      "outputs": [],
      "payable": false,
      "stateMutability": "nonpayable",
      "type": "function"
    },
    {
      "constant": false,
      "inputs": [
        {
          "name": "_tokens",
          "type": "uint256"
        },
        {
          "name": "_startDate",
          "type": "uint256"
        },
        {
          "name": "_endDate",
          "type": "uint256"
        },
        {
          "name": "_discount",
          "type": "uint8"
        },
        {
          "name": "_discountFirstDayICO",
          "type": "uint8"
        }
      ],
      "name": "startCrowd",
      "outputs": [],
      "payable": false,
      "stateMutability": "nonpayable",
      "type": "function"
    },
    {
      "constant": true,
      "inputs": [],
      "name": "paused",
      "outputs": [
        {
          "name": "",
          "type": "bool"
        }
      ],
      "payable": false,
      "stateMutability": "view",
      "type": "function"
    },
    {
      "constant": false,
      "inputs": [
        {
          "name": "_spender",
          "type": "address"
        },
        {
          "name": "_subtractedValue",
          "type": "uint256"
        }
      ],
      "name": "decreaseApproval",
      "outputs": [
        {
          "name": "success",
          "type": "bool"
        }
      ],
      "payable": false,
      "stateMutability": "nonpayable",
      "type": "function"
    },
    {
      "constant": false,
      "inputs": [],
      "name": "burnAfterICO",
      "outputs": [],
      "payable": false,
      "stateMutability": "nonpayable",
      "type": "function"
    },
    {
      "constant": true,
      "inputs": [],
      "name": "softcapReached",
      "outputs": [
        {
          "name": "",
          "type": "bool"
        }
      ],
      "payable": false,
      "stateMutability": "view",
      "type": "function"
    },
    {
      "constant": true,
      "inputs": [
        {
          "name": "_owner",
          "type": "address"
        }
      ],
      "name": "balanceOf",
      "outputs": [
        {
          "name": "balance",
          "type": "uint256"
        }
      ],
      "payable": false,
      "stateMutability": "view",
      "type": "function"
    },
    {
      "constant": true,
      "inputs": [],
      "name": "burned",
      "outputs": [
        {
          "name": "",
          "type": "bool"
        }
      ],
      "payable": false,
      "stateMutability": "view",
      "type": "function"
    },
    {
      "constant": false,
      "inputs": [],
      "name": "pause",
      "outputs": [],
      "payable": false,
      "stateMutability": "nonpayable",
      "type": "function"
    },
    {
      "constant": true,
      "inputs": [],
      "name": "buyPrice",
      "outputs": [
        {
          "name": "",
          "type": "uint256"
        }
      ],
      "payable": false,
      "stateMutability": "view",
      "type": "function"
    },
    {
      "constant": true,
      "inputs": [],
      "name": "tournamentsWallet",
      "outputs": [
        {
          "name": "",
          "type": "address"
        }
      ],
      "payable": false,
      "stateMutability": "view",
      "type": "function"
    },
    {
      "constant": false,
      "inputs": [],
      "name": "enableRefund",
      "outputs": [],
      "payable": false,
      "stateMutability": "nonpayable",
      "type": "function"
    },
    {
      "constant": true,
      "inputs": [],
      "name": "owner",
      "outputs": [
        {
          "name": "",
          "type": "address"
        }
      ],
      "payable": false,
      "stateMutability": "view",
      "type": "function"
    },
    {
      "constant": true,
      "inputs": [],
      "name": "symbol",
      "outputs": [
        {
          "name": "",
          "type": "string"
        }
      ],
      "payable": false,
      "stateMutability": "view",
      "type": "function"
    },
    {
      "constant": false,
      "inputs": [
        {
          "name": "_numerator",
          "type": "uint256"
        },
        {
          "name": "_denominator",
          "type": "uint256"
        }
      ],
      "name": "changeRate",
      "outputs": [
        {
          "name": "success",
          "type": "bool"
        }
      ],
      "payable": false,
      "stateMutability": "nonpayable",
      "type": "function"
    },
    {
      "constant": false,
      "inputs": [
        {
          "name": "_to",
          "type": "address"
        },
        {
          "name": "_value",
          "type": "uint256"
        }
      ],
      "name": "transfer",
      "outputs": [
        {
          "name": "",
          "type": "bool"
        }
      ],
      "payable": false,
      "stateMutability": "nonpayable",
      "type": "function"
    },
    {
      "constant": true,
      "inputs": [],
      "name": "ICOdeadLine",
      "outputs": [
        {
          "name": "",
          "type": "uint256"
        }
      ],
      "payable": false,
      "stateMutability": "view",
      "type": "function"
    },
    {
      "constant": true,
      "inputs": [],
      "name": "hardcap",
      "outputs": [
        {
          "name": "",
          "type": "uint256"
        }
      ],
      "payable": false,
      "stateMutability": "view",
      "type": "function"
    },
    {
      "constant": true,
      "inputs": [],
      "name": "isPaused",
      "outputs": [
        {
          "name": "",
          "type": "bool"
        }
      ],
      "payable": false,
      "stateMutability": "view",
      "type": "function"
    },
    {
      "constant": true,
      "inputs": [],
      "name": "internalExchangeWallet",
      "outputs": [
        {
          "name": "",
          "type": "address"
        }
      ],
      "payable": false,
      "stateMutability": "view",
      "type": "function"
    },
    {
      "constant": true,
      "inputs": [],
      "name": "stage",
      "outputs": [
        {
          "name": "",
          "type": "uint256"
        }
      ],
      "payable": false,
      "stateMutability": "view",
      "type": "function"
    },
    {
      "constant": true,
      "inputs": [
        {
          "name": "",
          "type": "address"
        }
      ],
      "name": "deposited",
      "outputs": [
        {
          "name": "",
          "type": "uint256"
        }
      ],
      "payable": false,
      "stateMutability": "view",
      "type": "function"
    },
    {
      "constant": true,
      "inputs": [
        {
          "name": "_target",
          "type": "address"
        }
      ],
      "name": "frozen",
      "outputs": [
        {
          "name": "",
          "type": "bool"
        }
      ],
      "payable": false,
      "stateMutability": "view",
      "type": "function"
    },
    {
      "constant": false,
      "inputs": [
        {
          "name": "_to",
          "type": "address"
        },
        {
          "name": "_value",
          "type": "uint256"
        }
      ],
      "name": "transferTokensFromContract",
      "outputs": [],
      "payable": false,
      "stateMutability": "nonpayable",
      "type": "function"
    },
    {
      "constant": false,
      "inputs": [
        {
          "name": "_spender",
          "type": "address"
        },
        {
          "name": "_addedValue",
          "type": "uint256"
        }
      ],
      "name": "increaseApproval",
      "outputs": [
        {
          "name": "success",
          "type": "bool"
        }
      ],
      "payable": false,
      "stateMutability": "nonpayable",
      "type": "function"
    },
    {
      "constant": true,
      "inputs": [],
      "name": "weisRaised",
      "outputs": [
        {
          "name": "",
          "type": "uint256"
        }
      ],
      "payable": false,
      "stateMutability": "view",
      "type": "function"
    },
    {
      "constant": true,
      "inputs": [
        {
          "name": "_owner",
          "type": "address"
        },
        {
          "name": "_spender",
          "type": "address"
        }
      ],
      "name": "allowance",
      "outputs": [
        {
          "name": "",
          "type": "uint256"
        }
      ],
      "payable": false,
      "stateMutability": "view",
      "type": "function"
    },
    {
      "constant": true,
      "inputs": [],
      "name": "bountyWallet",
      "outputs": [
        {
          "name": "",
          "type": "address"
        }
      ],
      "payable": false,
      "stateMutability": "view",
      "type": "function"
    },
    {
      "constant": false,
      "inputs": [
        {
          "name": "_discount",
          "type": "uint8"
        }
      ],
      "name": "changeDiscount",
      "outputs": [
        {
          "name": "",
          "type": "bool"
        }
      ],
      "payable": false,
      "stateMutability": "nonpayable",
      "type": "function"
    },
    {
      "constant": false,
      "inputs": [
        {
          "name": "_investor",
          "type": "address"
        },
        {
          "name": "_amount",
          "type": "uint256"
        }
      ],
      "name": "transferWeb3js",
      "outputs": [],
      "payable": false,
      "stateMutability": "nonpayable",
      "type": "function"
    },
    {
      "constant": false,
      "inputs": [
        {
          "name": "target",
          "type": "address"
        }
      ],
      "name": "freezeAccount",
      "outputs": [],
      "payable": false,
      "stateMutability": "nonpayable",
      "type": "function"
    },
    {
      "constant": false,
      "inputs": [
        {
          "name": "newOwner",
          "type": "address"
        }
      ],
      "name": "transferOwnership",
      "outputs": [],
      "payable": false,
      "stateMutability": "nonpayable",
      "type": "function"
    },
    {
      "constant": true,
      "inputs": [],
      "name": "softcap",
      "outputs": [
        {
          "name": "",
          "type": "uint256"
        }
      ],
      "payable": false,
      "stateMutability": "view",
      "type": "function"
    },
    {
      "inputs": [],
      "payable": false,
      "stateMutability": "nonpayable",
      "type": "constructor"
    },
    {
      "payable": true,
      "stateMutability": "payable",
      "type": "fallback"
    },
    {
      "anonymous": false,
      "inputs": [],
      "name": "SoftcapReached",
      "type": "event"
    },
    {
      "anonymous": false,
      "inputs": [],
      "name": "HardcapReached",
      "type": "event"
    },
    {
      "anonymous": false,
      "inputs": [],
      "name": "RefundsEnabled",
      "type": "event"
    },
    {
      "anonymous": false,
      "inputs": [
        {
          "indexed": true,
          "name": "beneficiary",
          "type": "address"
        },
        {
          "indexed": false,
          "name": "weiAmount",
          "type": "uint256"
        }
      ],
      "name": "Refunded",
      "type": "event"
    },
    {
      "anonymous": false,
      "inputs": [
        {
          "indexed": false,
          "name": "info",
          "type": "string"
        }
      ],
      "name": "CrowdSaleFinished",
      "type": "event"
    },
    {
      "anonymous": false,
      "inputs": [
        {
          "indexed": true,
          "name": "burner",
          "type": "address"
        },
        {
          "indexed": false,
          "name": "amount",
          "type": "uint256"
        }
      ],
      "name": "Burned",
      "type": "event"
    },
    {
      "anonymous": false,
      "inputs": [],
      "name": "EPause",
      "type": "event"
    },
    {
      "anonymous": false,
      "inputs": [],
      "name": "EUnpause",
      "type": "event"
    },
    {
      "anonymous": false,
      "inputs": [
        {
          "indexed": false,
          "name": "target",
          "type": "address"
        },
        {
          "indexed": false,
          "name": "frozen",
          "type": "bool"
        }
      ],
      "name": "FrozenFunds",
      "type": "event"
    },
    {
      "anonymous": false,
      "inputs": [
        {
          "indexed": true,
          "name": "previousOwner",
          "type": "address"
        },
        {
          "indexed": true,
          "name": "newOwner",
          "type": "address"
        }
      ],
      "name": "OwnershipTransferred",
      "type": "event"
    },
    {
      "anonymous": false,
      "inputs": [
        {
          "indexed": true,
          "name": "owner",
          "type": "address"
        },
        {
          "indexed": true,
          "name": "spender",
          "type": "address"
        },
        {
          "indexed": false,
          "name": "value",
          "type": "uint256"
        }
      ],
      "name": "Approval",
      "type": "event"
    },
    {
      "anonymous": false,
      "inputs": [
        {
          "indexed": true,
          "name": "from",
          "type": "address"
        },
        {
          "indexed": true,
          "name": "to",
          "type": "address"
        },
        {
          "indexed": false,
          "name": "value",
          "type": "uint256"
        }
      ],
      "name": "Transfer",
      "type": "event"
    }
  ],
  "bytecode": "0x60606040526012600260006101000a81548160ff021916908360ff1602179055506b024306c4097859c43c0000006003556001600660006101000a81548160ff021916908315150217905550600260009054906101000a900460ff1660ff16600a0a600755670de0b6b3a764000060085560006009556000600a556000600b55635b37ef50600c5573d5b93c49c4201db2a674a7d0fc5f3f733ebade80601360006101000a81548173ffffffffffffffffffffffffffffffffffffffff021916908373ffffffffffffffffffffffffffffffffffffffff16021790555073d5b93c49c4201db2a674a7d0fc5f3f733ebade80601460006101000a81548173ffffffffffffffffffffffffffffffffffffffff021916908373ffffffffffffffffffffffffffffffffffffffff16021790555073d5b93c49c4201db2a674a7d0fc5f3f733ebade80601560006101000a81548173ffffffffffffffffffffffffffffffffffffffff021916908373ffffffffffffffffffffffffffffffffffffffff16021790555073d5b93c49c4201db2a674a7d0fc5f3f733ebade80601660006101000a81548173ffffffffffffffffffffffffffffffffffffffff021916908373ffffffffffffffffffffffffffffffffffffffff1602179055503415620001e757600080fd5b336000806101000a81548173ffffffffffffffffffffffffffffffffffffffff021916908373ffffffffffffffffffffffffffffffffffffffff16021790555062000270606462000253603c60035462000571640100000000026200307a179091906401000000009004565b620005a764010000000002620030ad179091906401000000009004565b600460003073ffffffffffffffffffffffffffffffffffffffff1673ffffffffffffffffffffffffffffffffffffffff16815260200190815260200160002081905550620002fc6064620002df601460035462000571640100000000026200307a179091906401000000009004565b620005a764010000000002620030ad179091906401000000009004565b60046000601360009054906101000a900473ffffffffffffffffffffffffffffffffffffffff1673ffffffffffffffffffffffffffffffffffffffff1673ffffffffffffffffffffffffffffffffffffffff16815260200190815260200160002081905550620003aa60646200038d600a60035462000571640100000000026200307a179091906401000000009004565b620005a764010000000002620030ad179091906401000000009004565b60046000601460009054906101000a900473ffffffffffffffffffffffffffffffffffffffff1673ffffffffffffffffffffffffffffffffffffffff1673ffffffffffffffffffffffffffffffffffffffff168152602001908152602001600020819055506200045860646200043b600560035462000571640100000000026200307a179091906401000000009004565b620005a764010000000002620030ad179091906401000000009004565b60046000601560009054906101000a900473ffffffffffffffffffffffffffffffffffffffff1673ffffffffffffffffffffffffffffffffffffffff1673ffffffffffffffffffffffffffffffffffffffff16815260200190815260200160002081905550620005066064620004e9600560035462000571640100000000026200307a179091906401000000009004565b620005a764010000000002620030ad179091906401000000009004565b60046000601660009054906101000a900473ffffffffffffffffffffffffffffffffffffffff1673ffffffffffffffffffffffffffffffffffffffff1673ffffffffffffffffffffffffffffffffffffffff16815260200190815260200160002081905550620005c3565b600080828402905060008414806200059457508284828115156200059157fe5b04145b15156200059d57fe5b8091505092915050565b6000808284811515620005b657fe5b0490508091505092915050565b6136b980620005d36000396000f300606060405260043610610225576000357c0100000000000000000000000000000000000000000000000000000000900463ffffffff168063061303a71461033557806306fdde0314610362578063095ea7b3146103f057806318160ddd1461044a5780631ec32d151461047357806323b872dd146104c8578063273ba6bb1461054157806331198d1914610592578063313ce567146105d45780633f4ba83a14610603578063518ab2a81461061857806353cc2fae146106415780635546e1ab1461067a5780635bda1af01461068f5780635c975abb146106dc57806366188463146107095780636beabed4146107635780636eb219291461077857806370a08231146107a557806373f42561146107f25780638456cb591461081f5780638620410b1461083457806388f4807e1461085d57806389e42346146108b25780638da5cb5b146108c757806395d89b411461091c578063a883b0c4146109aa578063a9059cbb146109ee578063ae81463814610a48578063b071cbe614610a71578063b187bd2614610a9a578063bbec30f114610ac7578063c040e6b814610b1c578063cb13cddb14610b45578063d051665014610b92578063d0973af814610be3578063d73dd62314610c25578063da5f838d14610c7f578063dd62ed3e14610ca8578063e576052014610d14578063ec993f3d14610d69578063ee67575f14610da7578063f26c159f14610de9578063f2fde38b14610e22578063f89be59314610e5b575b600f60010154421015151561023957600080fd5b600c544210151561024957600080fd5b662386f26fc10000341015151561025c57fe5b600f6002015442118061027457506000600f60000154145b1561032957610281610e84565b7f85b8d86f52e6555fa7f5d8f5e1fe2dbca432512924156cc733ad10ba881c121c6102aa610ecd565b6040518080602001828103825283818151815260200191508051906020019080838360005b838110156102ea5780820151818401526020810190506102cf565b50505050905090810190601f1680156103175780820380516001836020036101000a031916815260200191505b509250505060405180910390a1600080fd5b610333333461107a565b005b341561034057600080fd5b6103486112da565b604051808215151515815260200191505060405180910390f35b341561036d57600080fd5b6103756112ed565b6040518080602001828103825283818151815260200191508051906020019080838360005b838110156103b557808201518184015260208101905061039a565b50505050905090810190601f1680156103e25780820380516001836020036101000a031916815260200191505b509250505060405180910390f35b34156103fb57600080fd5b610430600480803573ffffffffffffffffffffffffffffffffffffffff16906020019091908035906020019091905050611326565b604051808215151515815260200191505060405180910390f35b341561045557600080fd5b61045d611356565b6040518082815260200191505060405180910390f35b341561047e57600080fd5b610486611360565b604051808273ffffffffffffffffffffffffffffffffffffffff1673ffffffffffffffffffffffffffffffffffffffff16815260200191505060405180910390f35b34156104d357600080fd5b610527600480803573ffffffffffffffffffffffffffffffffffffffff1690602001909190803573ffffffffffffffffffffffffffffffffffffffff16906020019091908035906020019091905050611386565b604051808215151515815260200191505060405180910390f35b341561054c57600080fd5b6105546113b8565b604051808681526020018581526020018481526020018360ff1660ff1681526020018260ff1660ff1681526020019550505050505060405180910390f35b341561059d57600080fd5b6105d2600480803573ffffffffffffffffffffffffffffffffffffffff169060200190919080359060200190919050506113f6565b005b34156105df57600080fd5b6105e76114b0565b604051808260ff1660ff16815260200191505060405180910390f35b341561060e57600080fd5b6106166114c3565b005b341561062357600080fd5b61062b611567565b6040518082815260200191505060405180910390f35b341561064c57600080fd5b610678600480803573ffffffffffffffffffffffffffffffffffffffff1690602001909190505061156d565b005b341561068557600080fd5b61068d611693565b005b341561069a57600080fd5b6106da600480803590602001909190803590602001909190803590602001909190803560ff1690602001909190803560ff16906020019091905050611826565b005b34156106e757600080fd5b6106ef61199c565b604051808215151515815260200191505060405180910390f35b341561071457600080fd5b610749600480803573ffffffffffffffffffffffffffffffffffffffff169060200190919080359060200190919050506119af565b604051808215151515815260200191505060405180910390f35b341561076e57600080fd5b6107766119df565b005b341561078357600080fd5b61078b611be9565b604051808215151515815260200191505060405180910390f35b34156107b057600080fd5b6107dc600480803573ffffffffffffffffffffffffffffffffffffffff16906020019091905050611bfc565b6040518082815260200191505060405180910390f35b34156107fd57600080fd5b610805611c45565b604051808215151515815260200191505060405180910390f35b341561082a57600080fd5b610832611c58565b005b341561083f57600080fd5b610847611cfc565b6040518082815260200191505060405180910390f35b341561086857600080fd5b610870611d02565b604051808273ffffffffffffffffffffffffffffffffffffffff1673ffffffffffffffffffffffffffffffffffffffff16815260200191505060405180910390f35b34156108bd57600080fd5b6108c5611d28565b005b34156108d257600080fd5b6108da611d9d565b604051808273ffffffffffffffffffffffffffffffffffffffff1673ffffffffffffffffffffffffffffffffffffffff16815260200191505060405180910390f35b341561092757600080fd5b61092f611dc2565b6040518080602001828103825283818151815260200191508051906020019080838360005b8381101561096f578082015181840152602081019050610954565b50505050905090810190601f16801561099c5780820380516001836020036101000a031916815260200191505b509250505060405180910390f35b34156109b557600080fd5b6109d46004808035906020019091908035906020019091905050611dfb565b604051808215151515815260200191505060405180910390f35b34156109f957600080fd5b610a2e600480803573ffffffffffffffffffffffffffffffffffffffff16906020019091908035906020019091905050611eab565b604051808215151515815260200191505060405180910390f35b3415610a5357600080fd5b610a5b611edb565b6040518082815260200191505060405180910390f35b3415610a7c57600080fd5b610a84611ee1565b6040518082815260200191505060405180910390f35b3415610aa557600080fd5b610aad611ef1565b604051808215151515815260200191505060405180910390f35b3415610ad257600080fd5b610ada611f08565b604051808273ffffffffffffffffffffffffffffffffffffffff1673ffffffffffffffffffffffffffffffffffffffff16815260200191505060405180910390f35b3415610b2757600080fd5b610b2f611f2e565b6040518082815260200191505060405180910390f35b3415610b5057600080fd5b610b7c600480803573ffffffffffffffffffffffffffffffffffffffff16906020019091905050611f34565b6040518082815260200191505060405180910390f35b3415610b9d57600080fd5b610bc9600480803573ffffffffffffffffffffffffffffffffffffffff16906020019091905050611f4c565b604051808215151515815260200191505060405180910390f35b3415610bee57600080fd5b610c23600480803573ffffffffffffffffffffffffffffffffffffffff16906020019091908035906020019091905050611fa2565b005b3415610c3057600080fd5b610c65600480803573ffffffffffffffffffffffffffffffffffffffff169060200190919080359060200190919050506120c2565b604051808215151515815260200191505060405180910390f35b3415610c8a57600080fd5b610c926120f2565b6040518082815260200191505060405180910390f35b3415610cb357600080fd5b610cfe600480803573ffffffffffffffffffffffffffffffffffffffff1690602001909190803573ffffffffffffffffffffffffffffffffffffffff169060200190919050506120f8565b6040518082815260200191505060405180910390f35b3415610d1f57600080fd5b610d2761217f565b604051808273ffffffffffffffffffffffffffffffffffffffff1673ffffffffffffffffffffffffffffffffffffffff16815260200191505060405180910390f35b3415610d7457600080fd5b610d8d600480803560ff169060200190919050506121a5565b604051808215151515815260200191505060405180910390f35b3415610db257600080fd5b610de7600480803573ffffffffffffffffffffffffffffffffffffffff169060200190919080359060200190919050506122bf565b005b3415610df457600080fd5b610e20600480803573ffffffffffffffffffffffffffffffffffffffff16906020019091905050612328565b005b3415610e2d57600080fd5b610e59600480803573ffffffffffffffffffffffffffffffffffffffff1690602001909190505061244d565b005b3415610e6657600080fd5b610e6e6125a2565b6040518082815260200191505060405180910390f35b6001600660006101000a81548160ff0219169083151502179055507fd2ef4ae6592c2a8f5d1c602eaa8a0685727b41b23509703db861621a9614813a60405160405180910390a1565b610ed5613679565b60095460011415610f1d576040805190810160405280600c81526020017f507269766174652073616c6500000000000000000000000000000000000000008152509050611077565b60095460021415610f65576040805190810160405280600781526020017f5072652d49434f000000000000000000000000000000000000000000000000008152509050611077565b60095460031415610fad576040805190810160405280600f81526020017f49434f20666972737420737461676500000000000000000000000000000000008152509050611077565b60095460041415610ff5576040805190810160405280601081526020017f49434f207365636f6e64207374616765000000000000000000000000000000008152509050611077565b600954600510151561103e576040805190810160405280600d81526020017f66656174757265207374616765000000000000000000000000000000000000008152509050611077565b6040805190810160405280601c81526020017f7468657265206973206e6f2073746167652061742070726573656e740000000081525090505b90565b6000611085826125b1565b90506110908161274e565b151561109b57600080fd5b6110a58382612770565b6110f782600d60008673ffffffffffffffffffffffffffffffffffffffff1673ffffffffffffffffffffffffffffffffffffffff1681526020019081526020016000205461280590919063ffffffff16565b600d60008573ffffffffffffffffffffffffffffffffffffffff1673ffffffffffffffffffffffffffffffffffffffff1681526020019081526020016000208190555061114f82600a5461280590919063ffffffff16565b600a8190555061116a81600b5461280590919063ffffffff16565b600b819055506a464f733baa0ae675000000600b541015801561119a5750600e60009054906101000a900460ff16155b156111e7576001600e60006101000a81548160ff0219169083151502179055507ffdb05b528f2dac23ab38f2ec9c3a79a5960a50239b3c90882fdd244e3b20477a60405160405180910390a15b6b015b6a759f4835dc24000000600b5414156112d557611205610e84565b7f5be90159e4545cc658d8cad2a258389b64e1afafc55741b601a6e455ef00cccb60405160405180910390a17f85b8d86f52e6555fa7f5d8f5e1fe2dbca432512924156cc733ad10ba881c121c61125a610ecd565b6040518080602001828103825283818151815260200191508051906020019080838360005b8381101561129a57808201518184015260208101905061127f565b50505050905090810190601f1680156112c75780820380516001836020036101000a031916815260200191505b509250505060405180910390a15b505050565b600e60019054906101000a900460ff1681565b6040805190810160405280600b81526020017f43727970746f6c6f67695100000000000000000000000000000000000000000081525081565b6000600660009054906101000a900460ff1615151561134457600080fd5b61134e8383612823565b905092915050565b6000600354905090565b601360009054906101000a900473ffffffffffffffffffffffffffffffffffffffff1681565b6000600660009054906101000a900460ff161515156113a457600080fd5b6113af848484612915565b90509392505050565b600f8060000154908060010154908060020154908060030160009054906101000a900460ff16908060030160019054906101000a900460ff16905085565b6000809054906101000a900473ffffffffffffffffffffffffffffffffffffffff1673ffffffffffffffffffffffffffffffffffffffff163373ffffffffffffffffffffffffffffffffffffffff1614151561145157600080fd5b600e60009054906101000a900460ff16151561146c57600080fd5b8173ffffffffffffffffffffffffffffffffffffffff166108fc829081150290604051600060405180830381858888f1935050505015156114ac57600080fd5b5050565b600260009054906101000a900460ff1681565b6000809054906101000a900473ffffffffffffffffffffffffffffffffffffffff1673ffffffffffffffffffffffffffffffffffffffff163373ffffffffffffffffffffffffffffffffffffffff1614151561151e57600080fd5b6000600660006101000a81548160ff0219169083151502179055507f9b1d6b460eaa8350c2f15712231e94c803e08e072db0737a0efb84745848694060405160405180910390a1565b600b5481565b6000809054906101000a900473ffffffffffffffffffffffffffffffffffffffff1673ffffffffffffffffffffffffffffffffffffffff163373ffffffffffffffffffffffffffffffffffffffff161415156115c857600080fd5b6000600160008373ffffffffffffffffffffffffffffffffffffffff1673ffffffffffffffffffffffffffffffffffffffff16815260200190815260200160002060006101000a81548160ff0219169083151502179055507f48335238b4855f35377ed80f164e8c6f3c366e54ac00b96a6402d4a9814a03a5816000604051808373ffffffffffffffffffffffffffffffffffffffff1673ffffffffffffffffffffffffffffffffffffffff168152602001821515151581526020019250505060405180910390a150565b6000600c54421115156116a557600080fd5b600e60019054906101000a900460ff1615156116c057600080fd5b6000600d60003373ffffffffffffffffffffffffffffffffffffffff1673ffffffffffffffffffffffffffffffffffffffff1681526020019081526020016000205411151561170e57600080fd5b600d60003373ffffffffffffffffffffffffffffffffffffffff1673ffffffffffffffffffffffffffffffffffffffff1681526020019081526020016000205490506000600d60003373ffffffffffffffffffffffffffffffffffffffff1673ffffffffffffffffffffffffffffffffffffffff168152602001908152602001600020819055503373ffffffffffffffffffffffffffffffffffffffff166108fc829081150290604051600060405180830381858888f1935050505015156117d557600080fd5b3373ffffffffffffffffffffffffffffffffffffffff167fd7dee2702d63ad89917b6a4da9981c90c4d24f8c2bdfd64c604ecae57d8d0651826040518082815260200191505060405180910390a250565b6000809054906101000a900473ffffffffffffffffffffffffffffffffffffffff1673ffffffffffffffffffffffffffffffffffffffff163373ffffffffffffffffffffffffffffffffffffffff1614151561188157600080fd5b600460003073ffffffffffffffffffffffffffffffffffffffff1673ffffffffffffffffffffffffffffffffffffffff168152602001908152602001600020546007548602111515156118d357600080fd5b60a06040519081016040528060075487028152602001858152602001620151808502860181526020018360ff1681526020018260ff16815250600f60008201518160000155602082015181600101556040820151816002015560608201518160030160006101000a81548160ff021916908360ff16021790555060808201518160030160016101000a81548160ff021916908360ff160217905550905050611987600160095461280590919063ffffffff16565b600981905550611995612d87565b5050505050565b600660009054906101000a900460ff1681565b6000600660009054906101000a900460ff161515156119cd57600080fd5b6119d78383612dd0565b905092915050565b6000600c54421115156119f157600080fd5b600e60029054906101000a900460ff16151515611a0d57600080fd5b339050611a64600460003073ffffffffffffffffffffffffffffffffffffffff1673ffffffffffffffffffffffffffffffffffffffff1681526020019081526020016000205460035461306190919063ffffffff16565b600381905550611afb600460003073ffffffffffffffffffffffffffffffffffffffff1673ffffffffffffffffffffffffffffffffffffffff16815260200190815260200160002054600460003073ffffffffffffffffffffffffffffffffffffffff1673ffffffffffffffffffffffffffffffffffffffff1681526020019081526020016000205461306190919063ffffffff16565b600460003073ffffffffffffffffffffffffffffffffffffffff1673ffffffffffffffffffffffffffffffffffffffff168152602001908152602001600020819055506001600e60026101000a81548160ff0219169083151502179055508073ffffffffffffffffffffffffffffffffffffffff167f696de425f79f4a40bc6d2122ca50507f0efbeabbff86a84871b7196ab8ea8df7600460003073ffffffffffffffffffffffffffffffffffffffff1673ffffffffffffffffffffffffffffffffffffffff168152602001908152602001600020546040518082815260200191505060405180910390a250565b600e60009054906101000a900460ff1681565b6000600460008373ffffffffffffffffffffffffffffffffffffffff1673ffffffffffffffffffffffffffffffffffffffff168152602001908152602001600020549050919050565b600e60029054906101000a900460ff1681565b6000809054906101000a900473ffffffffffffffffffffffffffffffffffffffff1673ffffffffffffffffffffffffffffffffffffffff163373ffffffffffffffffffffffffffffffffffffffff16141515611cb357600080fd5b6001600660006101000a81548160ff0219169083151502179055507fd2ef4ae6592c2a8f5d1c602eaa8a0685727b41b23509703db861621a9614813a60405160405180910390a1565b60085481565b601660009054906101000a900473ffffffffffffffffffffffffffffffffffffffff1681565b600c5442111515611d3857600080fd5b600e60009054906101000a900460ff16151515611d5457600080fd5b6001600e60016101000a81548160ff0219169083151502179055507f599d8e5a83cffb867d051598c4d70e805d59802d8081c1c7d6dffc5b6aca2b8960405160405180910390a1565b6000809054906101000a900473ffffffffffffffffffffffffffffffffffffffff1681565b6040805190810160405280600581526020017f4c4f47495100000000000000000000000000000000000000000000000000000081525081565b60008060009054906101000a900473ffffffffffffffffffffffffffffffffffffffff1673ffffffffffffffffffffffffffffffffffffffff163373ffffffffffffffffffffffffffffffffffffffff16141515611e5857600080fd5b6000831415611e6657600192505b6000821415611e7457600191505b611e9b82611e8d6007548661307a90919063ffffffff16565b6130ad90919063ffffffff16565b6008819055506001905092915050565b6000600660009054906101000a900460ff16151515611ec957600080fd5b611ed383836130c8565b905092915050565b600c5481565b6b015b6a759f4835dc2400000081565b6000600660009054906101000a900460ff16905090565b601460009054906101000a900473ffffffffffffffffffffffffffffffffffffffff1681565b60095481565b600d6020528060005260406000206000915090505481565b6000600160008373ffffffffffffffffffffffffffffffffffffffff1673ffffffffffffffffffffffffffffffffffffffff16815260200190815260200160002060009054906101000a900460ff169050919050565b6000809054906101000a900473ffffffffffffffffffffffffffffffffffffffff1673ffffffffffffffffffffffffffffffffffffffff163373ffffffffffffffffffffffffffffffffffffffff16141515611ffd57600080fd5b61201581600f6000015461306190919063ffffffff16565b600f6000018190555061207081600460003073ffffffffffffffffffffffffffffffffffffffff1673ffffffffffffffffffffffffffffffffffffffff1681526020019081526020016000205461306190919063ffffffff16565b600460003073ffffffffffffffffffffffffffffffffffffffff1673ffffffffffffffffffffffffffffffffffffffff168152602001908152602001600020819055506120be3083836130df565b5050565b6000600660009054906101000a900460ff161515156120e057600080fd5b6120ea838361344d565b905092915050565b600a5481565b6000600560008473ffffffffffffffffffffffffffffffffffffffff1673ffffffffffffffffffffffffffffffffffffffff16815260200190815260200160002060008373ffffffffffffffffffffffffffffffffffffffff1673ffffffffffffffffffffffffffffffffffffffff16815260200190815260200160002054905092915050565b601560009054906101000a900473ffffffffffffffffffffffffffffffffffffffff1681565b60008060009054906101000a900473ffffffffffffffffffffffffffffffffffffffff1673ffffffffffffffffffffffffffffffffffffffff163373ffffffffffffffffffffffffffffffffffffffff1614151561220257600080fd5b60a060405190810160405280600f600001548152602001600f600101548152602001600f6002015481526020018360ff168152602001600f60030160019054906101000a900460ff1660ff16815250600f60008201518160000155602082015181600101556040820151816002015560608201518160030160006101000a81548160ff021916908360ff16021790555060808201518160030160016101000a81548160ff021916908360ff16021790555090505060019050919050565b6000809054906101000a900473ffffffffffffffffffffffffffffffffffffffff1673ffffffffffffffffffffffffffffffffffffffff163373ffffffffffffffffffffffffffffffffffffffff1614151561231a57600080fd5b6123248282612770565b5050565b6000809054906101000a900473ffffffffffffffffffffffffffffffffffffffff1673ffffffffffffffffffffffffffffffffffffffff163373ffffffffffffffffffffffffffffffffffffffff1614151561238357600080fd5b60018060008373ffffffffffffffffffffffffffffffffffffffff1673ffffffffffffffffffffffffffffffffffffffff16815260200190815260200160002060006101000a81548160ff0219169083151502179055507f48335238b4855f35377ed80f164e8c6f3c366e54ac00b96a6402d4a9814a03a5816001604051808373ffffffffffffffffffffffffffffffffffffffff1673ffffffffffffffffffffffffffffffffffffffff168152602001821515151581526020019250505060405180910390a150565b6000809054906101000a900473ffffffffffffffffffffffffffffffffffffffff1673ffffffffffffffffffffffffffffffffffffffff163373ffffffffffffffffffffffffffffffffffffffff161415156124a857600080fd5b600073ffffffffffffffffffffffffffffffffffffffff168173ffffffffffffffffffffffffffffffffffffffff16141515156124e457600080fd5b8073ffffffffffffffffffffffffffffffffffffffff166000809054906101000a900473ffffffffffffffffffffffffffffffffffffffff1673ffffffffffffffffffffffffffffffffffffffff167f8be0079c531659141344cd1fd0a4f28419497f9722a3daafe3b4186f6b6457e060405160405180910390a3806000806101000a81548173ffffffffffffffffffffffffffffffffffffffff021916908373ffffffffffffffffffffffffffffffffffffffff16021790555050565b6a464f733baa0ae67500000081565b6000806125dd6008546125cf6007548661307a90919063ffffffff16565b6130ad90919063ffffffff16565b90506000811115156125ee57600080fd5b600954600114156126315761262a61261b82600f60030160009054906101000a900460ff1660ff16613649565b8261280590919063ffffffff16565b9050612745565b600954600214156126745761266d61265e82600f60030160009054906101000a900460ff1660ff16613649565b8261280590919063ffffffff16565b9050612744565b600954600314156127035762015180600f6001015401421115156126ca576126c36126b482600f60030160019054906101000a900460ff1660ff16613649565b8261280590919063ffffffff16565b90506126fe565b6126fb6126ec82600f60030160009054906101000a900460ff1660ff16613649565b8261280590919063ffffffff16565b90505b612743565b600954600414156127425761273f61273082600f60030160009054906101000a900460ff1660ff16613649565b8261280590919063ffffffff16565b90505b5b5b5b80915050919050565b600081600f600001541015612766576000905061276b565b600190505b919050565b61278881600f6000015461306190919063ffffffff16565b600f6000018190555061279c3083836130df565b8173ffffffffffffffffffffffffffffffffffffffff163073ffffffffffffffffffffffffffffffffffffffff167fddf252ad1be2c89b69c2b068fc378daa952ba7f163c4a11628f55a4df523b3ef836040518082815260200191505060405180910390a35050565b600080828401905083811015151561281957fe5b8091505092915050565b600081600560003373ffffffffffffffffffffffffffffffffffffffff1673ffffffffffffffffffffffffffffffffffffffff16815260200190815260200160002060008573ffffffffffffffffffffffffffffffffffffffff1673ffffffffffffffffffffffffffffffffffffffff168152602001908152602001600020819055508273ffffffffffffffffffffffffffffffffffffffff163373ffffffffffffffffffffffffffffffffffffffff167f8c5be1e5ebec7d5bd14f71427d1e84f3dd0314c0f7b2291e5b200ac8c7c3b925846040518082815260200191505060405180910390a36001905092915050565b6000600160008573ffffffffffffffffffffffffffffffffffffffff1673ffffffffffffffffffffffffffffffffffffffff16815260200190815260200160002060009054906101000a900460ff1615151561297057600080fd5b600160008473ffffffffffffffffffffffffffffffffffffffff1673ffffffffffffffffffffffffffffffffffffffff16815260200190815260200160002060009054906101000a900460ff161515156129c957600080fd5b600073ffffffffffffffffffffffffffffffffffffffff168373ffffffffffffffffffffffffffffffffffffffff1614151515612a0557600080fd5b600460008573ffffffffffffffffffffffffffffffffffffffff1673ffffffffffffffffffffffffffffffffffffffff168152602001908152602001600020548211151515612a5357600080fd5b600560008573ffffffffffffffffffffffffffffffffffffffff1673ffffffffffffffffffffffffffffffffffffffff16815260200190815260200160002060003373ffffffffffffffffffffffffffffffffffffffff1673ffffffffffffffffffffffffffffffffffffffff168152602001908152602001600020548211151515612ade57600080fd5b612b3082600460008773ffffffffffffffffffffffffffffffffffffffff1673ffffffffffffffffffffffffffffffffffffffff1681526020019081526020016000205461306190919063ffffffff16565b600460008673ffffffffffffffffffffffffffffffffffffffff1673ffffffffffffffffffffffffffffffffffffffff16815260200190815260200160002081905550612bc582600460008673ffffffffffffffffffffffffffffffffffffffff1673ffffffffffffffffffffffffffffffffffffffff1681526020019081526020016000205461280590919063ffffffff16565b600460008573ffffffffffffffffffffffffffffffffffffffff1673ffffffffffffffffffffffffffffffffffffffff16815260200190815260200160002081905550612c9782600560008773ffffffffffffffffffffffffffffffffffffffff1673ffffffffffffffffffffffffffffffffffffffff16815260200190815260200160002060003373ffffffffffffffffffffffffffffffffffffffff1673ffffffffffffffffffffffffffffffffffffffff1681526020019081526020016000205461306190919063ffffffff16565b600560008673ffffffffffffffffffffffffffffffffffffffff1673ffffffffffffffffffffffffffffffffffffffff16815260200190815260200160002060003373ffffffffffffffffffffffffffffffffffffffff1673ffffffffffffffffffffffffffffffffffffffff168152602001908152602001600020819055508273ffffffffffffffffffffffffffffffffffffffff168473ffffffffffffffffffffffffffffffffffffffff167fddf252ad1be2c89b69c2b068fc378daa952ba7f163c4a11628f55a4df523b3ef846040518082815260200191505060405180910390a3600190509392505050565b6000600660006101000a81548160ff0219169083151502179055507f9b1d6b460eaa8350c2f15712231e94c803e08e072db0737a0efb84745848694060405160405180910390a1565b600080600560003373ffffffffffffffffffffffffffffffffffffffff1673ffffffffffffffffffffffffffffffffffffffff16815260200190815260200160002060008573ffffffffffffffffffffffffffffffffffffffff1673ffffffffffffffffffffffffffffffffffffffff16815260200190815260200160002054905080831115612ee1576000600560003373ffffffffffffffffffffffffffffffffffffffff1673ffffffffffffffffffffffffffffffffffffffff16815260200190815260200160002060008673ffffffffffffffffffffffffffffffffffffffff1673ffffffffffffffffffffffffffffffffffffffff16815260200190815260200160002081905550612f75565b612ef4838261306190919063ffffffff16565b600560003373ffffffffffffffffffffffffffffffffffffffff1673ffffffffffffffffffffffffffffffffffffffff16815260200190815260200160002060008673ffffffffffffffffffffffffffffffffffffffff1673ffffffffffffffffffffffffffffffffffffffff168152602001908152602001600020819055505b8373ffffffffffffffffffffffffffffffffffffffff163373ffffffffffffffffffffffffffffffffffffffff167f8c5be1e5ebec7d5bd14f71427d1e84f3dd0314c0f7b2291e5b200ac8c7c3b925600560003373ffffffffffffffffffffffffffffffffffffffff1673ffffffffffffffffffffffffffffffffffffffff16815260200190815260200160002060008873ffffffffffffffffffffffffffffffffffffffff1673ffffffffffffffffffffffffffffffffffffffff168152602001908152602001600020546040518082815260200191505060405180910390a3600191505092915050565b600082821115151561306f57fe5b818303905092915050565b6000808284029050600084148061309b575082848281151561309857fe5b04145b15156130a357fe5b8091505092915050565b60008082848115156130bb57fe5b0490508091505092915050565b60006130d53384846130df565b6001905092915050565b600160008473ffffffffffffffffffffffffffffffffffffffff1673ffffffffffffffffffffffffffffffffffffffff16815260200190815260200160002060009054906101000a900460ff1615151561313857600080fd5b600160008373ffffffffffffffffffffffffffffffffffffffff1673ffffffffffffffffffffffffffffffffffffffff16815260200190815260200160002060009054906101000a900460ff1615151561319157600080fd5b600073ffffffffffffffffffffffffffffffffffffffff168273ffffffffffffffffffffffffffffffffffffffff16141515156131cd57600080fd5b80600460008573ffffffffffffffffffffffffffffffffffffffff1673ffffffffffffffffffffffffffffffffffffffff168152602001908152602001600020541015151561321b57600080fd5b600460008373ffffffffffffffffffffffffffffffffffffffff1673ffffffffffffffffffffffffffffffffffffffff168152602001908152602001600020546132ad82600460008673ffffffffffffffffffffffffffffffffffffffff1673ffffffffffffffffffffffffffffffffffffffff1681526020019081526020016000205461280590919063ffffffff16565b1115156132b957600080fd5b61330b81600460008673ffffffffffffffffffffffffffffffffffffffff1673ffffffffffffffffffffffffffffffffffffffff1681526020019081526020016000205461306190919063ffffffff16565b600460008573ffffffffffffffffffffffffffffffffffffffff1673ffffffffffffffffffffffffffffffffffffffff168152602001908152602001600020819055506133a081600460008573ffffffffffffffffffffffffffffffffffffffff1673ffffffffffffffffffffffffffffffffffffffff1681526020019081526020016000205461280590919063ffffffff16565b600460008473ffffffffffffffffffffffffffffffffffffffff1673ffffffffffffffffffffffffffffffffffffffff168152602001908152602001600020819055508173ffffffffffffffffffffffffffffffffffffffff168373ffffffffffffffffffffffffffffffffffffffff167fddf252ad1be2c89b69c2b068fc378daa952ba7f163c4a11628f55a4df523b3ef836040518082815260200191505060405180910390a3505050565b60006134de82600560003373ffffffffffffffffffffffffffffffffffffffff1673ffffffffffffffffffffffffffffffffffffffff16815260200190815260200160002060008673ffffffffffffffffffffffffffffffffffffffff1673ffffffffffffffffffffffffffffffffffffffff1681526020019081526020016000205461280590919063ffffffff16565b600560003373ffffffffffffffffffffffffffffffffffffffff1673ffffffffffffffffffffffffffffffffffffffff16815260200190815260200160002060008573ffffffffffffffffffffffffffffffffffffffff1673ffffffffffffffffffffffffffffffffffffffff168152602001908152602001600020819055508273ffffffffffffffffffffffffffffffffffffffff163373ffffffffffffffffffffffffffffffffffffffff167f8c5be1e5ebec7d5bd14f71427d1e84f3dd0314c0f7b2291e5b200ac8c7c3b925600560003373ffffffffffffffffffffffffffffffffffffffff1673ffffffffffffffffffffffffffffffffffffffff16815260200190815260200160002060008773ffffffffffffffffffffffffffffffffffffffff1673ffffffffffffffffffffffffffffffffffffffff168152602001908152602001600020546040518082815260200191505060405180910390a36001905092915050565b60006136716064613663848661307a90919063ffffffff16565b6130ad90919063ffffffff16565b905092915050565b6020604051908101604052806000815250905600a165627a7a72305820b4ce1fa7e8b6ecaac4e139f07e4dd0ee9e1ed2268263eea97eaefe9a98ddcc1a0029",
  "source": "pragma solidity ^0.4.18;\r\n\r\nimport \"./SafeMath.sol\";\r\nimport \"./CryptologiqCrowdsale.sol\";\r\n\r\ncontract CryptologiQ is CryptologiqCrowdsale\r\n{\r\n    using SafeMath for uint;\r\n\r\n    address public companyWallet = 0xD5B93C49c4201DB2A674A7d0FC5f3F733EBaDe80;\r\n    address public internalExchangeWallet = 0xD5B93C49c4201DB2A674A7d0FC5f3F733EBaDe80;\r\n    address public bountyWallet = 0xD5B93C49c4201DB2A674A7d0FC5f3F733EBaDe80;\r\n    address public tournamentsWallet = 0xD5B93C49c4201DB2A674A7d0FC5f3F733EBaDe80;\r\n\r\n    function CryptologiQ() public\r\n    {\r\n        balances[this] = (totalSupply.mul(60)).div(100);                    // Send 60% of tokens to smart contract wallet      420,000,000 LOGIQ\r\n        balances[companyWallet] = (totalSupply.mul(20)).div(100);           // Send 20% of tokens to company wallet             140,000,000 LOGIQ\r\n        balances[internalExchangeWallet] = (totalSupply.mul(10)).div(100);  // Send 10% of tokens to internal exchange wallet   70,000,000 LOGIQ\r\n        balances[bountyWallet] = (totalSupply.mul(5)).div(100);             // Send 5%  of tokens to bounty wallet              35,000,000 LOGIQ\r\n        balances[tournamentsWallet] = (totalSupply.mul(5)).div(100);        // Send 5%  of tokens to tournaments wallet         35,000,000 LOGIQ\r\n    }\r\n\r\n    function transferEthFromContract(address _to, uint256 amount) public onlyOwner\r\n    {\r\n        require(softcapReached);\r\n        _to.transfer(amount);\r\n    }\r\n\r\n    function () public payable\r\n    {\r\n        require(now >= ICO.startDate);\r\n        require(now < ICOdeadLine);\r\n\r\n        assert(msg.value >= 1 ether / 100);\r\n\r\n        if ((now > ICO.endDate) || (ICO.tokens == 0)) {\r\n            pauseInternal();\r\n            CrowdSaleFinished(crowdSaleStatus());\r\n\r\n            revert();\r\n        } else {\r\n            paymentManager(msg.sender, msg.value);\r\n        }\r\n    }\r\n}\r\n",
  "sourcePath": "C:\\Users\\854441\\Desktop\\Ariks\\smrt-contract\\contracts\\CryptologiQ.sol",
  "compiler": {
    "name": "solc",
    "version": "0.4.18+commit.9cf6e910.Emscripten.clang"
  },
  "schemaVersion": "1.0.1",
  "updatedAt": "2018-02-16T01:39:53.194Z"
}