{
  "contractName": "CryptologiqContract",
  "abi": [
    {
      "constant": true,
      "inputs": [],
      "name": "avaliableSupply",
      "outputs": [
        {
          "name": "",
          "type": "uint256"
        }
      ],
      "payable": false,
      "stateMutability": "view",
      "type": "function"
    },
    {
      "constant": true,
      "inputs": [],
      "name": "name",
      "outputs": [
        {
          "name": "",
          "type": "string"
        }
      ],
      "payable": false,
      "stateMutability": "view",
      "type": "function"
    },
    {
      "constant": false,
      "inputs": [
        {
          "name": "_spender",
          "type": "address"
        },
        {
          "name": "_value",
          "type": "uint256"
        }
      ],
      "name": "approve",
      "outputs": [
        {
          "name": "success",
          "type": "bool"
        }
      ],
      "payable": false,
      "stateMutability": "nonpayable",
      "type": "function"
    },
    {
      "constant": true,
      "inputs": [],
      "name": "totalSupply",
      "outputs": [
        {
          "name": "",
          "type": "uint256"
        }
      ],
      "payable": false,
      "stateMutability": "view",
      "type": "function"
    },
    {
      "constant": false,
      "inputs": [
        {
          "name": "_from",
          "type": "address"
        },
        {
          "name": "_to",
          "type": "address"
        },
        {
          "name": "_value",
          "type": "uint256"
        }
      ],
      "name": "transferFrom",
      "outputs": [
        {
          "name": "success",
          "type": "bool"
        }
      ],
      "payable": false,
      "stateMutability": "nonpayable",
      "type": "function"
    },
    {
      "constant": true,
      "inputs": [],
      "name": "ICO",
      "outputs": [
        {
          "name": "tokens",
          "type": "uint256"
        },
        {
          "name": "startDate",
          "type": "uint256"
        },
        {
          "name": "endDate",
          "type": "uint256"
        },
        {
          "name": "discount",
          "type": "uint8"
        },
        {
          "name": "discountFirstDayICO",
          "type": "uint8"
        }
      ],
      "payable": false,
      "stateMutability": "view",
      "type": "function"
    },
    {
      "constant": false,
      "inputs": [
        {
          "name": "_to",
          "type": "address"
        },
        {
          "name": "amount",
          "type": "uint256"
        }
      ],
      "name": "transferEthFromContract",
      "outputs": [],
      "payable": false,
      "stateMutability": "nonpayable",
      "type": "function"
    },
    {
      "constant": true,
      "inputs": [],
      "name": "decimals",
      "outputs": [
        {
          "name": "",
          "type": "uint256"
        }
      ],
      "payable": false,
      "stateMutability": "view",
      "type": "function"
    },
    {
      "constant": false,
      "inputs": [],
      "name": "unpause",
      "outputs": [],
      "payable": false,
      "stateMutability": "nonpayable",
      "type": "function"
    },
    {
      "constant": false,
      "inputs": [
        {
          "name": "_value",
          "type": "uint256"
        }
      ],
      "name": "burn",
      "outputs": [
        {
          "name": "success",
          "type": "bool"
        }
      ],
      "payable": false,
      "stateMutability": "nonpayable",
      "type": "function"
    },
    {
      "constant": false,
      "inputs": [
        {
          "name": "_tokens",
          "type": "uint256"
        },
        {
          "name": "_startDate",
          "type": "uint256"
        },
        {
          "name": "_endDate",
          "type": "uint256"
        },
        {
          "name": "_discount",
          "type": "uint8"
        },
        {
          "name": "_discountFirstDayICO",
          "type": "uint8"
        }
      ],
      "name": "startCrowd",
      "outputs": [],
      "payable": false,
      "stateMutability": "nonpayable",
      "type": "function"
    },
    {
      "constant": true,
      "inputs": [],
      "name": "paused",
      "outputs": [
        {
          "name": "",
          "type": "bool"
        }
      ],
      "payable": false,
      "stateMutability": "view",
      "type": "function"
    },
    {
      "constant": false,
      "inputs": [
        {
          "name": "_spender",
          "type": "address"
        },
        {
          "name": "_subtractedValue",
          "type": "uint256"
        }
      ],
      "name": "decreaseApproval",
      "outputs": [
        {
          "name": "success",
          "type": "bool"
        }
      ],
      "payable": false,
      "stateMutability": "nonpayable",
      "type": "function"
    },
    {
      "constant": true,
      "inputs": [
        {
          "name": "",
          "type": "address"
        }
      ],
      "name": "balanceOf",
      "outputs": [
        {
          "name": "",
          "type": "uint256"
        }
      ],
      "payable": false,
      "stateMutability": "view",
      "type": "function"
    },
    {
      "constant": false,
      "inputs": [
        {
          "name": "_from",
          "type": "address"
        },
        {
          "name": "_value",
          "type": "uint256"
        }
      ],
      "name": "burnFrom",
      "outputs": [
        {
          "name": "success",
          "type": "bool"
        }
      ],
      "payable": false,
      "stateMutability": "nonpayable",
      "type": "function"
    },
    {
      "constant": false,
      "inputs": [],
      "name": "pause",
      "outputs": [],
      "payable": false,
      "stateMutability": "nonpayable",
      "type": "function"
    },
    {
      "constant": true,
      "inputs": [],
      "name": "buyPrice",
      "outputs": [
        {
          "name": "",
          "type": "uint256"
        }
      ],
      "payable": false,
      "stateMutability": "view",
      "type": "function"
    },
    {
      "constant": true,
      "inputs": [],
      "name": "symbol",
      "outputs": [
        {
          "name": "",
          "type": "string"
        }
      ],
      "payable": false,
      "stateMutability": "view",
      "type": "function"
    },
    {
      "constant": false,
      "inputs": [
        {
          "name": "_numerator",
          "type": "uint256"
        },
        {
          "name": "_denominator",
          "type": "uint256"
        }
      ],
      "name": "changeRate",
      "outputs": [
        {
          "name": "success",
          "type": "bool"
        }
      ],
      "payable": false,
      "stateMutability": "nonpayable",
      "type": "function"
    },
    {
      "constant": false,
      "inputs": [
        {
          "name": "_to",
          "type": "address"
        },
        {
          "name": "_value",
          "type": "uint256"
        }
      ],
      "name": "transfer",
      "outputs": [],
      "payable": false,
      "stateMutability": "nonpayable",
      "type": "function"
    },
    {
      "constant": true,
      "inputs": [],
      "name": "stage",
      "outputs": [
        {
          "name": "",
          "type": "uint256"
        }
      ],
      "payable": false,
      "stateMutability": "view",
      "type": "function"
    },
    {
      "constant": true,
      "inputs": [],
      "name": "startIcoDate",
      "outputs": [
        {
          "name": "",
          "type": "uint256"
        }
      ],
      "payable": false,
      "stateMutability": "view",
      "type": "function"
    },
    {
      "constant": false,
      "inputs": [
        {
          "name": "_spender",
          "type": "address"
        },
        {
          "name": "_value",
          "type": "uint256"
        },
        {
          "name": "_extraData",
          "type": "bytes"
        }
      ],
      "name": "approveAndCall",
      "outputs": [
        {
          "name": "success",
          "type": "bool"
        }
      ],
      "payable": false,
      "stateMutability": "nonpayable",
      "type": "function"
    },
    {
      "constant": false,
      "inputs": [
        {
          "name": "_to",
          "type": "address"
        },
        {
          "name": "_value",
          "type": "uint256"
        }
      ],
      "name": "transferTokensFromContract",
      "outputs": [],
      "payable": false,
      "stateMutability": "nonpayable",
      "type": "function"
    },
    {
      "constant": false,
      "inputs": [
        {
          "name": "_spender",
          "type": "address"
        },
        {
          "name": "_addedValue",
          "type": "uint256"
        }
      ],
      "name": "increaseApproval",
      "outputs": [
        {
          "name": "success",
          "type": "bool"
        }
      ],
      "payable": false,
      "stateMutability": "nonpayable",
      "type": "function"
    },
    {
      "constant": true,
      "inputs": [],
      "name": "weisRaised",
      "outputs": [
        {
          "name": "",
          "type": "uint256"
        }
      ],
      "payable": false,
      "stateMutability": "view",
      "type": "function"
    },
    {
      "constant": true,
      "inputs": [
        {
          "name": "",
          "type": "address"
        },
        {
          "name": "",
          "type": "address"
        }
      ],
      "name": "allowance",
      "outputs": [
        {
          "name": "",
          "type": "uint256"
        }
      ],
      "payable": false,
      "stateMutability": "view",
      "type": "function"
    },
    {
      "constant": false,
      "inputs": [
        {
          "name": "_discount",
          "type": "uint8"
        }
      ],
      "name": "changeDiscount",
      "outputs": [
        {
          "name": "",
          "type": "bool"
        }
      ],
      "payable": false,
      "stateMutability": "nonpayable",
      "type": "function"
    },
    {
      "constant": false,
      "inputs": [
        {
          "name": "_investor",
          "type": "address"
        },
        {
          "name": "_amount",
          "type": "uint256"
        }
      ],
      "name": "transferWeb3js",
      "outputs": [],
      "payable": false,
      "stateMutability": "nonpayable",
      "type": "function"
    },
    {
      "constant": false,
      "inputs": [
        {
          "name": "newOwner",
          "type": "address"
        }
      ],
      "name": "transferOwnership",
      "outputs": [],
      "payable": false,
      "stateMutability": "nonpayable",
      "type": "function"
    },
    {
      "inputs": [],
      "payable": false,
      "stateMutability": "nonpayable",
      "type": "constructor"
    },
    {
      "payable": true,
      "stateMutability": "payable",
      "type": "fallback"
    },
    {
      "anonymous": false,
      "inputs": [
        {
          "indexed": false,
          "name": "info",
          "type": "string"
        }
      ],
      "name": "CrowdSaleFinished",
      "type": "event"
    },
    {
      "anonymous": false,
      "inputs": [],
      "name": "EPause",
      "type": "event"
    },
    {
      "anonymous": false,
      "inputs": [],
      "name": "EUnpause",
      "type": "event"
    },
    {
      "anonymous": false,
      "inputs": [
        {
          "indexed": true,
          "name": "from",
          "type": "address"
        },
        {
          "indexed": true,
          "name": "to",
          "type": "address"
        },
        {
          "indexed": false,
          "name": "value",
          "type": "uint256"
        }
      ],
      "name": "Transfer",
      "type": "event"
    },
    {
      "anonymous": false,
      "inputs": [
        {
          "indexed": true,
          "name": "from",
          "type": "address"
        },
        {
          "indexed": false,
          "name": "value",
          "type": "uint256"
        }
      ],
      "name": "Burn",
      "type": "event"
    },
    {
      "anonymous": false,
      "inputs": [
        {
          "indexed": true,
          "name": "_owner",
          "type": "address"
        },
        {
          "indexed": true,
          "name": "_spender",
          "type": "address"
        },
        {
          "indexed": false,
          "name": "_value",
          "type": "uint256"
        }
      ],
      "name": "Approval",
      "type": "event"
    },
    {
      "anonymous": false,
      "inputs": [
        {
          "indexed": true,
          "name": "previousOwner",
          "type": "address"
        },
        {
          "indexed": true,
          "name": "newOwner",
          "type": "address"
        }
      ],
      "name": "OwnershipTransferred",
      "type": "event"
    }
  ],
  "bytecode": "0x60606040526012600355600354600a0a600455670de0b6b3a76400006007556001600a60006101000a81548160ff0219169083151502179055506000600b556000600c5534156200004f57600080fd5b6329b927006040805190810160405280600b81526020017f43727970746f6c6f6769710000000000000000000000000000000000000000008152506040805190810160405280600581526020017f4c4f474951000000000000000000000000000000000000000000000000000000815250336000806101000a81548173ffffffffffffffffffffffffffffffffffffffff021916908373ffffffffffffffffffffffffffffffffffffffff1602179055506200012560045484620001f26401000000000262002888179091906401000000009004565b600581905550600554600860003073ffffffffffffffffffffffffffffffffffffffff1673ffffffffffffffffffffffffffffffffffffffff16815260200190815260200160002081905550600860003073ffffffffffffffffffffffffffffffffffffffff1673ffffffffffffffffffffffffffffffffffffffff168152602001908152602001600020546006819055508160019080519060200190620001cf92919062000228565b508060029080519060200190620001e892919062000228565b50505050620002d7565b600080828402905060008414806200021557508284828115156200021257fe5b04145b15156200021e57fe5b8091505092915050565b828054600181600116156101000203166002900490600052602060002090601f016020900481019282601f106200026b57805160ff19168380011785556200029c565b828001600101855582156200029c579182015b828111156200029b5782518255916020019190600101906200027e565b5b509050620002ab9190620002af565b5090565b620002d491905b80821115620002d0576000816000905550600101620002b6565b5090565b90565b61291680620002e76000396000f300606060405260043610610180576000357c0100000000000000000000000000000000000000000000000000000000900463ffffffff16806304a84938146102ca57806306fdde03146102f3578063095ea7b31461038157806318160ddd146103db57806323b872dd14610404578063273ba6bb1461047d57806331198d19146104ce578063313ce567146105105780633f4ba83a1461053957806342966c681461054e5780635bda1af0146105895780635c975abb146105d6578063661884631461060357806370a082311461065d57806379cc6790146106aa5780638456cb59146107045780638620410b1461071957806395d89b4114610742578063a883b0c4146107d0578063a9059cbb14610814578063c040e6b814610856578063c99d9ef71461087f578063cae9ca51146108a8578063d0973af814610945578063d73dd62314610987578063da5f838d146109e1578063dd62ed3e14610a0a578063ec993f3d14610a76578063ee67575f14610ab4578063f2fde38b14610af6575b67016345785d8a0000341015151561019457fe5b600e6001015442101515156101a857600080fd5b600e6002015442101515610262576101be610b2f565b7f85b8d86f52e6555fa7f5d8f5e1fe2dbca432512924156cc733ad10ba881c121c6101e7610b78565b6040518080602001828103825283818151815260200191508051906020019080838360005b8381101561022757808201518184015260208101905061020c565b50505050905090810190601f1680156102545780820380516001836020036101000a031916815260200191505b509250505060405180910390a15b600b54600014151561028657600b5442101561027d57600080fd5b6000600b819055505b60001515600a60009054906101000a900460ff16151514156102c8576102ac3334610cdd565b6102c134601254610d2890919063ffffffff16565b6012819055505b005b34156102d557600080fd5b6102dd610d46565b6040518082815260200191505060405180910390f35b34156102fe57600080fd5b610306610d4c565b6040518080602001828103825283818151815260200191508051906020019080838360005b8381101561034657808201518184015260208101905061032b565b50505050905090810190601f1680156103735780820380516001836020036101000a031916815260200191505b509250505060405180910390f35b341561038c57600080fd5b6103c1600480803573ffffffffffffffffffffffffffffffffffffffff16906020019091908035906020019091905050610dea565b604051808215151515815260200191505060405180910390f35b34156103e657600080fd5b6103ee610e77565b6040518082815260200191505060405180910390f35b341561040f57600080fd5b610463600480803573ffffffffffffffffffffffffffffffffffffffff1690602001909190803573ffffffffffffffffffffffffffffffffffffffff16906020019091908035906020019091905050610e7d565b604051808215151515815260200191505060405180910390f35b341561048857600080fd5b61049061102f565b604051808681526020018581526020018481526020018360ff1660ff1681526020018260ff1660ff1681526020019550505050505060405180910390f35b34156104d957600080fd5b61050e600480803573ffffffffffffffffffffffffffffffffffffffff1690602001909190803590602001909190505061106d565b005b341561051b57600080fd5b61052361110c565b6040518082815260200191505060405180910390f35b341561054457600080fd5b61054c611112565b005b341561055957600080fd5b61056f60048080359060200190919050506111b6565b604051808215151515815260200191505060405180910390f35b341561059457600080fd5b6105d4600480803590602001909190803590602001909190803590602001909190803560ff1690602001909190803560ff16906020019091905050611383565b005b34156105e157600080fd5b6105e96114bc565b604051808215151515815260200191505060405180910390f35b341561060e57600080fd5b610643600480803573ffffffffffffffffffffffffffffffffffffffff169060200190919080359060200190919050506114cf565b604051808215151515815260200191505060405180910390f35b341561066857600080fd5b610694600480803573ffffffffffffffffffffffffffffffffffffffff16906020019091905050611760565b6040518082815260200191505060405180910390f35b34156106b557600080fd5b6106ea600480803573ffffffffffffffffffffffffffffffffffffffff16906020019091908035906020019091905050611778565b604051808215151515815260200191505060405180910390f35b341561070f57600080fd5b610717611ae0565b005b341561072457600080fd5b61072c611b84565b6040518082815260200191505060405180910390f35b341561074d57600080fd5b610755611b8a565b6040518080602001828103825283818151815260200191508051906020019080838360005b8381101561079557808201518184015260208101905061077a565b50505050905090810190601f1680156107c25780820380516001836020036101000a031916815260200191505b509250505060405180910390f35b34156107db57600080fd5b6107fa6004808035906020019091908035906020019091905050611c28565b604051808215151515815260200191505060405180910390f35b341561081f57600080fd5b610854600480803573ffffffffffffffffffffffffffffffffffffffff16906020019091908035906020019091905050611cd8565b005b341561086157600080fd5b610869611ce7565b6040518082815260200191505060405180910390f35b341561088a57600080fd5b610892611ced565b6040518082815260200191505060405180910390f35b34156108b357600080fd5b61092b600480803573ffffffffffffffffffffffffffffffffffffffff1690602001909190803590602001909190803590602001908201803590602001908080601f01602080910402602001604051908101604052809392919081815260200183838082843782019150505050505091905050611cf3565b604051808215151515815260200191505060405180910390f35b341561095057600080fd5b610985600480803573ffffffffffffffffffffffffffffffffffffffff16906020019091908035906020019091905050611ecc565b005b341561099257600080fd5b6109c7600480803573ffffffffffffffffffffffffffffffffffffffff16906020019091908035906020019091905050611f51565b604051808215151515815260200191505060405180910390f35b34156109ec57600080fd5b6109f461214d565b6040518082815260200191505060405180910390f35b3415610a1557600080fd5b610a60600480803573ffffffffffffffffffffffffffffffffffffffff1690602001909190803573ffffffffffffffffffffffffffffffffffffffff16906020019091905050612153565b6040518082815260200191505060405180910390f35b3415610a8157600080fd5b610a9a600480803560ff16906020019091905050612178565b604051808215151515815260200191505060405180910390f35b3415610abf57600080fd5b610af4600480803573ffffffffffffffffffffffffffffffffffffffff16906020019091908035906020019091905050612292565b005b3415610b0157600080fd5b610b2d600480803573ffffffffffffffffffffffffffffffffffffffff169060200190919050506122fb565b005b6001600a60006101000a81548160ff0219169083151502179055507fd2ef4ae6592c2a8f5d1c602eaa8a0685727b41b23509703db861621a9614813a60405160405180910390a1565b610b806128d6565b600c5460011415610bc8576040805190810160405280600781526020017f5072652d49434f000000000000000000000000000000000000000000000000008152509050610cda565b600c5460021415610c10576040805190810160405280600f81526020017f49434f20666972737420737461676500000000000000000000000000000000008152509050610cda565b600c5460031415610c58576040805190810160405280601081526020017f49434f207365636f6e64207374616765000000000000000000000000000000008152509050610cda565b600c546004101515610ca1576040805190810160405280600d81526020017f66656174757265207374616765000000000000000000000000000000000000008152509050610cda565b6040805190810160405280601c81526020017f7468657265206973206e6f2073746167652061742070726573656e740000000081525090505b90565b610cf581600e6000015461245090919063ffffffff16565b600e60000181905550610d138160065461245090919063ffffffff16565b600681905550610d24308383612469565b5050565b6000808284019050838110151515610d3c57fe5b8091505092915050565b60065481565b60018054600181600116156101000203166002900480601f016020809104026020016040519081016040528092919081815260200182805460018160011615610100020316600290048015610de25780601f10610db757610100808354040283529160200191610de2565b820191906000526020600020905b815481529060010190602001808311610dc557829003601f168201915b505050505081565b600081600960003373ffffffffffffffffffffffffffffffffffffffff1673ffffffffffffffffffffffffffffffffffffffff16815260200190815260200160002060008573ffffffffffffffffffffffffffffffffffffffff1673ffffffffffffffffffffffffffffffffffffffff168152602001908152602001600020819055506001905092915050565b60055481565b6000600960008573ffffffffffffffffffffffffffffffffffffffff1673ffffffffffffffffffffffffffffffffffffffff16815260200190815260200160002060003373ffffffffffffffffffffffffffffffffffffffff1673ffffffffffffffffffffffffffffffffffffffff168152602001908152602001600020548211151515610f0a57600080fd5b610f9982600960008773ffffffffffffffffffffffffffffffffffffffff1673ffffffffffffffffffffffffffffffffffffffff16815260200190815260200160002060003373ffffffffffffffffffffffffffffffffffffffff1673ffffffffffffffffffffffffffffffffffffffff1681526020019081526020016000205461245090919063ffffffff16565b600960008673ffffffffffffffffffffffffffffffffffffffff1673ffffffffffffffffffffffffffffffffffffffff16815260200190815260200160002060003373ffffffffffffffffffffffffffffffffffffffff1673ffffffffffffffffffffffffffffffffffffffff16815260200190815260200160002081905550611024848484612469565b600190509392505050565b600e8060000154908060010154908060020154908060030160009054906101000a900460ff16908060030160019054906101000a900460ff16905085565b6000809054906101000a900473ffffffffffffffffffffffffffffffffffffffff1673ffffffffffffffffffffffffffffffffffffffff163373ffffffffffffffffffffffffffffffffffffffff161415156110c857600080fd5b8173ffffffffffffffffffffffffffffffffffffffff166108fc829081150290604051600060405180830381858888f19350505050151561110857600080fd5b5050565b60035481565b6000809054906101000a900473ffffffffffffffffffffffffffffffffffffffff1673ffffffffffffffffffffffffffffffffffffffff163373ffffffffffffffffffffffffffffffffffffffff1614151561116d57600080fd5b6000600a60006101000a81548160ff0219169083151502179055507f9b1d6b460eaa8350c2f15712231e94c803e08e072db0737a0efb84745848694060405160405180910390a1565b60008060009054906101000a900473ffffffffffffffffffffffffffffffffffffffff1673ffffffffffffffffffffffffffffffffffffffff163373ffffffffffffffffffffffffffffffffffffffff1614151561121357600080fd5b81600860003373ffffffffffffffffffffffffffffffffffffffff1673ffffffffffffffffffffffffffffffffffffffff168152602001908152602001600020541015151561126157600080fd5b6112b382600860003373ffffffffffffffffffffffffffffffffffffffff1673ffffffffffffffffffffffffffffffffffffffff1681526020019081526020016000205461245090919063ffffffff16565b600860003373ffffffffffffffffffffffffffffffffffffffff1673ffffffffffffffffffffffffffffffffffffffff1681526020019081526020016000208190555061130b8260055461245090919063ffffffff16565b6005819055506113268260065461245090919063ffffffff16565b6006819055503373ffffffffffffffffffffffffffffffffffffffff167fcc16f5dbb4873280815c1ee09dbd06736cffcc184412cf7a71a0fdb75d397ca5836040518082815260200191505060405180910390a260019050919050565b6000809054906101000a900473ffffffffffffffffffffffffffffffffffffffff1673ffffffffffffffffffffffffffffffffffffffff163373ffffffffffffffffffffffffffffffffffffffff161415156113de57600080fd5b6006546004548602111515156113f357600080fd5b60a06040519081016040528060045487028152602001858152602001620151808502860181526020018360ff1681526020018260ff16815250600e60008201518160000155602082015181600101556040820151816002015560608201518160030160006101000a81548160ff021916908360ff16021790555060808201518160030160016101000a81548160ff021916908360ff1602179055509050506114a76001600c54610d2890919063ffffffff16565b600c819055506114b561283f565b5050505050565b600a60009054906101000a900460ff1681565b600080600960003373ffffffffffffffffffffffffffffffffffffffff1673ffffffffffffffffffffffffffffffffffffffff16815260200190815260200160002060008573ffffffffffffffffffffffffffffffffffffffff1673ffffffffffffffffffffffffffffffffffffffff168152602001908152602001600020549050808311156115e0576000600960003373ffffffffffffffffffffffffffffffffffffffff1673ffffffffffffffffffffffffffffffffffffffff16815260200190815260200160002060008673ffffffffffffffffffffffffffffffffffffffff1673ffffffffffffffffffffffffffffffffffffffff16815260200190815260200160002081905550611674565b6115f3838261245090919063ffffffff16565b600960003373ffffffffffffffffffffffffffffffffffffffff1673ffffffffffffffffffffffffffffffffffffffff16815260200190815260200160002060008673ffffffffffffffffffffffffffffffffffffffff1673ffffffffffffffffffffffffffffffffffffffff168152602001908152602001600020819055505b8373ffffffffffffffffffffffffffffffffffffffff163373ffffffffffffffffffffffffffffffffffffffff167f8c5be1e5ebec7d5bd14f71427d1e84f3dd0314c0f7b2291e5b200ac8c7c3b925600960003373ffffffffffffffffffffffffffffffffffffffff1673ffffffffffffffffffffffffffffffffffffffff16815260200190815260200160002060008873ffffffffffffffffffffffffffffffffffffffff1673ffffffffffffffffffffffffffffffffffffffff168152602001908152602001600020546040518082815260200191505060405180910390a3600191505092915050565b60086020528060005260406000206000915090505481565b60008060009054906101000a900473ffffffffffffffffffffffffffffffffffffffff1673ffffffffffffffffffffffffffffffffffffffff163373ffffffffffffffffffffffffffffffffffffffff161415156117d557600080fd5b81600860008573ffffffffffffffffffffffffffffffffffffffff1673ffffffffffffffffffffffffffffffffffffffff168152602001908152602001600020541015151561182357600080fd5b600960008473ffffffffffffffffffffffffffffffffffffffff1673ffffffffffffffffffffffffffffffffffffffff16815260200190815260200160002060003373ffffffffffffffffffffffffffffffffffffffff1673ffffffffffffffffffffffffffffffffffffffff1681526020019081526020016000205482111515156118ae57600080fd5b61190082600860008673ffffffffffffffffffffffffffffffffffffffff1673ffffffffffffffffffffffffffffffffffffffff1681526020019081526020016000205461245090919063ffffffff16565b600860008573ffffffffffffffffffffffffffffffffffffffff1673ffffffffffffffffffffffffffffffffffffffff168152602001908152602001600020819055506119d282600960008673ffffffffffffffffffffffffffffffffffffffff1673ffffffffffffffffffffffffffffffffffffffff16815260200190815260200160002060003373ffffffffffffffffffffffffffffffffffffffff1673ffffffffffffffffffffffffffffffffffffffff1681526020019081526020016000205461245090919063ffffffff16565b600960008573ffffffffffffffffffffffffffffffffffffffff1673ffffffffffffffffffffffffffffffffffffffff16815260200190815260200160002060003373ffffffffffffffffffffffffffffffffffffffff1673ffffffffffffffffffffffffffffffffffffffff16815260200190815260200160002081905550611a678260055461245090919063ffffffff16565b600581905550611a828260065461245090919063ffffffff16565b6006819055508273ffffffffffffffffffffffffffffffffffffffff167fcc16f5dbb4873280815c1ee09dbd06736cffcc184412cf7a71a0fdb75d397ca5836040518082815260200191505060405180910390a26001905092915050565b6000809054906101000a900473ffffffffffffffffffffffffffffffffffffffff1673ffffffffffffffffffffffffffffffffffffffff163373ffffffffffffffffffffffffffffffffffffffff16141515611b3b57600080fd5b6001600a60006101000a81548160ff0219169083151502179055507fd2ef4ae6592c2a8f5d1c602eaa8a0685727b41b23509703db861621a9614813a60405160405180910390a1565b60075481565b60028054600181600116156101000203166002900480601f016020809104026020016040519081016040528092919081815260200182805460018160011615610100020316600290048015611c205780601f10611bf557610100808354040283529160200191611c20565b820191906000526020600020905b815481529060010190602001808311611c0357829003601f168201915b505050505081565b60008060009054906101000a900473ffffffffffffffffffffffffffffffffffffffff1673ffffffffffffffffffffffffffffffffffffffff163373ffffffffffffffffffffffffffffffffffffffff16141515611c8557600080fd5b6000831415611c9357600192505b6000821415611ca157600191505b611cc882611cba6004548661288890919063ffffffff16565b6128bb90919063ffffffff16565b6007819055506001905092915050565b611ce3338383612469565b5050565b600c5481565b600b5481565b6000806000809054906101000a900473ffffffffffffffffffffffffffffffffffffffff1673ffffffffffffffffffffffffffffffffffffffff163373ffffffffffffffffffffffffffffffffffffffff16141515611d5157600080fd5b849050611d5e8585610dea565b15611ec3578073ffffffffffffffffffffffffffffffffffffffff16638f4ffcb1338630876040518563ffffffff167c0100000000000000000000000000000000000000000000000000000000028152600401808573ffffffffffffffffffffffffffffffffffffffff1673ffffffffffffffffffffffffffffffffffffffff1681526020018481526020018373ffffffffffffffffffffffffffffffffffffffff1673ffffffffffffffffffffffffffffffffffffffff16815260200180602001828103825283818151815260200191508051906020019080838360005b83811015611e58578082015181840152602081019050611e3d565b50505050905090810190601f168015611e855780820380516001836020036101000a031916815260200191505b5095505050505050600060405180830381600087803b1515611ea657600080fd5b6102c65a03f11515611eb757600080fd5b50505060019150611ec4565b5b509392505050565b6000809054906101000a900473ffffffffffffffffffffffffffffffffffffffff1673ffffffffffffffffffffffffffffffffffffffff163373ffffffffffffffffffffffffffffffffffffffff16141515611f2757600080fd5b611f3c8160065461245090919063ffffffff16565b600681905550611f4d308383612469565b5050565b6000611fe282600960003373ffffffffffffffffffffffffffffffffffffffff1673ffffffffffffffffffffffffffffffffffffffff16815260200190815260200160002060008673ffffffffffffffffffffffffffffffffffffffff1673ffffffffffffffffffffffffffffffffffffffff16815260200190815260200160002054610d2890919063ffffffff16565b600960003373ffffffffffffffffffffffffffffffffffffffff1673ffffffffffffffffffffffffffffffffffffffff16815260200190815260200160002060008573ffffffffffffffffffffffffffffffffffffffff1673ffffffffffffffffffffffffffffffffffffffff168152602001908152602001600020819055508273ffffffffffffffffffffffffffffffffffffffff163373ffffffffffffffffffffffffffffffffffffffff167f8c5be1e5ebec7d5bd14f71427d1e84f3dd0314c0f7b2291e5b200ac8c7c3b925600960003373ffffffffffffffffffffffffffffffffffffffff1673ffffffffffffffffffffffffffffffffffffffff16815260200190815260200160002060008773ffffffffffffffffffffffffffffffffffffffff1673ffffffffffffffffffffffffffffffffffffffff168152602001908152602001600020546040518082815260200191505060405180910390a36001905092915050565b60125481565b6009602052816000526040600020602052806000526040600020600091509150505481565b60008060009054906101000a900473ffffffffffffffffffffffffffffffffffffffff1673ffffffffffffffffffffffffffffffffffffffff163373ffffffffffffffffffffffffffffffffffffffff161415156121d557600080fd5b60a060405190810160405280600e600001548152602001600e600101548152602001600e6002015481526020018360ff168152602001600e60030160019054906101000a900460ff1660ff16815250600e60008201518160000155602082015181600101556040820151816002015560608201518160030160006101000a81548160ff021916908360ff16021790555060808201518160030160016101000a81548160ff021916908360ff16021790555090505060019050919050565b6000809054906101000a900473ffffffffffffffffffffffffffffffffffffffff1673ffffffffffffffffffffffffffffffffffffffff163373ffffffffffffffffffffffffffffffffffffffff161415156122ed57600080fd5b6122f78282610cdd565b5050565b6000809054906101000a900473ffffffffffffffffffffffffffffffffffffffff1673ffffffffffffffffffffffffffffffffffffffff163373ffffffffffffffffffffffffffffffffffffffff1614151561235657600080fd5b600073ffffffffffffffffffffffffffffffffffffffff168173ffffffffffffffffffffffffffffffffffffffff161415151561239257600080fd5b8073ffffffffffffffffffffffffffffffffffffffff166000809054906101000a900473ffffffffffffffffffffffffffffffffffffffff1673ffffffffffffffffffffffffffffffffffffffff167f8be0079c531659141344cd1fd0a4f28419497f9722a3daafe3b4186f6b6457e060405160405180910390a3806000806101000a81548173ffffffffffffffffffffffffffffffffffffffff021916908373ffffffffffffffffffffffffffffffffffffffff16021790555050565b600082821115151561245e57fe5b818303905092915050565b6000808373ffffffffffffffffffffffffffffffffffffffff161415151561249057600080fd5b81600860008673ffffffffffffffffffffffffffffffffffffffff1673ffffffffffffffffffffffffffffffffffffffff16815260200190815260200160002054101515156124de57600080fd5b600860008473ffffffffffffffffffffffffffffffffffffffff1673ffffffffffffffffffffffffffffffffffffffff1681526020019081526020016000205461257083600860008773ffffffffffffffffffffffffffffffffffffffff1673ffffffffffffffffffffffffffffffffffffffff16815260200190815260200160002054610d2890919063ffffffff16565b11151561257c57600080fd5b61260d600860008573ffffffffffffffffffffffffffffffffffffffff1673ffffffffffffffffffffffffffffffffffffffff16815260200190815260200160002054600860008773ffffffffffffffffffffffffffffffffffffffff1673ffffffffffffffffffffffffffffffffffffffff16815260200190815260200160002054610d2890919063ffffffff16565b905061266182600860008773ffffffffffffffffffffffffffffffffffffffff1673ffffffffffffffffffffffffffffffffffffffff1681526020019081526020016000205461245090919063ffffffff16565b600860008673ffffffffffffffffffffffffffffffffffffffff1673ffffffffffffffffffffffffffffffffffffffff168152602001908152602001600020819055506126f682600860008673ffffffffffffffffffffffffffffffffffffffff1673ffffffffffffffffffffffffffffffffffffffff16815260200190815260200160002054610d2890919063ffffffff16565b600860008573ffffffffffffffffffffffffffffffffffffffff1673ffffffffffffffffffffffffffffffffffffffff168152602001908152602001600020819055508273ffffffffffffffffffffffffffffffffffffffff168473ffffffffffffffffffffffffffffffffffffffff167fddf252ad1be2c89b69c2b068fc378daa952ba7f163c4a11628f55a4df523b3ef846040518082815260200191505060405180910390a380612830600860008673ffffffffffffffffffffffffffffffffffffffff1673ffffffffffffffffffffffffffffffffffffffff16815260200190815260200160002054600860008873ffffffffffffffffffffffffffffffffffffffff1673ffffffffffffffffffffffffffffffffffffffff16815260200190815260200160002054610d2890919063ffffffff16565b14151561283957fe5b50505050565b6000600a60006101000a81548160ff0219169083151502179055507f9b1d6b460eaa8350c2f15712231e94c803e08e072db0737a0efb84745848694060405160405180910390a1565b600080828402905060008414806128a957508284828115156128a657fe5b04145b15156128b157fe5b8091505092915050565b60008082848115156128c957fe5b0490508091505092915050565b6020604051908101604052806000815250905600a165627a7a72305820e5b923b7a256e587eeaa4d21ec8d8543f684975114175f18a387ee9281e1c2050029",
  "source": "pragma solidity ^0.4.18;\n\nimport \"./ERC20Extending.sol\";\nimport \"./CryptologiqCrowdsale.sol\";\n\ncontract CryptologiqContract is ERC20Extending, CryptologiqCrowdsale\n{\n    using SafeMath for uint;\n\n    uint public weisRaised;  // how many weis was raised on crowdsale\n\n    /* Cryptologiq tokens Constructor */\n    function CryptologiqContract() public TokenERC20(700000000, \"Cryptologiq\", \"LOGIQ\") {} //change before send !!!\n\n    /**\n    * Function payments handler\n    *\n    */\n    function () public payable\n    {\n        assert(msg.value >= 1 ether / 10);\n        require(now >= ICO.startDate);\n\n        if (now >= ICO.endDate) {\n            pauseInternal();\n            CrowdSaleFinished(crowdSaleStatus());\n        }\n\n\n        if (0 != startIcoDate) {\n            if (now < startIcoDate) {\n                revert();\n            } else {\n                startIcoDate = 0;\n            }\n        }\n\n        if (paused == false) {\n            sell(msg.sender, msg.value);\n            weisRaised = weisRaised.add(msg.value);\n        }\n    }\n}\n",
  "sourcePath": "C:\\Users\\854441\\Desktop\\smrt-contract\\contracts\\CryptologiqContract.sol",
  "compiler": {
    "name": "solc",
    "version": "0.4.18+commit.9cf6e910.Emscripten.clang"
  },
  "schemaVersion": "1.0.1",
  "updatedAt": "2018-01-30T23:46:42.884Z"
}