{
  "contractName": "CryptologiqCrowdsale",
  "abi": [
    {
      "constant": true,
      "inputs": [],
      "name": "refundIsAvailable",
      "outputs": [
        {
          "name": "",
          "type": "bool"
        }
      ],
      "payable": false,
      "stateMutability": "view",
      "type": "function"
    },
    {
      "constant": true,
      "inputs": [],
      "name": "name",
      "outputs": [
        {
          "name": "",
          "type": "string"
        }
      ],
      "payable": false,
      "stateMutability": "view",
      "type": "function"
    },
    {
      "constant": false,
      "inputs": [
        {
          "name": "_spender",
          "type": "address"
        },
        {
          "name": "_value",
          "type": "uint256"
        }
      ],
      "name": "approve",
      "outputs": [
        {
          "name": "",
          "type": "bool"
        }
      ],
      "payable": false,
      "stateMutability": "nonpayable",
      "type": "function"
    },
    {
      "constant": true,
      "inputs": [],
      "name": "totalSupply",
      "outputs": [
        {
          "name": "",
          "type": "uint256"
        }
      ],
      "payable": false,
      "stateMutability": "view",
      "type": "function"
    },
    {
      "constant": false,
      "inputs": [
        {
          "name": "_from",
          "type": "address"
        },
        {
          "name": "_to",
          "type": "address"
        },
        {
          "name": "_value",
          "type": "uint256"
        }
      ],
      "name": "transferFrom",
      "outputs": [
        {
          "name": "",
          "type": "bool"
        }
      ],
      "payable": false,
      "stateMutability": "nonpayable",
      "type": "function"
    },
    {
      "constant": true,
      "inputs": [],
      "name": "ICO",
      "outputs": [
        {
          "name": "tokens",
          "type": "uint256"
        },
        {
          "name": "startDate",
          "type": "uint256"
        },
        {
          "name": "endDate",
          "type": "uint256"
        },
        {
          "name": "discount",
          "type": "uint8"
        },
        {
          "name": "discountFirstDayICO",
          "type": "uint8"
        }
      ],
      "payable": false,
      "stateMutability": "view",
      "type": "function"
    },
    {
      "constant": true,
      "inputs": [],
      "name": "decimals",
      "outputs": [
        {
          "name": "",
          "type": "uint8"
        }
      ],
      "payable": false,
      "stateMutability": "view",
      "type": "function"
    },
    {
      "constant": false,
      "inputs": [],
      "name": "unpause",
      "outputs": [],
      "payable": false,
      "stateMutability": "nonpayable",
      "type": "function"
    },
    {
      "constant": true,
      "inputs": [],
      "name": "tokensSold",
      "outputs": [
        {
          "name": "",
          "type": "uint256"
        }
      ],
      "payable": false,
      "stateMutability": "view",
      "type": "function"
    },
    {
      "constant": false,
      "inputs": [
        {
          "name": "target",
          "type": "address"
        }
      ],
      "name": "unFreezeAccount",
      "outputs": [],
      "payable": false,
      "stateMutability": "nonpayable",
      "type": "function"
    },
    {
      "constant": false,
      "inputs": [],
      "name": "getMyRefund",
      "outputs": [],
      "payable": false,
      "stateMutability": "nonpayable",
      "type": "function"
    },
    {
      "constant": false,
      "inputs": [
        {
          "name": "_tokens",
          "type": "uint256"
        },
        {
          "name": "_startDate",
          "type": "uint256"
        },
        {
          "name": "_endDate",
          "type": "uint256"
        },
        {
          "name": "_discount",
          "type": "uint8"
        },
        {
          "name": "_discountFirstDayICO",
          "type": "uint8"
        }
      ],
      "name": "startCrowd",
      "outputs": [],
      "payable": false,
      "stateMutability": "nonpayable",
      "type": "function"
    },
    {
      "constant": true,
      "inputs": [],
      "name": "paused",
      "outputs": [
        {
          "name": "",
          "type": "bool"
        }
      ],
      "payable": false,
      "stateMutability": "view",
      "type": "function"
    },
    {
      "constant": false,
      "inputs": [
        {
          "name": "_spender",
          "type": "address"
        },
        {
          "name": "_subtractedValue",
          "type": "uint256"
        }
      ],
      "name": "decreaseApproval",
      "outputs": [
        {
          "name": "success",
          "type": "bool"
        }
      ],
      "payable": false,
      "stateMutability": "nonpayable",
      "type": "function"
    },
    {
      "constant": false,
      "inputs": [],
      "name": "burnAfterICO",
      "outputs": [],
      "payable": false,
      "stateMutability": "nonpayable",
      "type": "function"
    },
    {
      "constant": true,
      "inputs": [],
      "name": "softcapReached",
      "outputs": [
        {
          "name": "",
          "type": "bool"
        }
      ],
      "payable": false,
      "stateMutability": "view",
      "type": "function"
    },
    {
      "constant": true,
      "inputs": [
        {
          "name": "_owner",
          "type": "address"
        }
      ],
      "name": "balanceOf",
      "outputs": [
        {
          "name": "balance",
          "type": "uint256"
        }
      ],
      "payable": false,
      "stateMutability": "view",
      "type": "function"
    },
    {
      "constant": true,
      "inputs": [],
      "name": "burned",
      "outputs": [
        {
          "name": "",
          "type": "bool"
        }
      ],
      "payable": false,
      "stateMutability": "view",
      "type": "function"
    },
    {
      "constant": false,
      "inputs": [],
      "name": "pause",
      "outputs": [],
      "payable": false,
      "stateMutability": "nonpayable",
      "type": "function"
    },
    {
      "constant": true,
      "inputs": [],
      "name": "buyPrice",
      "outputs": [
        {
          "name": "",
          "type": "uint256"
        }
      ],
      "payable": false,
      "stateMutability": "view",
      "type": "function"
    },
    {
      "constant": false,
      "inputs": [],
      "name": "enableRefund",
      "outputs": [],
      "payable": false,
      "stateMutability": "nonpayable",
      "type": "function"
    },
    {
      "constant": true,
      "inputs": [],
      "name": "owner",
      "outputs": [
        {
          "name": "",
          "type": "address"
        }
      ],
      "payable": false,
      "stateMutability": "view",
      "type": "function"
    },
    {
      "constant": true,
      "inputs": [],
      "name": "symbol",
      "outputs": [
        {
          "name": "",
          "type": "string"
        }
      ],
      "payable": false,
      "stateMutability": "view",
      "type": "function"
    },
    {
      "constant": false,
      "inputs": [
        {
          "name": "_numerator",
          "type": "uint256"
        },
        {
          "name": "_denominator",
          "type": "uint256"
        }
      ],
      "name": "changeRate",
      "outputs": [
        {
          "name": "success",
          "type": "bool"
        }
      ],
      "payable": false,
      "stateMutability": "nonpayable",
      "type": "function"
    },
    {
      "constant": false,
      "inputs": [
        {
          "name": "_to",
          "type": "address"
        },
        {
          "name": "_value",
          "type": "uint256"
        }
      ],
      "name": "transfer",
      "outputs": [
        {
          "name": "",
          "type": "bool"
        }
      ],
      "payable": false,
      "stateMutability": "nonpayable",
      "type": "function"
    },
    {
      "constant": true,
      "inputs": [],
      "name": "ICOdeadLine",
      "outputs": [
        {
          "name": "",
          "type": "uint256"
        }
      ],
      "payable": false,
      "stateMutability": "view",
      "type": "function"
    },
    {
      "constant": true,
      "inputs": [],
      "name": "hardcap",
      "outputs": [
        {
          "name": "",
          "type": "uint256"
        }
      ],
      "payable": false,
      "stateMutability": "view",
      "type": "function"
    },
    {
      "constant": true,
      "inputs": [],
      "name": "isPaused",
      "outputs": [
        {
          "name": "",
          "type": "bool"
        }
      ],
      "payable": false,
      "stateMutability": "view",
      "type": "function"
    },
    {
      "constant": true,
      "inputs": [],
      "name": "stage",
      "outputs": [
        {
          "name": "",
          "type": "uint256"
        }
      ],
      "payable": false,
      "stateMutability": "view",
      "type": "function"
    },
    {
      "constant": true,
      "inputs": [
        {
          "name": "",
          "type": "address"
        }
      ],
      "name": "deposited",
      "outputs": [
        {
          "name": "",
          "type": "uint256"
        }
      ],
      "payable": false,
      "stateMutability": "view",
      "type": "function"
    },
    {
      "constant": true,
      "inputs": [
        {
          "name": "_target",
          "type": "address"
        }
      ],
      "name": "frozen",
      "outputs": [
        {
          "name": "",
          "type": "bool"
        }
      ],
      "payable": false,
      "stateMutability": "view",
      "type": "function"
    },
    {
      "constant": false,
      "inputs": [
        {
          "name": "_to",
          "type": "address"
        },
        {
          "name": "_value",
          "type": "uint256"
        }
      ],
      "name": "transferTokensFromContract",
      "outputs": [],
      "payable": false,
      "stateMutability": "nonpayable",
      "type": "function"
    },
    {
      "constant": false,
      "inputs": [
        {
          "name": "_spender",
          "type": "address"
        },
        {
          "name": "_addedValue",
          "type": "uint256"
        }
      ],
      "name": "increaseApproval",
      "outputs": [
        {
          "name": "success",
          "type": "bool"
        }
      ],
      "payable": false,
      "stateMutability": "nonpayable",
      "type": "function"
    },
    {
      "constant": true,
      "inputs": [],
      "name": "weisRaised",
      "outputs": [
        {
          "name": "",
          "type": "uint256"
        }
      ],
      "payable": false,
      "stateMutability": "view",
      "type": "function"
    },
    {
      "constant": true,
      "inputs": [
        {
          "name": "_owner",
          "type": "address"
        },
        {
          "name": "_spender",
          "type": "address"
        }
      ],
      "name": "allowance",
      "outputs": [
        {
          "name": "",
          "type": "uint256"
        }
      ],
      "payable": false,
      "stateMutability": "view",
      "type": "function"
    },
    {
      "constant": false,
      "inputs": [
        {
          "name": "_discount",
          "type": "uint8"
        }
      ],
      "name": "changeDiscount",
      "outputs": [
        {
          "name": "",
          "type": "bool"
        }
      ],
      "payable": false,
      "stateMutability": "nonpayable",
      "type": "function"
    },
    {
      "constant": false,
      "inputs": [
        {
          "name": "_investor",
          "type": "address"
        },
        {
          "name": "_amount",
          "type": "uint256"
        }
      ],
      "name": "transferWeb3js",
      "outputs": [],
      "payable": false,
      "stateMutability": "nonpayable",
      "type": "function"
    },
    {
      "constant": false,
      "inputs": [
        {
          "name": "target",
          "type": "address"
        }
      ],
      "name": "freezeAccount",
      "outputs": [],
      "payable": false,
      "stateMutability": "nonpayable",
      "type": "function"
    },
    {
      "constant": false,
      "inputs": [
        {
          "name": "newOwner",
          "type": "address"
        }
      ],
      "name": "transferOwnership",
      "outputs": [],
      "payable": false,
      "stateMutability": "nonpayable",
      "type": "function"
    },
    {
      "constant": true,
      "inputs": [],
      "name": "softcap",
      "outputs": [
        {
          "name": "",
          "type": "uint256"
        }
      ],
      "payable": false,
      "stateMutability": "view",
      "type": "function"
    },
    {
      "anonymous": false,
      "inputs": [],
      "name": "SoftcapReached",
      "type": "event"
    },
    {
      "anonymous": false,
      "inputs": [],
      "name": "HardcapReached",
      "type": "event"
    },
    {
      "anonymous": false,
      "inputs": [],
      "name": "RefundsEnabled",
      "type": "event"
    },
    {
      "anonymous": false,
      "inputs": [
        {
          "indexed": true,
          "name": "beneficiary",
          "type": "address"
        },
        {
          "indexed": false,
          "name": "weiAmount",
          "type": "uint256"
        }
      ],
      "name": "Refunded",
      "type": "event"
    },
    {
      "anonymous": false,
      "inputs": [
        {
          "indexed": false,
          "name": "info",
          "type": "string"
        }
      ],
      "name": "CrowdSaleFinished",
      "type": "event"
    },
    {
      "anonymous": false,
      "inputs": [
        {
          "indexed": true,
          "name": "burner",
          "type": "address"
        },
        {
          "indexed": false,
          "name": "amount",
          "type": "uint256"
        }
      ],
      "name": "Burned",
      "type": "event"
    },
    {
      "anonymous": false,
      "inputs": [],
      "name": "EPause",
      "type": "event"
    },
    {
      "anonymous": false,
      "inputs": [],
      "name": "EUnpause",
      "type": "event"
    },
    {
      "anonymous": false,
      "inputs": [
        {
          "indexed": false,
          "name": "target",
          "type": "address"
        },
        {
          "indexed": false,
          "name": "frozen",
          "type": "bool"
        }
      ],
      "name": "FrozenFunds",
      "type": "event"
    },
    {
      "anonymous": false,
      "inputs": [
        {
          "indexed": true,
          "name": "previousOwner",
          "type": "address"
        },
        {
          "indexed": true,
          "name": "newOwner",
          "type": "address"
        }
      ],
      "name": "OwnershipTransferred",
      "type": "event"
    },
    {
      "anonymous": false,
      "inputs": [
        {
          "indexed": true,
          "name": "owner",
          "type": "address"
        },
        {
          "indexed": true,
          "name": "spender",
          "type": "address"
        },
        {
          "indexed": false,
          "name": "value",
          "type": "uint256"
        }
      ],
      "name": "Approval",
      "type": "event"
    },
    {
      "anonymous": false,
      "inputs": [
        {
          "indexed": true,
          "name": "from",
          "type": "address"
        },
        {
          "indexed": true,
          "name": "to",
          "type": "address"
        },
        {
          "indexed": false,
          "name": "value",
          "type": "uint256"
        }
      ],
      "name": "Transfer",
      "type": "event"
    }
  ],
  "bytecode": "0x60606040526012600260006101000a81548160ff021916908360ff1602179055506b024306c4097859c43c0000006003556001600660006101000a81548160ff021916908315150217905550600260009054906101000a900460ff1660ff16600a0a600755670de0b6b3a764000060085560006009556000600a556000600b55635b37ef50600c55336000806101000a81548173ffffffffffffffffffffffffffffffffffffffff021916908373ffffffffffffffffffffffffffffffffffffffff160217905550612c36806100d66000396000f3006060604052600436106101ee576000357c0100000000000000000000000000000000000000000000000000000000900463ffffffff168063061303a7146101f357806306fdde0314610220578063095ea7b3146102ae57806318160ddd1461030857806323b872dd14610331578063273ba6bb146103aa578063313ce567146103fb5780633f4ba83a1461042a578063518ab2a81461043f57806353cc2fae146104685780635546e1ab146104a15780635bda1af0146104b65780635c975abb1461050357806366188463146105305780636beabed41461058a5780636eb219291461059f57806370a08231146105cc57806373f42561146106195780638456cb59146106465780638620410b1461065b57806389e42346146106845780638da5cb5b1461069957806395d89b41146106ee578063a883b0c41461077c578063a9059cbb146107c0578063ae8146381461081a578063b071cbe614610843578063b187bd261461086c578063c040e6b814610899578063cb13cddb146108c2578063d05166501461090f578063d0973af814610960578063d73dd623146109a2578063da5f838d146109fc578063dd62ed3e14610a25578063ec993f3d14610a91578063ee67575f14610acf578063f26c159f14610b11578063f2fde38b14610b4a578063f89be59314610b83575b600080fd5b34156101fe57600080fd5b610206610bac565b604051808215151515815260200191505060405180910390f35b341561022b57600080fd5b610233610bbf565b6040518080602001828103825283818151815260200191508051906020019080838360005b83811015610273578082015181840152602081019050610258565b50505050905090810190601f1680156102a05780820380516001836020036101000a031916815260200191505b509250505060405180910390f35b34156102b957600080fd5b6102ee600480803573ffffffffffffffffffffffffffffffffffffffff16906020019091908035906020019091905050610bf8565b604051808215151515815260200191505060405180910390f35b341561031357600080fd5b61031b610c28565b6040518082815260200191505060405180910390f35b341561033c57600080fd5b610390600480803573ffffffffffffffffffffffffffffffffffffffff1690602001909190803573ffffffffffffffffffffffffffffffffffffffff16906020019091908035906020019091905050610c32565b604051808215151515815260200191505060405180910390f35b34156103b557600080fd5b6103bd610c64565b604051808681526020018581526020018481526020018360ff1660ff1681526020018260ff1660ff1681526020019550505050505060405180910390f35b341561040657600080fd5b61040e610ca2565b604051808260ff1660ff16815260200191505060405180910390f35b341561043557600080fd5b61043d610cb5565b005b341561044a57600080fd5b610452610d59565b6040518082815260200191505060405180910390f35b341561047357600080fd5b61049f600480803573ffffffffffffffffffffffffffffffffffffffff16906020019091905050610d5f565b005b34156104ac57600080fd5b6104b4610e85565b005b34156104c157600080fd5b610501600480803590602001909190803590602001909190803590602001909190803560ff1690602001909190803560ff16906020019091905050611018565b005b341561050e57600080fd5b61051661118e565b604051808215151515815260200191505060405180910390f35b341561053b57600080fd5b610570600480803573ffffffffffffffffffffffffffffffffffffffff169060200190919080359060200190919050506111a1565b604051808215151515815260200191505060405180910390f35b341561059557600080fd5b61059d6111d1565b005b34156105aa57600080fd5b6105b26113db565b604051808215151515815260200191505060405180910390f35b34156105d757600080fd5b610603600480803573ffffffffffffffffffffffffffffffffffffffff169060200190919050506113ee565b6040518082815260200191505060405180910390f35b341561062457600080fd5b61062c611437565b604051808215151515815260200191505060405180910390f35b341561065157600080fd5b61065961144a565b005b341561066657600080fd5b61066e6114ee565b6040518082815260200191505060405180910390f35b341561068f57600080fd5b6106976114f4565b005b34156106a457600080fd5b6106ac611569565b604051808273ffffffffffffffffffffffffffffffffffffffff1673ffffffffffffffffffffffffffffffffffffffff16815260200191505060405180910390f35b34156106f957600080fd5b61070161158e565b6040518080602001828103825283818151815260200191508051906020019080838360005b83811015610741578082015181840152602081019050610726565b50505050905090810190601f16801561076e5780820380516001836020036101000a031916815260200191505b509250505060405180910390f35b341561078757600080fd5b6107a660048080359060200190919080359060200190919050506115c7565b604051808215151515815260200191505060405180910390f35b34156107cb57600080fd5b610800600480803573ffffffffffffffffffffffffffffffffffffffff16906020019091908035906020019091905050611677565b604051808215151515815260200191505060405180910390f35b341561082557600080fd5b61082d6116a7565b6040518082815260200191505060405180910390f35b341561084e57600080fd5b6108566116ad565b6040518082815260200191505060405180910390f35b341561087757600080fd5b61087f6116bd565b604051808215151515815260200191505060405180910390f35b34156108a457600080fd5b6108ac6116d4565b6040518082815260200191505060405180910390f35b34156108cd57600080fd5b6108f9600480803573ffffffffffffffffffffffffffffffffffffffff169060200190919050506116da565b6040518082815260200191505060405180910390f35b341561091a57600080fd5b610946600480803573ffffffffffffffffffffffffffffffffffffffff169060200190919050506116f2565b604051808215151515815260200191505060405180910390f35b341561096b57600080fd5b6109a0600480803573ffffffffffffffffffffffffffffffffffffffff16906020019091908035906020019091905050611748565b005b34156109ad57600080fd5b6109e2600480803573ffffffffffffffffffffffffffffffffffffffff16906020019091908035906020019091905050611868565b604051808215151515815260200191505060405180910390f35b3415610a0757600080fd5b610a0f611898565b6040518082815260200191505060405180910390f35b3415610a3057600080fd5b610a7b600480803573ffffffffffffffffffffffffffffffffffffffff1690602001909190803573ffffffffffffffffffffffffffffffffffffffff1690602001909190505061189e565b6040518082815260200191505060405180910390f35b3415610a9c57600080fd5b610ab5600480803560ff16906020019091905050611925565b604051808215151515815260200191505060405180910390f35b3415610ada57600080fd5b610b0f600480803573ffffffffffffffffffffffffffffffffffffffff16906020019091908035906020019091905050611a3f565b005b3415610b1c57600080fd5b610b48600480803573ffffffffffffffffffffffffffffffffffffffff16906020019091905050611aa8565b005b3415610b5557600080fd5b610b81600480803573ffffffffffffffffffffffffffffffffffffffff16906020019091905050611bcd565b005b3415610b8e57600080fd5b610b96611d22565b6040518082815260200191505060405180910390f35b600e60019054906101000a900460ff1681565b6040805190810160405280600b81526020017f43727970746f6c6f67695100000000000000000000000000000000000000000081525081565b6000600660009054906101000a900460ff16151515610c1657600080fd5b610c208383611d31565b905092915050565b6000600354905090565b6000600660009054906101000a900460ff16151515610c5057600080fd5b610c5b848484611e23565b90509392505050565b600f8060000154908060010154908060020154908060030160009054906101000a900460ff16908060030160019054906101000a900460ff16905085565b600260009054906101000a900460ff1681565b6000809054906101000a900473ffffffffffffffffffffffffffffffffffffffff1673ffffffffffffffffffffffffffffffffffffffff163373ffffffffffffffffffffffffffffffffffffffff16141515610d1057600080fd5b6000600660006101000a81548160ff0219169083151502179055507f9b1d6b460eaa8350c2f15712231e94c803e08e072db0737a0efb84745848694060405160405180910390a1565b600b5481565b6000809054906101000a900473ffffffffffffffffffffffffffffffffffffffff1673ffffffffffffffffffffffffffffffffffffffff163373ffffffffffffffffffffffffffffffffffffffff16141515610dba57600080fd5b6000600160008373ffffffffffffffffffffffffffffffffffffffff1673ffffffffffffffffffffffffffffffffffffffff16815260200190815260200160002060006101000a81548160ff0219169083151502179055507f48335238b4855f35377ed80f164e8c6f3c366e54ac00b96a6402d4a9814a03a5816000604051808373ffffffffffffffffffffffffffffffffffffffff1673ffffffffffffffffffffffffffffffffffffffff168152602001821515151581526020019250505060405180910390a150565b6000600c5442111515610e9757600080fd5b600e60019054906101000a900460ff161515610eb257600080fd5b6000600d60003373ffffffffffffffffffffffffffffffffffffffff1673ffffffffffffffffffffffffffffffffffffffff16815260200190815260200160002054111515610f0057600080fd5b600d60003373ffffffffffffffffffffffffffffffffffffffff1673ffffffffffffffffffffffffffffffffffffffff1681526020019081526020016000205490506000600d60003373ffffffffffffffffffffffffffffffffffffffff1673ffffffffffffffffffffffffffffffffffffffff168152602001908152602001600020819055503373ffffffffffffffffffffffffffffffffffffffff166108fc829081150290604051600060405180830381858888f193505050501515610fc757600080fd5b3373ffffffffffffffffffffffffffffffffffffffff167fd7dee2702d63ad89917b6a4da9981c90c4d24f8c2bdfd64c604ecae57d8d0651826040518082815260200191505060405180910390a250565b6000809054906101000a900473ffffffffffffffffffffffffffffffffffffffff1673ffffffffffffffffffffffffffffffffffffffff163373ffffffffffffffffffffffffffffffffffffffff1614151561107357600080fd5b600460003073ffffffffffffffffffffffffffffffffffffffff1673ffffffffffffffffffffffffffffffffffffffff168152602001908152602001600020546007548602111515156110c557600080fd5b60a06040519081016040528060075487028152602001858152602001620151808502860181526020018360ff1681526020018260ff16815250600f60008201518160000155602082015181600101556040820151816002015560608201518160030160006101000a81548160ff021916908360ff16021790555060808201518160030160016101000a81548160ff021916908360ff160217905550905050611179600160095461229590919063ffffffff16565b6009819055506111876122b3565b5050505050565b600660009054906101000a900460ff1681565b6000600660009054906101000a900460ff161515156111bf57600080fd5b6111c983836122fc565b905092915050565b6000600c54421115156111e357600080fd5b600e60029054906101000a900460ff161515156111ff57600080fd5b339050611256600460003073ffffffffffffffffffffffffffffffffffffffff1673ffffffffffffffffffffffffffffffffffffffff1681526020019081526020016000205460035461258d90919063ffffffff16565b6003819055506112ed600460003073ffffffffffffffffffffffffffffffffffffffff1673ffffffffffffffffffffffffffffffffffffffff16815260200190815260200160002054600460003073ffffffffffffffffffffffffffffffffffffffff1673ffffffffffffffffffffffffffffffffffffffff1681526020019081526020016000205461258d90919063ffffffff16565b600460003073ffffffffffffffffffffffffffffffffffffffff1673ffffffffffffffffffffffffffffffffffffffff168152602001908152602001600020819055506001600e60026101000a81548160ff0219169083151502179055508073ffffffffffffffffffffffffffffffffffffffff167f696de425f79f4a40bc6d2122ca50507f0efbeabbff86a84871b7196ab8ea8df7600460003073ffffffffffffffffffffffffffffffffffffffff1673ffffffffffffffffffffffffffffffffffffffff168152602001908152602001600020546040518082815260200191505060405180910390a250565b600e60009054906101000a900460ff1681565b6000600460008373ffffffffffffffffffffffffffffffffffffffff1673ffffffffffffffffffffffffffffffffffffffff168152602001908152602001600020549050919050565b600e60029054906101000a900460ff1681565b6000809054906101000a900473ffffffffffffffffffffffffffffffffffffffff1673ffffffffffffffffffffffffffffffffffffffff163373ffffffffffffffffffffffffffffffffffffffff161415156114a557600080fd5b6001600660006101000a81548160ff0219169083151502179055507fd2ef4ae6592c2a8f5d1c602eaa8a0685727b41b23509703db861621a9614813a60405160405180910390a1565b60085481565b600c544211151561150457600080fd5b600e60009054906101000a900460ff1615151561152057600080fd5b6001600e60016101000a81548160ff0219169083151502179055507f599d8e5a83cffb867d051598c4d70e805d59802d8081c1c7d6dffc5b6aca2b8960405160405180910390a1565b6000809054906101000a900473ffffffffffffffffffffffffffffffffffffffff1681565b6040805190810160405280600581526020017f4c4f47495100000000000000000000000000000000000000000000000000000081525081565b60008060009054906101000a900473ffffffffffffffffffffffffffffffffffffffff1673ffffffffffffffffffffffffffffffffffffffff163373ffffffffffffffffffffffffffffffffffffffff1614151561162457600080fd5b600083141561163257600192505b600082141561164057600191505b61166782611659600754866125a690919063ffffffff16565b6125d990919063ffffffff16565b6008819055506001905092915050565b6000600660009054906101000a900460ff1615151561169557600080fd5b61169f83836125f4565b905092915050565b600c5481565b6b015b6a759f4835dc2400000081565b6000600660009054906101000a900460ff16905090565b60095481565b600d6020528060005260406000206000915090505481565b6000600160008373ffffffffffffffffffffffffffffffffffffffff1673ffffffffffffffffffffffffffffffffffffffff16815260200190815260200160002060009054906101000a900460ff169050919050565b6000809054906101000a900473ffffffffffffffffffffffffffffffffffffffff1673ffffffffffffffffffffffffffffffffffffffff163373ffffffffffffffffffffffffffffffffffffffff161415156117a357600080fd5b6117bb81600f6000015461258d90919063ffffffff16565b600f6000018190555061181681600460003073ffffffffffffffffffffffffffffffffffffffff1673ffffffffffffffffffffffffffffffffffffffff1681526020019081526020016000205461258d90919063ffffffff16565b600460003073ffffffffffffffffffffffffffffffffffffffff1673ffffffffffffffffffffffffffffffffffffffff1681526020019081526020016000208190555061186430838361260b565b5050565b6000600660009054906101000a900460ff1615151561188657600080fd5b6118908383612979565b905092915050565b600a5481565b6000600560008473ffffffffffffffffffffffffffffffffffffffff1673ffffffffffffffffffffffffffffffffffffffff16815260200190815260200160002060008373ffffffffffffffffffffffffffffffffffffffff1673ffffffffffffffffffffffffffffffffffffffff16815260200190815260200160002054905092915050565b60008060009054906101000a900473ffffffffffffffffffffffffffffffffffffffff1673ffffffffffffffffffffffffffffffffffffffff163373ffffffffffffffffffffffffffffffffffffffff1614151561198257600080fd5b60a060405190810160405280600f600001548152602001600f600101548152602001600f6002015481526020018360ff168152602001600f60030160019054906101000a900460ff1660ff16815250600f60008201518160000155602082015181600101556040820151816002015560608201518160030160006101000a81548160ff021916908360ff16021790555060808201518160030160016101000a81548160ff021916908360ff16021790555090505060019050919050565b6000809054906101000a900473ffffffffffffffffffffffffffffffffffffffff1673ffffffffffffffffffffffffffffffffffffffff163373ffffffffffffffffffffffffffffffffffffffff16141515611a9a57600080fd5b611aa48282612b75565b5050565b6000809054906101000a900473ffffffffffffffffffffffffffffffffffffffff1673ffffffffffffffffffffffffffffffffffffffff163373ffffffffffffffffffffffffffffffffffffffff16141515611b0357600080fd5b60018060008373ffffffffffffffffffffffffffffffffffffffff1673ffffffffffffffffffffffffffffffffffffffff16815260200190815260200160002060006101000a81548160ff0219169083151502179055507f48335238b4855f35377ed80f164e8c6f3c366e54ac00b96a6402d4a9814a03a5816001604051808373ffffffffffffffffffffffffffffffffffffffff1673ffffffffffffffffffffffffffffffffffffffff168152602001821515151581526020019250505060405180910390a150565b6000809054906101000a900473ffffffffffffffffffffffffffffffffffffffff1673ffffffffffffffffffffffffffffffffffffffff163373ffffffffffffffffffffffffffffffffffffffff16141515611c2857600080fd5b600073ffffffffffffffffffffffffffffffffffffffff168173ffffffffffffffffffffffffffffffffffffffff1614151515611c6457600080fd5b8073ffffffffffffffffffffffffffffffffffffffff166000809054906101000a900473ffffffffffffffffffffffffffffffffffffffff1673ffffffffffffffffffffffffffffffffffffffff167f8be0079c531659141344cd1fd0a4f28419497f9722a3daafe3b4186f6b6457e060405160405180910390a3806000806101000a81548173ffffffffffffffffffffffffffffffffffffffff021916908373ffffffffffffffffffffffffffffffffffffffff16021790555050565b6a464f733baa0ae67500000081565b600081600560003373ffffffffffffffffffffffffffffffffffffffff1673ffffffffffffffffffffffffffffffffffffffff16815260200190815260200160002060008573ffffffffffffffffffffffffffffffffffffffff1673ffffffffffffffffffffffffffffffffffffffff168152602001908152602001600020819055508273ffffffffffffffffffffffffffffffffffffffff163373ffffffffffffffffffffffffffffffffffffffff167f8c5be1e5ebec7d5bd14f71427d1e84f3dd0314c0f7b2291e5b200ac8c7c3b925846040518082815260200191505060405180910390a36001905092915050565b6000600160008573ffffffffffffffffffffffffffffffffffffffff1673ffffffffffffffffffffffffffffffffffffffff16815260200190815260200160002060009054906101000a900460ff16151515611e7e57600080fd5b600160008473ffffffffffffffffffffffffffffffffffffffff1673ffffffffffffffffffffffffffffffffffffffff16815260200190815260200160002060009054906101000a900460ff16151515611ed757600080fd5b600073ffffffffffffffffffffffffffffffffffffffff168373ffffffffffffffffffffffffffffffffffffffff1614151515611f1357600080fd5b600460008573ffffffffffffffffffffffffffffffffffffffff1673ffffffffffffffffffffffffffffffffffffffff168152602001908152602001600020548211151515611f6157600080fd5b600560008573ffffffffffffffffffffffffffffffffffffffff1673ffffffffffffffffffffffffffffffffffffffff16815260200190815260200160002060003373ffffffffffffffffffffffffffffffffffffffff1673ffffffffffffffffffffffffffffffffffffffff168152602001908152602001600020548211151515611fec57600080fd5b61203e82600460008773ffffffffffffffffffffffffffffffffffffffff1673ffffffffffffffffffffffffffffffffffffffff1681526020019081526020016000205461258d90919063ffffffff16565b600460008673ffffffffffffffffffffffffffffffffffffffff1673ffffffffffffffffffffffffffffffffffffffff168152602001908152602001600020819055506120d382600460008673ffffffffffffffffffffffffffffffffffffffff1673ffffffffffffffffffffffffffffffffffffffff1681526020019081526020016000205461229590919063ffffffff16565b600460008573ffffffffffffffffffffffffffffffffffffffff1673ffffffffffffffffffffffffffffffffffffffff168152602001908152602001600020819055506121a582600560008773ffffffffffffffffffffffffffffffffffffffff1673ffffffffffffffffffffffffffffffffffffffff16815260200190815260200160002060003373ffffffffffffffffffffffffffffffffffffffff1673ffffffffffffffffffffffffffffffffffffffff1681526020019081526020016000205461258d90919063ffffffff16565b600560008673ffffffffffffffffffffffffffffffffffffffff1673ffffffffffffffffffffffffffffffffffffffff16815260200190815260200160002060003373ffffffffffffffffffffffffffffffffffffffff1673ffffffffffffffffffffffffffffffffffffffff168152602001908152602001600020819055508273ffffffffffffffffffffffffffffffffffffffff168473ffffffffffffffffffffffffffffffffffffffff167fddf252ad1be2c89b69c2b068fc378daa952ba7f163c4a11628f55a4df523b3ef846040518082815260200191505060405180910390a3600190509392505050565b60008082840190508381101515156122a957fe5b8091505092915050565b6000600660006101000a81548160ff0219169083151502179055507f9b1d6b460eaa8350c2f15712231e94c803e08e072db0737a0efb84745848694060405160405180910390a1565b600080600560003373ffffffffffffffffffffffffffffffffffffffff1673ffffffffffffffffffffffffffffffffffffffff16815260200190815260200160002060008573ffffffffffffffffffffffffffffffffffffffff1673ffffffffffffffffffffffffffffffffffffffff1681526020019081526020016000205490508083111561240d576000600560003373ffffffffffffffffffffffffffffffffffffffff1673ffffffffffffffffffffffffffffffffffffffff16815260200190815260200160002060008673ffffffffffffffffffffffffffffffffffffffff1673ffffffffffffffffffffffffffffffffffffffff168152602001908152602001600020819055506124a1565b612420838261258d90919063ffffffff16565b600560003373ffffffffffffffffffffffffffffffffffffffff1673ffffffffffffffffffffffffffffffffffffffff16815260200190815260200160002060008673ffffffffffffffffffffffffffffffffffffffff1673ffffffffffffffffffffffffffffffffffffffff168152602001908152602001600020819055505b8373ffffffffffffffffffffffffffffffffffffffff163373ffffffffffffffffffffffffffffffffffffffff167f8c5be1e5ebec7d5bd14f71427d1e84f3dd0314c0f7b2291e5b200ac8c7c3b925600560003373ffffffffffffffffffffffffffffffffffffffff1673ffffffffffffffffffffffffffffffffffffffff16815260200190815260200160002060008873ffffffffffffffffffffffffffffffffffffffff1673ffffffffffffffffffffffffffffffffffffffff168152602001908152602001600020546040518082815260200191505060405180910390a3600191505092915050565b600082821115151561259b57fe5b818303905092915050565b600080828402905060008414806125c757508284828115156125c457fe5b04145b15156125cf57fe5b8091505092915050565b60008082848115156125e757fe5b0490508091505092915050565b600061260133848461260b565b6001905092915050565b600160008473ffffffffffffffffffffffffffffffffffffffff1673ffffffffffffffffffffffffffffffffffffffff16815260200190815260200160002060009054906101000a900460ff1615151561266457600080fd5b600160008373ffffffffffffffffffffffffffffffffffffffff1673ffffffffffffffffffffffffffffffffffffffff16815260200190815260200160002060009054906101000a900460ff161515156126bd57600080fd5b600073ffffffffffffffffffffffffffffffffffffffff168273ffffffffffffffffffffffffffffffffffffffff16141515156126f957600080fd5b80600460008573ffffffffffffffffffffffffffffffffffffffff1673ffffffffffffffffffffffffffffffffffffffff168152602001908152602001600020541015151561274757600080fd5b600460008373ffffffffffffffffffffffffffffffffffffffff1673ffffffffffffffffffffffffffffffffffffffff168152602001908152602001600020546127d982600460008673ffffffffffffffffffffffffffffffffffffffff1673ffffffffffffffffffffffffffffffffffffffff1681526020019081526020016000205461229590919063ffffffff16565b1115156127e557600080fd5b61283781600460008673ffffffffffffffffffffffffffffffffffffffff1673ffffffffffffffffffffffffffffffffffffffff1681526020019081526020016000205461258d90919063ffffffff16565b600460008573ffffffffffffffffffffffffffffffffffffffff1673ffffffffffffffffffffffffffffffffffffffff168152602001908152602001600020819055506128cc81600460008573ffffffffffffffffffffffffffffffffffffffff1673ffffffffffffffffffffffffffffffffffffffff1681526020019081526020016000205461229590919063ffffffff16565b600460008473ffffffffffffffffffffffffffffffffffffffff1673ffffffffffffffffffffffffffffffffffffffff168152602001908152602001600020819055508173ffffffffffffffffffffffffffffffffffffffff168373ffffffffffffffffffffffffffffffffffffffff167fddf252ad1be2c89b69c2b068fc378daa952ba7f163c4a11628f55a4df523b3ef836040518082815260200191505060405180910390a3505050565b6000612a0a82600560003373ffffffffffffffffffffffffffffffffffffffff1673ffffffffffffffffffffffffffffffffffffffff16815260200190815260200160002060008673ffffffffffffffffffffffffffffffffffffffff1673ffffffffffffffffffffffffffffffffffffffff1681526020019081526020016000205461229590919063ffffffff16565b600560003373ffffffffffffffffffffffffffffffffffffffff1673ffffffffffffffffffffffffffffffffffffffff16815260200190815260200160002060008573ffffffffffffffffffffffffffffffffffffffff1673ffffffffffffffffffffffffffffffffffffffff168152602001908152602001600020819055508273ffffffffffffffffffffffffffffffffffffffff163373ffffffffffffffffffffffffffffffffffffffff167f8c5be1e5ebec7d5bd14f71427d1e84f3dd0314c0f7b2291e5b200ac8c7c3b925600560003373ffffffffffffffffffffffffffffffffffffffff1673ffffffffffffffffffffffffffffffffffffffff16815260200190815260200160002060008773ffffffffffffffffffffffffffffffffffffffff1673ffffffffffffffffffffffffffffffffffffffff168152602001908152602001600020546040518082815260200191505060405180910390a36001905092915050565b612b8d81600f6000015461258d90919063ffffffff16565b600f60000181905550612ba130838361260b565b8173ffffffffffffffffffffffffffffffffffffffff163073ffffffffffffffffffffffffffffffffffffffff167fddf252ad1be2c89b69c2b068fc378daa952ba7f163c4a11628f55a4df523b3ef836040518082815260200191505060405180910390a350505600a165627a7a72305820c937150c15e690a71a1299dcbf19f94fa89aadf0dc381c0f06b78e99bc174e9b0029",
  "source": "pragma solidity ^0.4.18;\r\n\r\nimport \"./SafeMath.sol\";\r\nimport \"./PausableToken.sol\";\r\n\r\ncontract CryptologiqCrowdsale is PausableToken\r\n{\r\n    using SafeMath for uint;\r\n\r\n    uint256 DEC = 10 ** uint256(decimals);\r\n    uint256 public buyPrice = 1000000000000000000 wei;\r\n\r\n    uint public stage = 0;\r\n    uint256 public weisRaised = 0;\r\n    uint256 public tokensSold = 0;\r\n\r\n    uint public ICOdeadLine = 1530392400; // ICO end time - Sunday, 1 July 2018, 00:00:00.\r\n\r\n    mapping (address => uint256) public deposited;\r\n\r\n    modifier afterDeadline {\r\n        require(now > ICOdeadLine);\r\n        _;\r\n    }\r\n\r\n    uint256 public constant softcap = 85000000e18;\r\n    uint256 public constant hardcap = 420000000e18;\r\n\r\n    bool public softcapReached;\r\n    bool public refundIsAvailable;\r\n    bool public burned;\r\n\r\n    event SoftcapReached();\r\n    event HardcapReached();\r\n    event RefundsEnabled();\r\n    event Refunded(address indexed beneficiary, uint256 weiAmount);\r\n    event CrowdSaleFinished(string info);\r\n    event Burned(address indexed burner, uint256 amount);\r\n\r\n    struct Ico {\r\n        uint256 tokens;             // Tokens in crowdsale\r\n        uint startDate;             // Date when crowsale will be starting, after its starting that property will be the 0\r\n        uint endDate;               // Date when crowdsale will be stop\r\n        uint8 discount;             // Discount\r\n        uint8 discountFirstDayICO;  // Discount. Only for first stage ico\r\n    }\r\n\r\n    Ico public ICO;\r\n\r\n    function confirmSell(uint256 _amount) internal view\r\n    returns(bool)\r\n    {\r\n        if (ICO.tokens < _amount) {\r\n            return false;\r\n        }\r\n\r\n        return true;\r\n    }\r\n\r\n    function countDiscount(uint256 amount) internal view\r\n    returns(uint256)\r\n    {\r\n        uint256 _amount = (amount.mul(DEC)).div(buyPrice);\r\n        require(_amount > 0);\r\n\r\n        if (1 == stage) {\r\n            _amount = _amount.add(withDiscount(_amount, ICO.discount));\r\n        }\r\n        else if (2 == stage) {\r\n            _amount = _amount.add(withDiscount(_amount, ICO.discount));\r\n        }\r\n        else if (3 == stage) {\r\n            if (now <= ICO.startDate + 1 days) {\r\n                _amount = _amount.add(withDiscount(_amount, ICO.discountFirstDayICO));\r\n            } else {\r\n                _amount = _amount.add(withDiscount(_amount, ICO.discount));\r\n            }\r\n        }\r\n        else if (4 == stage) {\r\n            _amount = _amount.add(withDiscount(_amount, ICO.discount));\r\n        }\r\n\r\n        return _amount;\r\n    }\r\n\r\n    function changeDiscount(uint8 _discount) public onlyOwner\r\n    returns (bool)\r\n    {\r\n        ICO = Ico (ICO.tokens, ICO.startDate, ICO.endDate, _discount, ICO.discountFirstDayICO);\r\n        return true;\r\n    }\r\n\r\n    function changeRate(uint256 _numerator, uint256 _denominator) public onlyOwner\r\n    returns (bool success)\r\n    {\r\n        if (_numerator == 0) _numerator = 1;\r\n        if (_denominator == 0) _denominator = 1;\r\n\r\n        buyPrice = (_numerator.mul(DEC)).div(_denominator);\r\n\r\n        return true;\r\n    }\r\n\r\n    function crowdSaleStatus() internal constant\r\n    returns (string)\r\n    {\r\n        if (1 == stage) {\r\n            return \"Private sale\";\r\n        }\r\n        else if(2 == stage) {\r\n            return \"Pre-ICO\";\r\n        }\r\n        else if (3 == stage) {\r\n            return \"ICO first stage\";\r\n        }\r\n        else if (4 == stage) {\r\n            return \"ICO second stage\";\r\n        }\r\n        else if (5 >= stage) {\r\n            return \"feature stage\";\r\n        }\r\n\r\n        return \"there is no stage at present\";\r\n    }\r\n\r\n    function paymentManager(address sender, uint256 value) internal\r\n    {\r\n        uint256 discountValue = countDiscount(value);\r\n        require(confirmSell(discountValue));\r\n\r\n        sell(sender, discountValue);\r\n        deposited[sender] = deposited[sender].add(value);\r\n        weisRaised = weisRaised.add(value);\r\n        tokensSold = tokensSold.add(discountValue);\r\n\r\n        if ((tokensSold >= softcap) && !softcapReached) {\r\n            softcapReached = true;\r\n            SoftcapReached();\r\n        }\r\n\r\n        if (tokensSold == hardcap) {\r\n            pauseInternal();\r\n            HardcapReached();\r\n            CrowdSaleFinished(crowdSaleStatus());\r\n        }\r\n    }\r\n\r\n    function sell(address _investor, uint256 _amount) internal\r\n    {\r\n        ICO.tokens = ICO.tokens.sub(_amount);\r\n        _transfer(this, _investor, _amount);\r\n        Transfer(this, _investor, _amount);\r\n    }\r\n\r\n    function startCrowd(uint256 _tokens, uint _startDate, uint _endDate, uint8 _discount, uint8 _discountFirstDayICO) public onlyOwner\r\n    {\r\n        require(_tokens * DEC <= balances[this]);\r\n\r\n        ICO = Ico (_tokens * DEC, _startDate, _startDate + _endDate * 1 days , _discount, _discountFirstDayICO);\r\n        stage = stage.add(1);\r\n        unpauseInternal();\r\n    }\r\n\r\n    function transferWeb3js(address _investor, uint256 _amount) external onlyOwner\r\n    {\r\n        sell(_investor, _amount);\r\n    }\r\n\r\n    function withDiscount(uint256 _amount, uint _percent) internal pure\r\n    returns (uint256)\r\n    {\r\n        return (_amount.mul(_percent)).div(100);\r\n    }\r\n\r\n    function enableRefund() public afterDeadline\r\n    {\r\n        require(!softcapReached);\r\n\r\n        refundIsAvailable = true;\r\n        RefundsEnabled();\r\n    }\r\n\r\n    function getMyRefund() public afterDeadline\r\n    {\r\n        require(refundIsAvailable);\r\n        require(deposited[msg.sender] > 0);\r\n\r\n        uint256 depositedValue = deposited[msg.sender];\r\n        deposited[msg.sender] = 0;\r\n        msg.sender.transfer(depositedValue);\r\n        Refunded(msg.sender, depositedValue);\r\n    }\r\n\r\n    function burnAfterICO() public afterDeadline\r\n    {\r\n        require(!burned);\r\n\r\n        address burner = msg.sender;\r\n        totalSupply = totalSupply.sub(balances[this]);\r\n        balances[this] = balances[this].sub(balances[this]);\r\n        burned = true;\r\n        Burned(burner, balances[this]);\r\n    }\r\n\r\n    // Need discuss with Zorayr\r\n    function transferTokensFromContract(address _to, uint256 _value) public onlyOwner\r\n    {\r\n        ICO.tokens = ICO.tokens.sub(_value);\r\n        balances[this] = balances[this].sub(_value);\r\n        _transfer(this, _to, _value);\r\n    }\r\n}",
  "sourcePath": "C:\\Users\\854441\\Desktop\\Ariks\\smrt-contract\\contracts\\CryptologiqCrowdsale.sol",
  "compiler": {
    "name": "solc",
    "version": "0.4.18+commit.9cf6e910.Emscripten.clang"
  },
  "schemaVersion": "1.0.1",
  "updatedAt": "2018-02-16T01:39:53.195Z"
}