{
  "contractName": "Pausable",
  "abi": [
    {
      "constant": false,
      "inputs": [],
      "name": "unpause",
      "outputs": [],
      "payable": false,
      "stateMutability": "nonpayable",
      "type": "function"
    },
    {
      "constant": true,
      "inputs": [],
      "name": "paused",
      "outputs": [
        {
          "name": "",
          "type": "bool"
        }
      ],
      "payable": false,
      "stateMutability": "view",
      "type": "function"
    },
    {
      "constant": false,
      "inputs": [],
      "name": "pause",
      "outputs": [],
      "payable": false,
      "stateMutability": "nonpayable",
      "type": "function"
    },
    {
      "constant": true,
      "inputs": [],
      "name": "owner",
      "outputs": [
        {
          "name": "",
          "type": "address"
        }
      ],
      "payable": false,
      "stateMutability": "view",
      "type": "function"
    },
    {
      "constant": true,
      "inputs": [],
      "name": "isPaused",
      "outputs": [
        {
          "name": "",
          "type": "bool"
        }
      ],
      "payable": false,
      "stateMutability": "view",
      "type": "function"
    },
    {
      "constant": false,
      "inputs": [
        {
          "name": "newOwner",
          "type": "address"
        }
      ],
      "name": "transferOwnership",
      "outputs": [],
      "payable": false,
      "stateMutability": "nonpayable",
      "type": "function"
    },
    {
      "anonymous": false,
      "inputs": [],
      "name": "EPause",
      "type": "event"
    },
    {
      "anonymous": false,
      "inputs": [],
      "name": "EUnpause",
      "type": "event"
    },
    {
      "anonymous": false,
      "inputs": [
        {
          "indexed": true,
          "name": "previousOwner",
          "type": "address"
        },
        {
          "indexed": true,
          "name": "newOwner",
          "type": "address"
        }
      ],
      "name": "OwnershipTransferred",
      "type": "event"
    }
  ],
  "bytecode": "0x60606040526001600060146101000a81548160ff021916908315150217905550336000806101000a81548173ffffffffffffffffffffffffffffffffffffffff021916908373ffffffffffffffffffffffffffffffffffffffff1602179055506104a58061006e6000396000f300606060405260043610610078576000357c0100000000000000000000000000000000000000000000000000000000900463ffffffff1680633f4ba83a1461007d5780635c975abb146100925780638456cb59146100bf5780638da5cb5b146100d4578063b187bd2614610129578063f2fde38b14610156575b600080fd5b341561008857600080fd5b61009061018f565b005b341561009d57600080fd5b6100a5610232565b604051808215151515815260200191505060405180910390f35b34156100ca57600080fd5b6100d2610245565b005b34156100df57600080fd5b6100e76102e9565b604051808273ffffffffffffffffffffffffffffffffffffffff1673ffffffffffffffffffffffffffffffffffffffff16815260200191505060405180910390f35b341561013457600080fd5b61013c61030e565b604051808215151515815260200191505060405180910390f35b341561016157600080fd5b61018d600480803573ffffffffffffffffffffffffffffffffffffffff16906020019091905050610324565b005b6000809054906101000a900473ffffffffffffffffffffffffffffffffffffffff1673ffffffffffffffffffffffffffffffffffffffff163373ffffffffffffffffffffffffffffffffffffffff161415156101ea57600080fd5b60008060146101000a81548160ff0219169083151502179055507f9b1d6b460eaa8350c2f15712231e94c803e08e072db0737a0efb84745848694060405160405180910390a1565b600060149054906101000a900460ff1681565b6000809054906101000a900473ffffffffffffffffffffffffffffffffffffffff1673ffffffffffffffffffffffffffffffffffffffff163373ffffffffffffffffffffffffffffffffffffffff161415156102a057600080fd5b6001600060146101000a81548160ff0219169083151502179055507fd2ef4ae6592c2a8f5d1c602eaa8a0685727b41b23509703db861621a9614813a60405160405180910390a1565b6000809054906101000a900473ffffffffffffffffffffffffffffffffffffffff1681565b60008060149054906101000a900460ff16905090565b6000809054906101000a900473ffffffffffffffffffffffffffffffffffffffff1673ffffffffffffffffffffffffffffffffffffffff163373ffffffffffffffffffffffffffffffffffffffff1614151561037f57600080fd5b600073ffffffffffffffffffffffffffffffffffffffff168173ffffffffffffffffffffffffffffffffffffffff16141515156103bb57600080fd5b8073ffffffffffffffffffffffffffffffffffffffff166000809054906101000a900473ffffffffffffffffffffffffffffffffffffffff1673ffffffffffffffffffffffffffffffffffffffff167f8be0079c531659141344cd1fd0a4f28419497f9722a3daafe3b4186f6b6457e060405160405180910390a3806000806101000a81548173ffffffffffffffffffffffffffffffffffffffff021916908373ffffffffffffffffffffffffffffffffffffffff160217905550505600a165627a7a7230582070621d258d8d0279947e3d9ec62568a71874a84f7661abc88802c4977560432b0029",
  "source": "pragma solidity ^0.4.18;\r\n\r\nimport \"./Ownable.sol\";\r\n\r\ncontract Pausable is Ownable\r\n{\r\n    event EPause();\r\n    event EUnpause();\r\n\r\n    bool public paused = true;\r\n\r\n    modifier whenPaused()\r\n    {\r\n        require(paused);\r\n        _;\r\n    }\r\n\r\n    modifier whenNotPaused()\r\n    {\r\n        require(!paused);\r\n        _;\r\n    }\r\n\r\n    function pause() public onlyOwner\r\n    {\r\n        paused = true;\r\n        EPause();\r\n    }\r\n\r\n    function unpause() public onlyOwner\r\n    {\r\n        paused = false;\r\n        EUnpause();\r\n    }\r\n\r\n    function isPaused() view public returns(bool)\r\n    {\r\n        return paused;\r\n    }\r\n\r\n    function pauseInternal() internal\r\n    {\r\n        paused = true;\r\n        EPause();\r\n    }\r\n\r\n    function unpauseInternal() internal\r\n    {\r\n        paused = false;\r\n        EUnpause();\r\n    }\r\n}",
  "sourcePath": "C:\\Users\\854441\\Desktop\\Ariks\\smrt-contract\\contracts\\Pausable.sol",
  "compiler": {
    "name": "solc",
    "version": "0.4.18+commit.9cf6e910.Emscripten.clang"
  },
  "schemaVersion": "1.0.1",
  "updatedAt": "2018-02-16T01:39:53.199Z"
}