{
  "contractName": "TokenERC20",
  "abi": [
    {
      "constant": true,
      "inputs": [],
      "name": "name",
      "outputs": [
        {
          "name": "",
          "type": "string"
        }
      ],
      "payable": false,
      "stateMutability": "view",
      "type": "function"
    },
    {
      "constant": false,
      "inputs": [
        {
          "name": "_spender",
          "type": "address"
        },
        {
          "name": "_value",
          "type": "uint256"
        }
      ],
      "name": "approve",
      "outputs": [
        {
          "name": "success",
          "type": "bool"
        }
      ],
      "payable": false,
      "stateMutability": "nonpayable",
      "type": "function"
    },
    {
      "constant": true,
      "inputs": [],
      "name": "totalSupply",
      "outputs": [
        {
          "name": "",
          "type": "uint256"
        }
      ],
      "payable": false,
      "stateMutability": "view",
      "type": "function"
    },
    {
      "constant": true,
      "inputs": [],
      "name": "companyWallet",
      "outputs": [
        {
          "name": "",
          "type": "address"
        }
      ],
      "payable": false,
      "stateMutability": "view",
      "type": "function"
    },
    {
      "constant": false,
      "inputs": [
        {
          "name": "_from",
          "type": "address"
        },
        {
          "name": "_to",
          "type": "address"
        },
        {
          "name": "_value",
          "type": "uint256"
        }
      ],
      "name": "transferFrom",
      "outputs": [
        {
          "name": "success",
          "type": "bool"
        }
      ],
      "payable": false,
      "stateMutability": "nonpayable",
      "type": "function"
    },
    {
      "constant": true,
      "inputs": [],
      "name": "decimals",
      "outputs": [
        {
          "name": "",
          "type": "uint256"
        }
      ],
      "payable": false,
      "stateMutability": "view",
      "type": "function"
    },
    {
      "constant": false,
      "inputs": [],
      "name": "burn",
      "outputs": [],
      "payable": false,
      "stateMutability": "nonpayable",
      "type": "function"
    },
    {
      "constant": false,
      "inputs": [
        {
          "name": "_spender",
          "type": "address"
        },
        {
          "name": "_subtractedValue",
          "type": "uint256"
        }
      ],
      "name": "decreaseApproval",
      "outputs": [
        {
          "name": "success",
          "type": "bool"
        }
      ],
      "payable": false,
      "stateMutability": "nonpayable",
      "type": "function"
    },
    {
      "constant": true,
      "inputs": [
        {
          "name": "",
          "type": "address"
        }
      ],
      "name": "balanceOf",
      "outputs": [
        {
          "name": "",
          "type": "uint256"
        }
      ],
      "payable": false,
      "stateMutability": "view",
      "type": "function"
    },
    {
      "constant": true,
      "inputs": [],
      "name": "icoEndTime",
      "outputs": [
        {
          "name": "",
          "type": "uint256"
        }
      ],
      "payable": false,
      "stateMutability": "view",
      "type": "function"
    },
    {
      "constant": true,
      "inputs": [],
      "name": "availableSupply",
      "outputs": [
        {
          "name": "",
          "type": "uint256"
        }
      ],
      "payable": false,
      "stateMutability": "view",
      "type": "function"
    },
    {
      "constant": true,
      "inputs": [],
      "name": "buyPrice",
      "outputs": [
        {
          "name": "",
          "type": "uint256"
        }
      ],
      "payable": false,
      "stateMutability": "view",
      "type": "function"
    },
    {
      "constant": true,
      "inputs": [],
      "name": "tournamentsWallet",
      "outputs": [
        {
          "name": "",
          "type": "address"
        }
      ],
      "payable": false,
      "stateMutability": "view",
      "type": "function"
    },
    {
      "constant": true,
      "inputs": [],
      "name": "symbol",
      "outputs": [
        {
          "name": "",
          "type": "string"
        }
      ],
      "payable": false,
      "stateMutability": "view",
      "type": "function"
    },
    {
      "constant": false,
      "inputs": [
        {
          "name": "_to",
          "type": "address"
        },
        {
          "name": "_value",
          "type": "uint256"
        }
      ],
      "name": "transfer",
      "outputs": [],
      "payable": false,
      "stateMutability": "nonpayable",
      "type": "function"
    },
    {
      "constant": true,
      "inputs": [],
      "name": "internalExchangeWallet",
      "outputs": [
        {
          "name": "",
          "type": "address"
        }
      ],
      "payable": false,
      "stateMutability": "view",
      "type": "function"
    },
    {
      "constant": false,
      "inputs": [
        {
          "name": "_spender",
          "type": "address"
        },
        {
          "name": "_value",
          "type": "uint256"
        },
        {
          "name": "_extraData",
          "type": "bytes"
        }
      ],
      "name": "approveAndCall",
      "outputs": [
        {
          "name": "success",
          "type": "bool"
        }
      ],
      "payable": false,
      "stateMutability": "nonpayable",
      "type": "function"
    },
    {
      "constant": true,
      "inputs": [
        {
          "name": "_target",
          "type": "address"
        }
      ],
      "name": "frozen",
      "outputs": [
        {
          "name": "",
          "type": "bool"
        }
      ],
      "payable": false,
      "stateMutability": "view",
      "type": "function"
    },
    {
      "constant": false,
      "inputs": [
        {
          "name": "_spender",
          "type": "address"
        },
        {
          "name": "_addedValue",
          "type": "uint256"
        }
      ],
      "name": "increaseApproval",
      "outputs": [
        {
          "name": "success",
          "type": "bool"
        }
      ],
      "payable": false,
      "stateMutability": "nonpayable",
      "type": "function"
    },
    {
      "constant": true,
      "inputs": [
        {
          "name": "",
          "type": "address"
        },
        {
          "name": "",
          "type": "address"
        }
      ],
      "name": "allowance",
      "outputs": [
        {
          "name": "",
          "type": "uint256"
        }
      ],
      "payable": false,
      "stateMutability": "view",
      "type": "function"
    },
    {
      "constant": true,
      "inputs": [],
      "name": "bountyWallet",
      "outputs": [
        {
          "name": "",
          "type": "address"
        }
      ],
      "payable": false,
      "stateMutability": "view",
      "type": "function"
    },
    {
      "constant": false,
      "inputs": [
        {
          "name": "target",
          "type": "address"
        },
        {
          "name": "freeze",
          "type": "bool"
        }
      ],
      "name": "freezeAccount",
      "outputs": [],
      "payable": false,
      "stateMutability": "nonpayable",
      "type": "function"
    },
    {
      "constant": false,
      "inputs": [
        {
          "name": "newOwner",
          "type": "address"
        }
      ],
      "name": "transferOwnership",
      "outputs": [],
      "payable": false,
      "stateMutability": "nonpayable",
      "type": "function"
    },
    {
      "inputs": [
        {
          "name": "initialSupply",
          "type": "uint256"
        },
        {
          "name": "tokenName",
          "type": "string"
        },
        {
          "name": "tokenSymbol",
          "type": "string"
        }
      ],
      "payable": false,
      "stateMutability": "nonpayable",
      "type": "constructor"
    },
    {
      "anonymous": false,
      "inputs": [
        {
          "indexed": true,
          "name": "from",
          "type": "address"
        },
        {
          "indexed": true,
          "name": "to",
          "type": "address"
        },
        {
          "indexed": false,
          "name": "value",
          "type": "uint256"
        }
      ],
      "name": "Transfer",
      "type": "event"
    },
    {
      "anonymous": false,
      "inputs": [
        {
          "indexed": false,
          "name": "amount",
          "type": "uint256"
        }
      ],
      "name": "Burned",
      "type": "event"
    },
    {
      "anonymous": false,
      "inputs": [
        {
          "indexed": true,
          "name": "_owner",
          "type": "address"
        },
        {
          "indexed": true,
          "name": "_spender",
          "type": "address"
        },
        {
          "indexed": false,
          "name": "_value",
          "type": "uint256"
        }
      ],
      "name": "Approval",
      "type": "event"
    },
    {
      "anonymous": false,
      "inputs": [
        {
          "indexed": false,
          "name": "target",
          "type": "address"
        },
        {
          "indexed": false,
          "name": "frozen",
          "type": "bool"
        }
      ],
      "name": "FrozenFunds",
      "type": "event"
    },
    {
      "anonymous": false,
      "inputs": [
        {
          "indexed": true,
          "name": "previousOwner",
          "type": "address"
        },
        {
          "indexed": true,
          "name": "newOwner",
          "type": "address"
        }
      ],
      "name": "OwnershipTransferred",
      "type": "event"
    }
  ],
  "bytecode": "0x60606040526012600355600354600a0a600455670de0b6b3a7640000600755635b38198060085573d5b93c49c4201db2a674a7d0fc5f3f733ebade80600960016101000a81548173ffffffffffffffffffffffffffffffffffffffff021916908373ffffffffffffffffffffffffffffffffffffffff16021790555073d5b93c49c4201db2a674a7d0fc5f3f733ebade80600a60006101000a81548173ffffffffffffffffffffffffffffffffffffffff021916908373ffffffffffffffffffffffffffffffffffffffff16021790555073d5b93c49c4201db2a674a7d0fc5f3f733ebade80600b60006101000a81548173ffffffffffffffffffffffffffffffffffffffff021916908373ffffffffffffffffffffffffffffffffffffffff16021790555073d5b93c49c4201db2a674a7d0fc5f3f733ebade80600c60006101000a81548173ffffffffffffffffffffffffffffffffffffffff021916908373ffffffffffffffffffffffffffffffffffffffff16021790555034156200018657600080fd5b6040516200238f3803806200238f83398101604052808051906020019091908051820191906020018051820191905050336000806101000a81548173ffffffffffffffffffffffffffffffffffffffff021916908373ffffffffffffffffffffffffffffffffffffffff1602179055506200021b60045484620005e46401000000000262001c20179091906401000000009004565b6005819055506200026a60646200024d603c600554620005e46401000000000262001c20179091906401000000009004565b6200061a6401000000000262001c53179091906401000000009004565b600d60003073ffffffffffffffffffffffffffffffffffffffff1673ffffffffffffffffffffffffffffffffffffffff16815260200190815260200160002081905550620002f66064620002d96014600554620005e46401000000000262001c20179091906401000000009004565b6200061a6401000000000262001c53179091906401000000009004565b600d6000600960019054906101000a900473ffffffffffffffffffffffffffffffffffffffff1673ffffffffffffffffffffffffffffffffffffffff1673ffffffffffffffffffffffffffffffffffffffff16815260200190815260200160002081905550620003a4606462000387600a600554620005e46401000000000262001c20179091906401000000009004565b6200061a6401000000000262001c53179091906401000000009004565b600d6000600a60009054906101000a900473ffffffffffffffffffffffffffffffffffffffff1673ffffffffffffffffffffffffffffffffffffffff1673ffffffffffffffffffffffffffffffffffffffff168152602001908152602001600020819055506200045160646200043460058054620005e46401000000000262001c20179091906401000000009004565b6200061a6401000000000262001c53179091906401000000009004565b600d6000600b60009054906101000a900473ffffffffffffffffffffffffffffffffffffffff1673ffffffffffffffffffffffffffffffffffffffff1673ffffffffffffffffffffffffffffffffffffffff16815260200190815260200160002081905550620004fe6064620004e160058054620005e46401000000000262001c20179091906401000000009004565b6200061a6401000000000262001c53179091906401000000009004565b600d6000600c60009054906101000a900473ffffffffffffffffffffffffffffffffffffffff1673ffffffffffffffffffffffffffffffffffffffff1673ffffffffffffffffffffffffffffffffffffffff16815260200190815260200160002081905550600d60003073ffffffffffffffffffffffffffffffffffffffff1673ffffffffffffffffffffffffffffffffffffffff168152602001908152602001600020546006819055508160019080519060200190620005c192919062000636565b508060029080519060200190620005da92919062000636565b50505050620006e5565b600080828402905060008414806200060757508284828115156200060457fe5b04145b15156200061057fe5b8091505092915050565b60008082848115156200062957fe5b0490508091505092915050565b828054600181600116156101000203166002900490600052602060002090601f016020900481019282601f106200067957805160ff1916838001178555620006aa565b82800160010185558215620006aa579182015b82811115620006a95782518255916020019190600101906200068c565b5b509050620006b99190620006bd565b5090565b620006e291905b80821115620006de576000816000905550600101620006c4565b5090565b90565b611c9a80620006f56000396000f300606060405260043610610133576000357c0100000000000000000000000000000000000000000000000000000000900463ffffffff16806306fdde0314610138578063095ea7b3146101c657806318160ddd146102205780631ec32d151461024957806323b872dd1461029e578063313ce5671461031757806344df8e7014610340578063661884631461035557806370a08231146103af5780637e1055b6146103fc5780637ecc2b56146104255780638620410b1461044e57806388f4807e1461047757806395d89b41146104cc578063a9059cbb1461055a578063bbec30f11461059c578063cae9ca51146105f1578063d05166501461068e578063d73dd623146106df578063dd62ed3e14610739578063e5760520146107a5578063e724529c146107fa578063f2fde38b1461083e575b600080fd5b341561014357600080fd5b61014b610877565b6040518080602001828103825283818151815260200191508051906020019080838360005b8381101561018b578082015181840152602081019050610170565b50505050905090810190601f1680156101b85780820380516001836020036101000a031916815260200191505b509250505060405180910390f35b34156101d157600080fd5b610206600480803573ffffffffffffffffffffffffffffffffffffffff16906020019091908035906020019091905050610915565b604051808215151515815260200191505060405180910390f35b341561022b57600080fd5b6102336109a2565b6040518082815260200191505060405180910390f35b341561025457600080fd5b61025c6109a8565b604051808273ffffffffffffffffffffffffffffffffffffffff1673ffffffffffffffffffffffffffffffffffffffff16815260200191505060405180910390f35b34156102a957600080fd5b6102fd600480803573ffffffffffffffffffffffffffffffffffffffff1690602001909190803573ffffffffffffffffffffffffffffffffffffffff169060200190919080359060200190919050506109ce565b604051808215151515815260200191505060405180910390f35b341561032257600080fd5b61032a610bd9565b6040518082815260200191505060405180910390f35b341561034b57600080fd5b610353610bdf565b005b341561036057600080fd5b610395600480803573ffffffffffffffffffffffffffffffffffffffff16906020019091908035906020019091905050610d15565b604051808215151515815260200191505060405180910390f35b34156103ba57600080fd5b6103e6600480803573ffffffffffffffffffffffffffffffffffffffff16906020019091905050610fa6565b6040518082815260200191505060405180910390f35b341561040757600080fd5b61040f610fbe565b6040518082815260200191505060405180910390f35b341561043057600080fd5b610438610fc4565b6040518082815260200191505060405180910390f35b341561045957600080fd5b610461610fca565b6040518082815260200191505060405180910390f35b341561048257600080fd5b61048a610fd0565b604051808273ffffffffffffffffffffffffffffffffffffffff1673ffffffffffffffffffffffffffffffffffffffff16815260200191505060405180910390f35b34156104d757600080fd5b6104df610ff6565b6040518080602001828103825283818151815260200191508051906020019080838360005b8381101561051f578082015181840152602081019050610504565b50505050905090810190601f16801561054c5780820380516001836020036101000a031916815260200191505b509250505060405180910390f35b341561056557600080fd5b61059a600480803573ffffffffffffffffffffffffffffffffffffffff16906020019091908035906020019091905050611094565b005b34156105a757600080fd5b6105af6110a3565b604051808273ffffffffffffffffffffffffffffffffffffffff1673ffffffffffffffffffffffffffffffffffffffff16815260200191505060405180910390f35b34156105fc57600080fd5b610674600480803573ffffffffffffffffffffffffffffffffffffffff1690602001909190803590602001909190803590602001908201803590602001908080601f016020809104026020016040519081016040528093929190818152602001838380828437820191505050505050919050506110c9565b604051808215151515815260200191505060405180910390f35b341561069957600080fd5b6106c5600480803573ffffffffffffffffffffffffffffffffffffffff169060200190919050506112a2565b604051808215151515815260200191505060405180910390f35b34156106ea57600080fd5b61071f600480803573ffffffffffffffffffffffffffffffffffffffff169060200190919080359060200190919050506112f8565b604051808215151515815260200191505060405180910390f35b341561074457600080fd5b61078f600480803573ffffffffffffffffffffffffffffffffffffffff1690602001909190803573ffffffffffffffffffffffffffffffffffffffff169060200190919050506114f4565b6040518082815260200191505060405180910390f35b34156107b057600080fd5b6107b8611519565b604051808273ffffffffffffffffffffffffffffffffffffffff1673ffffffffffffffffffffffffffffffffffffffff16815260200191505060405180910390f35b341561080557600080fd5b61083c600480803573ffffffffffffffffffffffffffffffffffffffff16906020019091908035151590602001909190505061153f565b005b341561084957600080fd5b610875600480803573ffffffffffffffffffffffffffffffffffffffff16906020019091905050611664565b005b60018054600181600116156101000203166002900480601f01602080910402602001604051908101604052809291908181526020018280546001816001161561010002031660029004801561090d5780601f106108e25761010080835404028352916020019161090d565b820191906000526020600020905b8154815290600101906020018083116108f057829003601f168201915b505050505081565b600081600e60003373ffffffffffffffffffffffffffffffffffffffff1673ffffffffffffffffffffffffffffffffffffffff16815260200190815260200160002060008573ffffffffffffffffffffffffffffffffffffffff1673ffffffffffffffffffffffffffffffffffffffff168152602001908152602001600020819055506001905092915050565b60055481565b600960019054906101000a900473ffffffffffffffffffffffffffffffffffffffff1681565b6000600f60003373ffffffffffffffffffffffffffffffffffffffff1673ffffffffffffffffffffffffffffffffffffffff16815260200190815260200160002060009054906101000a900460ff16151515610a2957600080fd5b600e60008573ffffffffffffffffffffffffffffffffffffffff1673ffffffffffffffffffffffffffffffffffffffff16815260200190815260200160002060003373ffffffffffffffffffffffffffffffffffffffff1673ffffffffffffffffffffffffffffffffffffffff168152602001908152602001600020548211151515610ab457600080fd5b610b4382600e60008773ffffffffffffffffffffffffffffffffffffffff1673ffffffffffffffffffffffffffffffffffffffff16815260200190815260200160002060003373ffffffffffffffffffffffffffffffffffffffff1673ffffffffffffffffffffffffffffffffffffffff168152602001908152602001600020546117b990919063ffffffff16565b600e60008673ffffffffffffffffffffffffffffffffffffffff1673ffffffffffffffffffffffffffffffffffffffff16815260200190815260200160002060003373ffffffffffffffffffffffffffffffffffffffff1673ffffffffffffffffffffffffffffffffffffffff16815260200190815260200160002081905550610bce8484846117d2565b600190509392505050565b60035481565b600960009054906101000a900460ff16158015610bfd575060085442115b15610d1357610c196006546005546117b990919063ffffffff16565b600581905550610c73600654600d60003073ffffffffffffffffffffffffffffffffffffffff1673ffffffffffffffffffffffffffffffffffffffff168152602001908152602001600020546117b990919063ffffffff16565b600d60003073ffffffffffffffffffffffffffffffffffffffff1673ffffffffffffffffffffffffffffffffffffffff168152602001908152602001600020819055507fd83c63197e8e676d80ab0122beba9a9d20f3828839e9a1d6fe81d242e9cd7e6e6006546040518082815260200191505060405180910390a16001600960006101000a81548160ff02191690831515021790555060006006819055505b565b600080600e60003373ffffffffffffffffffffffffffffffffffffffff1673ffffffffffffffffffffffffffffffffffffffff16815260200190815260200160002060008573ffffffffffffffffffffffffffffffffffffffff1673ffffffffffffffffffffffffffffffffffffffff16815260200190815260200160002054905080831115610e26576000600e60003373ffffffffffffffffffffffffffffffffffffffff1673ffffffffffffffffffffffffffffffffffffffff16815260200190815260200160002060008673ffffffffffffffffffffffffffffffffffffffff1673ffffffffffffffffffffffffffffffffffffffff16815260200190815260200160002081905550610eba565b610e3983826117b990919063ffffffff16565b600e60003373ffffffffffffffffffffffffffffffffffffffff1673ffffffffffffffffffffffffffffffffffffffff16815260200190815260200160002060008673ffffffffffffffffffffffffffffffffffffffff1673ffffffffffffffffffffffffffffffffffffffff168152602001908152602001600020819055505b8373ffffffffffffffffffffffffffffffffffffffff163373ffffffffffffffffffffffffffffffffffffffff167f8c5be1e5ebec7d5bd14f71427d1e84f3dd0314c0f7b2291e5b200ac8c7c3b925600e60003373ffffffffffffffffffffffffffffffffffffffff1673ffffffffffffffffffffffffffffffffffffffff16815260200190815260200160002060008873ffffffffffffffffffffffffffffffffffffffff1673ffffffffffffffffffffffffffffffffffffffff168152602001908152602001600020546040518082815260200191505060405180910390a3600191505092915050565b600d6020528060005260406000206000915090505481565b60085481565b60065481565b60075481565b600c60009054906101000a900473ffffffffffffffffffffffffffffffffffffffff1681565b60028054600181600116156101000203166002900480601f01602080910402602001604051908101604052809291908181526020018280546001816001161561010002031660029004801561108c5780601f106110615761010080835404028352916020019161108c565b820191906000526020600020905b81548152906001019060200180831161106f57829003601f168201915b505050505081565b61109f3383836117d2565b5050565b600a60009054906101000a900473ffffffffffffffffffffffffffffffffffffffff1681565b6000806000809054906101000a900473ffffffffffffffffffffffffffffffffffffffff1673ffffffffffffffffffffffffffffffffffffffff163373ffffffffffffffffffffffffffffffffffffffff1614151561112757600080fd5b8490506111348585610915565b15611299578073ffffffffffffffffffffffffffffffffffffffff16638f4ffcb1338630876040518563ffffffff167c0100000000000000000000000000000000000000000000000000000000028152600401808573ffffffffffffffffffffffffffffffffffffffff1673ffffffffffffffffffffffffffffffffffffffff1681526020018481526020018373ffffffffffffffffffffffffffffffffffffffff1673ffffffffffffffffffffffffffffffffffffffff16815260200180602001828103825283818151815260200191508051906020019080838360005b8381101561122e578082015181840152602081019050611213565b50505050905090810190601f16801561125b5780820380516001836020036101000a031916815260200191505b5095505050505050600060405180830381600087803b151561127c57600080fd5b6102c65a03f1151561128d57600080fd5b5050506001915061129a565b5b509392505050565b6000600f60008373ffffffffffffffffffffffffffffffffffffffff1673ffffffffffffffffffffffffffffffffffffffff16815260200190815260200160002060009054906101000a900460ff169050919050565b600061138982600e60003373ffffffffffffffffffffffffffffffffffffffff1673ffffffffffffffffffffffffffffffffffffffff16815260200190815260200160002060008673ffffffffffffffffffffffffffffffffffffffff1673ffffffffffffffffffffffffffffffffffffffff16815260200190815260200160002054611c0290919063ffffffff16565b600e60003373ffffffffffffffffffffffffffffffffffffffff1673ffffffffffffffffffffffffffffffffffffffff16815260200190815260200160002060008573ffffffffffffffffffffffffffffffffffffffff1673ffffffffffffffffffffffffffffffffffffffff168152602001908152602001600020819055508273ffffffffffffffffffffffffffffffffffffffff163373ffffffffffffffffffffffffffffffffffffffff167f8c5be1e5ebec7d5bd14f71427d1e84f3dd0314c0f7b2291e5b200ac8c7c3b925600e60003373ffffffffffffffffffffffffffffffffffffffff1673ffffffffffffffffffffffffffffffffffffffff16815260200190815260200160002060008773ffffffffffffffffffffffffffffffffffffffff1673ffffffffffffffffffffffffffffffffffffffff168152602001908152602001600020546040518082815260200191505060405180910390a36001905092915050565b600e602052816000526040600020602052806000526040600020600091509150505481565b600b60009054906101000a900473ffffffffffffffffffffffffffffffffffffffff1681565b6000809054906101000a900473ffffffffffffffffffffffffffffffffffffffff1673ffffffffffffffffffffffffffffffffffffffff163373ffffffffffffffffffffffffffffffffffffffff1614151561159a57600080fd5b80600f60008473ffffffffffffffffffffffffffffffffffffffff1673ffffffffffffffffffffffffffffffffffffffff16815260200190815260200160002060006101000a81548160ff0219169083151502179055507f48335238b4855f35377ed80f164e8c6f3c366e54ac00b96a6402d4a9814a03a58282604051808373ffffffffffffffffffffffffffffffffffffffff1673ffffffffffffffffffffffffffffffffffffffff168152602001821515151581526020019250505060405180910390a15050565b6000809054906101000a900473ffffffffffffffffffffffffffffffffffffffff1673ffffffffffffffffffffffffffffffffffffffff163373ffffffffffffffffffffffffffffffffffffffff161415156116bf57600080fd5b600073ffffffffffffffffffffffffffffffffffffffff168173ffffffffffffffffffffffffffffffffffffffff16141515156116fb57600080fd5b8073ffffffffffffffffffffffffffffffffffffffff166000809054906101000a900473ffffffffffffffffffffffffffffffffffffffff1673ffffffffffffffffffffffffffffffffffffffff167f8be0079c531659141344cd1fd0a4f28419497f9722a3daafe3b4186f6b6457e060405160405180910390a3806000806101000a81548173ffffffffffffffffffffffffffffffffffffffff021916908373ffffffffffffffffffffffffffffffffffffffff16021790555050565b60008282111515156117c757fe5b818303905092915050565b6000600f60003373ffffffffffffffffffffffffffffffffffffffff1673ffffffffffffffffffffffffffffffffffffffff16815260200190815260200160002060009054906101000a900460ff1615151561182d57600080fd5b60008373ffffffffffffffffffffffffffffffffffffffff161415151561185357600080fd5b81600d60008673ffffffffffffffffffffffffffffffffffffffff1673ffffffffffffffffffffffffffffffffffffffff16815260200190815260200160002054101515156118a157600080fd5b600d60008473ffffffffffffffffffffffffffffffffffffffff1673ffffffffffffffffffffffffffffffffffffffff1681526020019081526020016000205461193383600d60008773ffffffffffffffffffffffffffffffffffffffff1673ffffffffffffffffffffffffffffffffffffffff16815260200190815260200160002054611c0290919063ffffffff16565b11151561193f57600080fd5b6119d0600d60008573ffffffffffffffffffffffffffffffffffffffff1673ffffffffffffffffffffffffffffffffffffffff16815260200190815260200160002054600d60008773ffffffffffffffffffffffffffffffffffffffff1673ffffffffffffffffffffffffffffffffffffffff16815260200190815260200160002054611c0290919063ffffffff16565b9050611a2482600d60008773ffffffffffffffffffffffffffffffffffffffff1673ffffffffffffffffffffffffffffffffffffffff168152602001908152602001600020546117b990919063ffffffff16565b600d60008673ffffffffffffffffffffffffffffffffffffffff1673ffffffffffffffffffffffffffffffffffffffff16815260200190815260200160002081905550611ab982600d60008673ffffffffffffffffffffffffffffffffffffffff1673ffffffffffffffffffffffffffffffffffffffff16815260200190815260200160002054611c0290919063ffffffff16565b600d60008573ffffffffffffffffffffffffffffffffffffffff1673ffffffffffffffffffffffffffffffffffffffff168152602001908152602001600020819055508273ffffffffffffffffffffffffffffffffffffffff168473ffffffffffffffffffffffffffffffffffffffff167fddf252ad1be2c89b69c2b068fc378daa952ba7f163c4a11628f55a4df523b3ef846040518082815260200191505060405180910390a380611bf3600d60008673ffffffffffffffffffffffffffffffffffffffff1673ffffffffffffffffffffffffffffffffffffffff16815260200190815260200160002054600d60008873ffffffffffffffffffffffffffffffffffffffff1673ffffffffffffffffffffffffffffffffffffffff16815260200190815260200160002054611c0290919063ffffffff16565b141515611bfc57fe5b50505050565b6000808284019050838110151515611c1657fe5b8091505092915050565b60008082840290506000841480611c415750828482811515611c3e57fe5b04145b1515611c4957fe5b8091505092915050565b6000808284811515611c6157fe5b04905080915050929150505600a165627a7a72305820ddf3c6b6c0f318bb6764884eb1341ef1c73fcc78d39a6b469ebc41b128d49e990029",
  "source": "pragma solidity ^0.4.18;\n\nimport \"./SafeMath.sol\";\nimport \"./Ownable.sol\";\n\ninterface tokenRecipient\n{\n    function receiveApproval(address _from, uint256 _value, address _token, bytes _extraData) public;\n}\n\ncontract TokenERC20 is Ownable\n{\n    using SafeMath for uint;\n\n    // Public variables of the token\n    string public name;\n    string public symbol;\n    uint256 public decimals = 18;\n    uint256 DEC = 10 ** uint256(decimals);\n    uint256 public totalSupply;\n    uint256 public availableSupply;\n    uint256 public buyPrice = 1000000000000000000 wei;\n\n    uint public icoEndTime = 1530403200; // ICO end time - Sunday, 1 July 2018, 00:00:00.\n    bool burned;\n\n    address public companyWallet = 0xD5B93C49c4201DB2A674A7d0FC5f3F733EBaDe80;\n    address public internalExchangeWallet = 0xD5B93C49c4201DB2A674A7d0FC5f3F733EBaDe80;\n    address public bountyWallet = 0xD5B93C49c4201DB2A674A7d0FC5f3F733EBaDe80;\n    address public tournamentsWallet = 0xD5B93C49c4201DB2A674A7d0FC5f3F733EBaDe80;\n\n\n    // This creates an array with all balances\n    mapping (address => uint256) public balanceOf;\n    mapping (address => mapping (address => uint256)) public allowance;\n\n    // freezeAccount() frozen()\n    mapping (address => bool) frozenAccount;\n\n    // This generates a public event on the blockchain that will notify clients\n    event Transfer(address indexed from, address indexed to, uint256 value);\n    event Burned(uint amount);\n    event Approval(address indexed _owner, address indexed _spender, uint256 _value);\n    event FrozenFunds(address target, bool frozen);\n\n    /**\n     * Constructor function\n     *\n     * Initializes contract with initial supply tokens to the creator of the contract\n     */\n    function TokenERC20( uint256 initialSupply, string tokenName, string tokenSymbol) public\n    {\n        totalSupply = initialSupply.mul(DEC);  // Update total supply with the decimal amount\n\n        balanceOf[this] = (totalSupply.mul(60)).div(100);                    // Send 60% of tokens to smart contract wallet      420,000,000 LOGIQ\n        balanceOf[companyWallet] = (totalSupply.mul(20)).div(100);           // Send 20% of tokens to company wallet             140,000,000 LOGIQ\n        balanceOf[internalExchangeWallet] = (totalSupply.mul(10)).div(100);  // Send 10% of tokens to internal exchange wallet   70,000,000 LOGIQ\n        balanceOf[bountyWallet] = (totalSupply.mul(5)).div(100);             // Send 5% of tokens to bounty wallet               35,000,000 LOGIQ\n        balanceOf[tournamentsWallet] = (totalSupply.mul(5)).div(100);        // Send 5% of tokens to tournaments wallet          35,000,000 LOGIQ\n\n        availableSupply = balanceOf[this];     // Show how much tokens on contract\n        name = tokenName;                      // Set the name for display purposes\n        symbol = tokenSymbol;                  // Set the symbol for display purposes\n    }\n\n    /**\n     * Internal transfer, only can be called by this contract\n     *\n     * @param _from - address of the contract\n     * @param _to - address of the investor\n     * @param _value - tokens for the investor\n     */\n    function _transfer(address _from, address _to, uint256 _value) internal\n    {\n        // Check if not frozen\n        require(!frozenAccount[msg.sender]);\n        // Prevent transfer to 0x0 address. Use burn() instead\n        require(_to != 0x0);\n        // Check if the sender has enough\n        require(balanceOf[_from] >= _value);\n        // Check for overflows\n        require(balanceOf[_to].add(_value) > balanceOf[_to]);\n        // Save this for an assertion in the future\n        uint previousBalances = balanceOf[_from].add(balanceOf[_to]);\n        // Subtract from the sender\n        balanceOf[_from] = balanceOf[_from].sub(_value);\n        // Add the same to the recipient\n        balanceOf[_to] = balanceOf[_to].add(_value);\n\n        Transfer(_from, _to, _value);\n        // Asserts are used to use static analysis to find bugs in your code. They should never fail\n        assert(balanceOf[_from].add(balanceOf[_to]) == previousBalances);\n    }\n\n    /**\n     * Transfer tokens\n     *\n     * Send `_value` tokens to `_to` from your account\n     *\n     * @param _to The address of the recipient\n     * @param _value the amount to send\n     */\n    function transfer(address _to, uint256 _value) public\n    {\n        _transfer(msg.sender, _to, _value);\n    }\n\n    /**\n     * Transfer tokens from other address\n     *\n     * Send `_value` tokens to `_to` in behalf of `_from`\n     *\n     * @param _from The address of the sender\n     * @param _to The address of the recipient\n     * @param _value the amount to send\n     */\n    function transferFrom(address _from, address _to, uint256 _value) public\n    returns (bool success)\n    {\n        require(!frozenAccount[msg.sender]);                 // Check if not frozen\n        require(_value <= allowance[_from][msg.sender]);     // Check allowance\n\n        allowance[_from][msg.sender] = allowance[_from][msg.sender].sub(_value);\n        _transfer(_from, _to, _value);\n\n        return true;\n    }\n\n    /**\n     * Set allowance for other address\n     *\n     * Allows `_spender` to spend no more than `_value` tokens in your behalf\n     *\n     * @param _spender The address authorized to spend\n     * @param _value the max amount they can spend\n     */\n    function approve(address _spender, uint256 _value) public\n    returns (bool success)\n    {\n        allowance[msg.sender][_spender] = _value;\n\n        return true;\n    }\n\n    /**\n     * Set allowance for other address and notify\n     *\n     * Allows `_spender` to spend no more than `_value` tokens in your behalf, and then ping the contract about it\n     *\n     * @param _spender The address authorized to spend\n     * @param _value the max amount they can spend\n     * @param _extraData some extra information to send to the approved contract\n     */\n    function approveAndCall(address _spender, uint256 _value, bytes _extraData) public onlyOwner\n    returns (bool success)\n    {\n        tokenRecipient spender = tokenRecipient(_spender);\n\n        if (approve(_spender, _value)) {\n            spender.receiveApproval(msg.sender, _value, this, _extraData);\n\n            return true;\n        }\n    }\n\n    /**\n     * Approve should be called when allowed[_spender] == 0. To increment\n     * allowed value is better to use this function to avoid 2 calls (and wait until\n     * the first transaction is mined)\n     * From MonolithDAO Token.sol\n     */\n    function increaseApproval (address _spender, uint _addedValue) public\n    returns (bool success)\n    {\n        allowance[msg.sender][_spender] = allowance[msg.sender][_spender].add(_addedValue);\n\n        Approval(msg.sender, _spender, allowance[msg.sender][_spender]);\n\n        return true;\n    }\n\n    function decreaseApproval (address _spender, uint _subtractedValue) public\n    returns (bool success)\n    {\n        uint oldValue = allowance[msg.sender][_spender];\n\n        if (_subtractedValue > oldValue) {\n            allowance[msg.sender][_spender] = 0;\n        } else {\n            allowance[msg.sender][_spender] = oldValue.sub(_subtractedValue);\n        }\n\n        Approval(msg.sender, _spender, allowance[msg.sender][_spender]);\n\n        return true;\n    }\n\n    /**\n     * Owner can set any account into freeze state. It is helpful in case if account holder has\n     * lost his key and he want administrator to freeze account until account key is recovered\n     * @param target The account address\n     * @param freeze The state of account\n     */\n    function freezeAccount(address target, bool freeze) public onlyOwner\n    {\n        frozenAccount[target] = freeze;\n        FrozenFunds(target, freeze);\n    }\n\n    function frozen(address _target) view public returns (bool)\n    {\n        return frozenAccount[_target];\n    }\n\n    /**\n    *  Burn tokens\n    *\n    *  Called when ICO is closed. Burns the remaining tokens except the tokens reserved:\n    *  - for company              (20% / 140.000.000)\n    *  - for internal exchanges   (10% / 70.000.000)\n    *  - for bounty community     (5% / 35.000.000)\n    *  - for tournaments          (5% / 35.000.000)\n    *\n    *  Anybody may burn the tokens after ICO ended, but only once.\n    *  this ensures that the owner will not posses a majority of the tokens.\n    */\n    function burn() public\n    {\n        // If tokens have not been burned already and the crowdsale ended\n        if (!burned && now > icoEndTime) {\n            totalSupply = totalSupply.sub(availableSupply);\n            balanceOf[this] = balanceOf[this].sub(availableSupply);\n            Burned(availableSupply);\n            burned = true;\n            availableSupply = 0;\n        }\n    }\n\n}",
  "sourcePath": "C:\\Users\\854441\\Desktop\\smrt-contract\\contracts\\TokenERC20.sol",
  "compiler": {
    "name": "solc",
    "version": "0.4.18+commit.9cf6e910.Emscripten.clang"
  },
  "schemaVersion": "1.0.1",
  "updatedAt": "2018-02-07T23:47:47.012Z"
}